{
  "contractName": "DwellerID",
  "abi": [
    {
      "inputs": [
        {
          "internalType": "bytes32",
          "name": "_name",
          "type": "bytes32"
        },
        {
          "internalType": "address",
          "name": "_dweller",
          "type": "address"
        }
      ],
      "stateMutability": "nonpayable",
      "type": "constructor"
    },
    {
      "anonymous": false,
      "inputs": [
        {
          "indexed": true,
          "internalType": "address",
          "name": "dweller",
          "type": "address"
        }
      ],
      "name": "DwellerSet",
      "type": "event"
    },
    {
      "anonymous": false,
      "inputs": [
        {
          "indexed": true,
          "internalType": "bytes32",
          "name": "photoHashBeg",
          "type": "bytes32"
        },
        {
          "indexed": true,
          "internalType": "bytes32",
          "name": "photoHashEnd",
          "type": "bytes32"
        }
      ],
      "name": "PhotoSet",
      "type": "event"
    },
    {
      "inputs": [],
      "name": "registry",
      "outputs": [
        {
          "internalType": "address",
          "name": "",
          "type": "address"
        }
      ],
      "stateMutability": "view",
      "type": "function"
    },
    {
      "inputs": [],
      "name": "status",
      "outputs": [
        {
          "internalType": "string",
          "name": "",
          "type": "string"
        }
      ],
      "stateMutability": "view",
      "type": "function"
    },
    {
      "inputs": [],
      "name": "getDweller",
      "outputs": [
        {
          "internalType": "address",
          "name": "address_",
          "type": "address"
        },
        {
          "internalType": "bytes32",
          "name": "name_",
          "type": "bytes32"
        },
        {
          "internalType": "bytes32",
          "name": "photoIPFSHash1_",
          "type": "bytes32"
        },
        {
          "internalType": "bytes32",
          "name": "photoIPFSHash2_",
          "type": "bytes32"
        }
      ],
      "stateMutability": "view",
      "type": "function"
    },
    {
      "inputs": [],
      "name": "getDwellerAddress",
      "outputs": [
        {
          "internalType": "address",
          "name": "",
          "type": "address"
        }
      ],
      "stateMutability": "view",
      "type": "function"
    },
    {
      "inputs": [],
      "name": "getDwellerName",
      "outputs": [
        {
          "internalType": "bytes32",
          "name": "",
          "type": "bytes32"
        }
      ],
      "stateMutability": "view",
      "type": "function"
    },
    {
      "inputs": [],
      "name": "getPhoto",
      "outputs": [
        {
          "internalType": "bytes",
          "name": "",
          "type": "bytes"
        }
      ],
      "stateMutability": "view",
      "type": "function"
    },
    {
      "inputs": [],
      "name": "getServers",
      "outputs": [
        {
          "internalType": "address[]",
          "name": "",
          "type": "address[]"
        }
      ],
      "stateMutability": "view",
      "type": "function"
    },
    {
      "inputs": [
        {
          "internalType": "address",
          "name": "server",
          "type": "address"
        }
      ],
      "name": "joinServer",
      "outputs": [],
      "stateMutability": "nonpayable",
      "type": "function"
    },
    {
      "inputs": [
        {
          "internalType": "address",
          "name": "server",
          "type": "address"
        }
      ],
      "name": "leaveServer",
      "outputs": [],
      "stateMutability": "nonpayable",
      "type": "function"
    },
    {
      "inputs": [
        {
          "internalType": "bytes32",
          "name": "_name",
          "type": "bytes32"
        }
      ],
      "name": "setDwellerName",
      "outputs": [],
      "stateMutability": "nonpayable",
      "type": "function"
    },
    {
      "inputs": [
        {
          "internalType": "bytes32[2]",
          "name": "hash",
          "type": "bytes32[2]"
        }
      ],
      "name": "setPhoto",
      "outputs": [],
      "stateMutability": "nonpayable",
      "type": "function"
    },
    {
      "inputs": [
        {
          "internalType": "string",
          "name": "_status",
          "type": "string"
        }
      ],
      "name": "setStatus",
      "outputs": [],
      "stateMutability": "nonpayable",
      "type": "function"
    }
  ],
  "bytecode": "0x60806040526040518060400160405280601381526020017f53697474696e6720696e206f726269742e2e2e000000000000000000000000008152506006908051906020019061004f929190610190565b5034801561005c57600080fd5b50604051620010dc380380620010dc8339818101604052604081101561008157600080fd5b810190808051906020019092919080519060200190929190505050336000806101000a81548173ffffffffffffffffffffffffffffffffffffffff021916908373ffffffffffffffffffffffffffffffffffffffff16021790555080600160006101000a81548173ffffffffffffffffffffffffffffffffffffffff021916908373ffffffffffffffffffffffffffffffffffffffff16021790555081600281905550600160009054906101000a900473ffffffffffffffffffffffffffffffffffffffff1673ffffffffffffffffffffffffffffffffffffffff167f7ad616c31c10c22596ef8cf9862a7806725e419456cfef5415b40f0c04f0c27760405160405180910390a2505061023b565b828054600181600116156101000203166002900490600052602060002090601f0160209004810192826101c6576000855561020d565b82601f106101df57805160ff191683800117855561020d565b8280016001018555821561020d579182015b8281111561020c5782518255916020019190600101906101f1565b5b50905061021a919061021e565b5090565b5b8082111561023757600081600090555060010161021f565b5090565b610e91806200024b6000396000f3fe608060405234801561001057600080fd5b50600436106100b45760003560e01c806394b489cd1161007157806394b489cd14610333578063983f669b14610367578063b2ec005e146103b0578063bf1de8fa14610433578063e6b678c114610451578063ea0b1a7b14610495576100b4565b8063200d2ed2146100b957806332aee87f1461013c5780634907aba01461018057806375c1c7e7146101e55780637b103999146102445780637d2211d614610278575b600080fd5b6100c16104c3565b6040518080602001828103825283818151815260200191508051906020019080838360005b838110156101015780820151818401526020810190506100e6565b50505050905090810190601f16801561012e5780820380516001836020036101000a031916815260200191505b509250505060405180910390f35b61017e6004803603602081101561015257600080fd5b81019080803573ffffffffffffffffffffffffffffffffffffffff169060200190929190505050610561565b005b6101e36004803603604081101561019657600080fd5b8101908080604001906002806020026040519081016040528092919082600260200280828437600081840152601f19601f8201169050808301925050505050509192919290505050610688565b005b6101ed6107b0565b6040518080602001828103825283818151815260200191508051906020019060200280838360005b83811015610230578082015181840152602081019050610215565b505050509050019250505060405180910390f35b61024c61093a565b604051808273ffffffffffffffffffffffffffffffffffffffff16815260200191505060405180910390f35b6103316004803603602081101561028e57600080fd5b81019080803590602001906401000000008111156102ab57600080fd5b8201836020820111156102bd57600080fd5b803590602001918460018302840111640100000000831117156102df57600080fd5b91908080601f016020809104026020016040519081016040528093929190818152602001838380828437600081840152601f19601f82011690508083019250505050505050919291929050505061095e565b005b61033b610a3b565b604051808273ffffffffffffffffffffffffffffffffffffffff16815260200191505060405180910390f35b61036f610a65565b604051808573ffffffffffffffffffffffffffffffffffffffff16815260200184815260200183815260200182815260200194505050505060405180910390f35b6103b8610aa5565b6040518080602001828103825283818151815260200191508051906020019080838360005b838110156103f85780820151818401526020810190506103dd565b50505050905090810190601f1680156104255780820380516001836020036101000a031916815260200191505b509250505060405180910390f35b61043b610b0e565b6040518082815260200191505060405180910390f35b6104936004803603602081101561046757600080fd5b81019080803573ffffffffffffffffffffffffffffffffffffffff169060200190929190505050610b18565b005b6104c1600480360360208110156104ab57600080fd5b8101908080359060200190929190505050610cc0565b005b60068054600181600116156101000203166002900480601f0160208091040260200160405190810160405280929190818152602001828054600181600116156101000203166002900480156105595780601f1061052e57610100808354040283529160200191610559565b820191906000526020600020905b81548152906001019060200180831161053c57829003601f168201915b505050505081565b60008054906101000a900473ffffffffffffffffffffffffffffffffffffffff1673ffffffffffffffffffffffffffffffffffffffff163373ffffffffffffffffffffffffffffffffffffffff1614610622576040517f08c379a000000000000000000000000000000000000000000000000000000000815260040180806020018281038252601a8152602001807f4f6e6c792063616c6c61626c652062792072656769737472792e00000000000081525060200191505060405180910390fd5b6005819080600181540180825580915050600190039060005260206000200160009091909190916101000a81548173ffffffffffffffffffffffffffffffffffffffff021916908373ffffffffffffffffffffffffffffffffffffffff16021790555050565b600160009054906101000a900473ffffffffffffffffffffffffffffffffffffffff1673ffffffffffffffffffffffffffffffffffffffff163373ffffffffffffffffffffffffffffffffffffffff161461074b576040517f08c379a00000000000000000000000000000000000000000000000000000000081526004018080602001828103825260208152602001807f4e6f7420746865206477656c6c657220776527726520657870656374696e672e81525060200191505060405180910390fd5b8060006002811061075857fe5b60200201516003819055508060016002811061077057fe5b60200201516004819055506004546003547fb1101f1c17bd0104e6b31706b3268944399b3ee606cb859f3563ff3e184025ce60405160405180910390a350565b606060008054906101000a900473ffffffffffffffffffffffffffffffffffffffff1673ffffffffffffffffffffffffffffffffffffffff163373ffffffffffffffffffffffffffffffffffffffff1614806108595750600160009054906101000a900473ffffffffffffffffffffffffffffffffffffffff1673ffffffffffffffffffffffffffffffffffffffff163373ffffffffffffffffffffffffffffffffffffffff16145b6108ae576040517f08c379a0000000000000000000000000000000000000000000000000000000008152600401808060200182810382526023815260200180610e396023913960400191505060405180910390fd5b600580548060200260200160405190810160405280929190818152602001828054801561093057602002820191906000526020600020905b8160009054906101000a900473ffffffffffffffffffffffffffffffffffffffff1673ffffffffffffffffffffffffffffffffffffffff16815260200190600101908083116108e6575b5050505050905090565b60008054906101000a900473ffffffffffffffffffffffffffffffffffffffff1681565b600160009054906101000a900473ffffffffffffffffffffffffffffffffffffffff1673ffffffffffffffffffffffffffffffffffffffff163373ffffffffffffffffffffffffffffffffffffffff1614610a21576040517f08c379a00000000000000000000000000000000000000000000000000000000081526004018080602001828103825260208152602001807f4e6f7420746865206477656c6c657220776527726520657870656374696e672e81525060200191505060405180910390fd5b8060069080519060200190610a37929190610d8d565b5050565b6000600160009054906101000a900473ffffffffffffffffffffffffffffffffffffffff16905090565b600080600080600160009054906101000a900473ffffffffffffffffffffffffffffffffffffffff16600254600354600454935093509350935090919293565b60606000604067ffffffffffffffff81118015610ac157600080fd5b506040519080825280601f01601f191660200182016040528015610af45781602001600182028036833780820191505090505b509050600354602082015260045460408201528091505090565b6000600254905090565b60008054906101000a900473ffffffffffffffffffffffffffffffffffffffff1673ffffffffffffffffffffffffffffffffffffffff163373ffffffffffffffffffffffffffffffffffffffff1614610bd9576040517f08c379a000000000000000000000000000000000000000000000000000000000815260040180806020018281038252601a8152602001807f4f6e6c792063616c6c61626c652062792072656769737472792e00000000000081525060200191505060405180910390fd5b60006005805490501415610bec57610cbd565b600080600090505b600160058054905003811015610c80578273ffffffffffffffffffffffffffffffffffffffff1660058281548110610c2857fe5b9060005260206000200160009054906101000a900473ffffffffffffffffffffffffffffffffffffffff1673ffffffffffffffffffffffffffffffffffffffff161415610c73578091505b8080600101915050610bf4565b5060058181548110610c8e57fe5b9060005260206000200160006101000a81549073ffffffffffffffffffffffffffffffffffffffff0219169055505b50565b600160009054906101000a900473ffffffffffffffffffffffffffffffffffffffff1673ffffffffffffffffffffffffffffffffffffffff163373ffffffffffffffffffffffffffffffffffffffff1614610d83576040517f08c379a00000000000000000000000000000000000000000000000000000000081526004018080602001828103825260208152602001807f4e6f7420746865206477656c6c657220776527726520657870656374696e672e81525060200191505060405180910390fd5b8060028190555050565b828054600181600116156101000203166002900490600052602060002090601f016020900481019282610dc35760008555610e0a565b82601f10610ddc57805160ff1916838001178555610e0a565b82800160010185558215610e0a579182015b82811115610e09578251825591602001919060010190610dee565b5b509050610e179190610e1b565b5090565b5b80821115610e34576000816000905550600101610e1c565b509056fe4f6e6c792063616c6c61626c65206279207265676973747279206f72206f776e65722ea26469706673582212200497b9f162238303b16a1ee2898688a0c546f2ae70304d5246028ef6adaf0baf64736f6c63430007060033",
  "immutableReferences": {},
  "source": "// SPDX-License-Identifier: MIT\npragma solidity >=0.7.0 <0.8.0;\n\n/**\n * @title DwellerID\n * @dev Represents identification of a Vault Dweller\n */\ncontract DwellerID {\n    // The parent registry that created this identification contract\n    address public registry;\n    // The dweller represents the owner of this identification contract\n    address private dweller;\n    // This is the display name of a dweller\n    bytes32 private name;\n    // Optional photo identification of the dweller\n    // Stored as a split Multihash referencing IPFS hash of dwellers photo\n    bytes32 private photoHashBeg;\n    bytes32 private photoHashEnd;\n\n    address[] private servers;\n\n    string public status = \"Sitting in orbit...\";\n\n    // Events\n    event DwellerSet(address indexed dweller);\n    event PhotoSet (\n        bytes32 indexed photoHashBeg,\n        bytes32 indexed photoHashEnd\n    );\n\n    // modifier to check if caller is owner\n    modifier isOwner() {\n        // If the first argument of 'require' evaluates to 'false', execution terminates and all\n        // changes to the state and to Ether balances are reverted.\n        require(msg.sender == dweller, \"Not the dweller we're expecting.\");\n        _;\n    }\n    modifier isRegistry() {\n        // If the first argument of 'require' evaluates to 'false', execution terminates and all\n        // changes to the state and to Ether balances are reverted.\n        require(msg.sender == registry, \"Only callable by registry.\");\n        _;\n    }\n    modifier isRegistryOrOwner() {\n        require(msg.sender == registry || msg.sender == dweller, \"Only callable by registry or owner.\");\n        _;\n    }\n\n    /**\n     * @dev Set contract deployer as dweller (owner)\n     * @param _name What should we call you, dweller?\n     */\n    constructor(bytes32 _name, address _dweller) {\n        registry = msg.sender;\n        dweller = _dweller;\n        name = _name;\n        emit DwellerSet(dweller);\n    }\n\n    /**\n     * Getters\n     */\n\n    /**\n     * @dev Return owner address \n     * @return address_ owner address of dweller \n     * @return name_ name of the dweller\n     * @return photoIPFSHash1_ part 1 of the dwellers photo IPFS hash\n     * @return photoIPFSHash2_ part 2 of the dwellers photo IPFS hash\n     */\n    function getDweller() \n        external \n        view \n        returns (\n            address address_, \n            bytes32 name_,\n            bytes32 photoIPFSHash1_,\n            bytes32 photoIPFSHash2_\n        )\n    {\n        return (dweller, name, photoHashBeg, photoHashEnd);\n    }\n\n    /**\n     * @dev Return dweller's address (owner address)\n     * @return dweller address\n     */\n    function getDwellerAddress() \n        external \n        view \n        returns (address) \n    {\n        return dweller;\n    }\n\n    /**\n     * @dev Return dweller's name (display name)\n     * @return dweller name\n     */\n    function getDwellerName() \n        external \n        view \n        returns (bytes32) \n    {\n        return name;\n    }\n\n    /**\n     * @dev Get the dweller's photo IPFS hash\n     * @return dweller photo IPFS hash\n     */\n    function getPhoto() \n        public \n        view \n        returns (bytes memory) \n    {\n        bytes memory joined = new bytes(64);\n        // Join the two hash parts of photos IPFS hash\n        assembly {\n            mstore(add(joined, 32), sload(photoHashBeg.slot))\n            mstore(add(joined, 64), sload(photoHashEnd.slot))\n        }\n        return joined; \n    }\n\n    function getServers() \n        public\n        view\n        isRegistryOrOwner\n        returns (address[] memory)\n    {\n        return servers;\n    }\n\n    /**\n     * Setters\n     */\n\n    /**\n     * @dev Add a server from list of server contracts\n     * @param server Address pointing to server contract\n     */\n    function joinServer(address server) \n        public\n        isRegistry\n    {\n        servers.push(server);\n    }\n\n    /**\n     * @dev Remove server from list of server contracts\n     * @param server Address pointing to server contract\n     */\n    function leaveServer(address server) \n        public\n        isRegistry\n    {\n        if (servers.length == 0) return;\n        uint indx;\n        for (uint i = 0; i < servers.length-1; i++){\n            if (servers[i] == server) {\n                indx = i;\n            }\n        }\n        delete servers[indx];\n        \n    }\n\n    /**\n     * @dev Change dweller's display name\n     * @param _name What should we call you, dweller?\n     */\n    function setDwellerName(bytes32 _name) \n        public\n        isOwner\n    {\n        name = _name;\n    }\n\n    /**\n     * @dev Change dweller's display photo. Consider using PNG or JPEG photos for usability.\n     * @param hash split multihash referencing the IPFS hash for the photo\n     */\n    function setPhoto(bytes32[2] memory hash) \n        public \n        isOwner \n    {\n        photoHashBeg = hash[0];\n        photoHashEnd = hash[1];\n        emit PhotoSet(photoHashBeg, photoHashEnd);\n    }\n\n    /**\n     * @dev Update the users status\n     * @param _status string status to set.\n     */\n    function setStatus(string memory _status) \n        public\n        isOwner\n    {\n        status = _status;\n    }\n}",
  "sourcePath": "/Users/mtumiati/Knobs/satellite/Vault74-Contracts/contracts/DwellerID.sol",
  "compiler": {
    "name": "solc",
    "version": "0.7.6+commit.7338295f.Emscripten.clang"
  },
  "schemaVersion": "3.3.4",
  "updatedAt": "2021-04-04T19:48:01.593Z",
  "devdoc": {
    "details": "Represents identification of a Vault Dweller",
    "kind": "dev",
    "methods": {
      "constructor": {
        "details": "Set contract deployer as dweller (owner)",
        "params": {
          "_name": "What should we call you, dweller?"
        }
      },
      "getDweller()": {
        "details": "Return owner address ",
        "returns": {
          "address_": "owner address of dweller ",
          "name_": "name of the dweller",
          "photoIPFSHash1_": "part 1 of the dwellers photo IPFS hash",
          "photoIPFSHash2_": "part 2 of the dwellers photo IPFS hash"
        }
      },
      "getDwellerAddress()": {
        "details": "Return dweller's address (owner address)",
        "returns": {
          "_0": "dweller address"
        }
      },
      "getDwellerName()": {
        "details": "Return dweller's name (display name)",
        "returns": {
          "_0": "dweller name"
        }
      },
      "getPhoto()": {
        "details": "Get the dweller's photo IPFS hash",
        "returns": {
          "_0": "dweller photo IPFS hash"
        }
      },
      "joinServer(address)": {
        "details": "Add a server from list of server contracts",
        "params": {
          "server": "Address pointing to server contract"
        }
      },
      "leaveServer(address)": {
        "details": "Remove server from list of server contracts",
        "params": {
          "server": "Address pointing to server contract"
        }
      },
      "setDwellerName(bytes32)": {
        "details": "Change dweller's display name",
        "params": {
          "_name": "What should we call you, dweller?"
        }
      },
      "setPhoto(bytes32[2])": {
        "details": "Change dweller's display photo. Consider using PNG or JPEG photos for usability.",
        "params": {
          "hash": "split multihash referencing the IPFS hash for the photo"
        }
      },
      "setStatus(string)": {
        "details": "Update the users status",
        "params": {
          "_status": "string status to set."
        }
      }
    },
    "title": "DwellerID",
    "version": 1
  },
  "userdoc": {
    "kind": "user",
    "methods": {},
    "version": 1
  }
}