{
  "contractName": "DwellerID",
  "abi": [
    {
      "inputs": [
        {
          "internalType": "string",
          "name": "_name",
          "type": "string"
        },
        {
          "internalType": "address",
          "name": "_dweller",
          "type": "address"
        },
        {
          "internalType": "bytes",
          "name": "_pubkey",
          "type": "bytes"
        }
      ],
      "stateMutability": "nonpayable",
      "type": "constructor"
    },
    {
      "anonymous": false,
      "inputs": [
        {
          "indexed": true,
          "internalType": "address",
          "name": "dweller",
          "type": "address"
        }
      ],
      "name": "DwellerSet",
      "type": "event"
    },
    {
      "anonymous": false,
      "inputs": [
        {
          "indexed": true,
          "internalType": "string",
          "name": "photoHash",
          "type": "string"
        }
      ],
      "name": "PhotoSet",
      "type": "event"
    },
    {
      "inputs": [],
      "name": "dweller",
      "outputs": [
        {
          "internalType": "address",
          "name": "",
          "type": "address"
        }
      ],
      "stateMutability": "view",
      "type": "function"
    },
    {
      "inputs": [],
      "name": "name",
      "outputs": [
        {
          "internalType": "string",
          "name": "",
          "type": "string"
        }
      ],
      "stateMutability": "view",
      "type": "function"
    },
    {
      "inputs": [],
      "name": "photoHash",
      "outputs": [
        {
          "internalType": "string",
          "name": "",
          "type": "string"
        }
      ],
      "stateMutability": "view",
      "type": "function"
    },
    {
      "inputs": [],
      "name": "pubkey",
      "outputs": [
        {
          "internalType": "bytes",
          "name": "",
          "type": "bytes"
        }
      ],
      "stateMutability": "view",
      "type": "function"
    },
    {
      "inputs": [],
      "name": "registry",
      "outputs": [
        {
          "internalType": "address",
          "name": "",
          "type": "address"
        }
      ],
      "stateMutability": "view",
      "type": "function"
    },
    {
      "inputs": [],
      "name": "status",
      "outputs": [
        {
          "internalType": "string",
          "name": "",
          "type": "string"
        }
      ],
      "stateMutability": "view",
      "type": "function"
    },
    {
      "inputs": [],
      "name": "getDweller",
      "outputs": [
        {
          "internalType": "address",
          "name": "address_",
          "type": "address"
        },
        {
          "internalType": "string",
          "name": "name_",
          "type": "string"
        },
        {
          "internalType": "string",
          "name": "photoHash_",
          "type": "string"
        },
        {
          "internalType": "bytes",
          "name": "pubkey_",
          "type": "bytes"
        },
        {
          "internalType": "string",
          "name": "status_",
          "type": "string"
        }
      ],
      "stateMutability": "view",
      "type": "function"
    },
    {
      "inputs": [],
      "name": "getServers",
      "outputs": [
        {
          "internalType": "address[]",
          "name": "",
          "type": "address[]"
        }
      ],
      "stateMutability": "view",
      "type": "function"
    },
    {
      "inputs": [
        {
          "internalType": "address",
          "name": "server",
          "type": "address"
        }
      ],
      "name": "joinServer",
      "outputs": [],
      "stateMutability": "nonpayable",
      "type": "function"
    },
    {
      "inputs": [
        {
          "internalType": "address",
          "name": "server",
          "type": "address"
        }
      ],
      "name": "leaveServer",
      "outputs": [],
      "stateMutability": "nonpayable",
      "type": "function"
    },
    {
      "inputs": [
        {
          "internalType": "string",
          "name": "_name",
          "type": "string"
        }
      ],
      "name": "setDwellerName",
      "outputs": [],
      "stateMutability": "nonpayable",
      "type": "function"
    },
    {
      "inputs": [
        {
          "internalType": "string",
          "name": "_photoHash",
          "type": "string"
        }
      ],
      "name": "setPhoto",
      "outputs": [],
      "stateMutability": "nonpayable",
      "type": "function"
    },
    {
      "inputs": [
        {
          "internalType": "string",
          "name": "_status",
          "type": "string"
        }
      ],
      "name": "setStatus",
      "outputs": [],
      "stateMutability": "nonpayable",
      "type": "function"
    }
  ],
  "bytecode": "0x60806040526040518060400160405280601381526020017f53697474696e6720696e206f726269742e2e2e0000000000000000000000000081525060059080519060200190620000519291906200032e565b503480156200005f57600080fd5b5060405162001acf38038062001acf833981810160405260608110156200008557600080fd5b8101908080516040519392919084640100000000821115620000a657600080fd5b83820191506020820185811115620000bd57600080fd5b8251866001820283011164010000000082111715620000db57600080fd5b8083526020830192505050908051906020019080838360005b8381101562000111578082015181840152602081019050620000f4565b50505050905090810190601f1680156200013f5780820380516001836020036101000a031916815260200191505b5060405260200180519060200190929190805160405193929190846401000000008211156200016d57600080fd5b838201915060208201858111156200018457600080fd5b8251866001820283011164010000000082111715620001a257600080fd5b8083526020830192505050908051906020019080838360005b83811015620001d8578082015181840152602081019050620001bb565b50505050905090810190601f168015620002065780820380516001836020036101000a031916815260200191505b50604052505050336000806101000a81548173ffffffffffffffffffffffffffffffffffffffff021916908373ffffffffffffffffffffffffffffffffffffffff16021790555081600160006101000a81548173ffffffffffffffffffffffffffffffffffffffff021916908373ffffffffffffffffffffffffffffffffffffffff1602179055508260029080519060200190620002a69291906200032e565b508060049080519060200190620002bf929190620003c5565b50600160009054906101000a900473ffffffffffffffffffffffffffffffffffffffff1673ffffffffffffffffffffffffffffffffffffffff167f7ad616c31c10c22596ef8cf9862a7806725e419456cfef5415b40f0c04f0c27760405160405180910390a25050506200047b565b828054600181600116156101000203166002900490600052602060002090601f016020900481019282620003665760008555620003b2565b82601f106200038157805160ff1916838001178555620003b2565b82800160010185558215620003b2579182015b82811115620003b157825182559160200191906001019062000394565b5b509050620003c191906200045c565b5090565b828054600181600116156101000203166002900490600052602060002090601f016020900481019282620003fd576000855562000449565b82601f106200041857805160ff191683800117855562000449565b8280016001018555821562000449579182015b82811115620004485782518255916020019190600101906200042b565b5b5090506200045891906200045c565b5090565b5b80821115620004775760008160009055506001016200045d565b5090565b611644806200048b6000396000f3fe608060405234801561001057600080fd5b50600436106100cf5760003560e01c806375c1c7e71161008c578063961a5d0a11610066578063961a5d0a146104de578063983f669b14610599578063cfb1a7631461077d578063e6b678c114610800576100cf565b806375c1c7e7146103905780637b103999146103ef5780637d2211d614610423576100cf565b806306fdde03146100d457806309ee88a914610157578063200d2ed21461018b57806332aee87f1461020e578063484d59e6146102525780635836786a146102d5575b600080fd5b6100dc610844565b6040518080602001828103825283818151815260200191508051906020019080838360005b8381101561011c578082015181840152602081019050610101565b50505050905090810190601f1680156101495780820380516001836020036101000a031916815260200191505b509250505060405180910390f35b61015f6108e2565b604051808273ffffffffffffffffffffffffffffffffffffffff16815260200191505060405180910390f35b610193610908565b6040518080602001828103825283818151815260200191508051906020019080838360005b838110156101d35780820151818401526020810190506101b8565b50505050905090810190601f1680156102005780820380516001836020036101000a031916815260200191505b509250505060405180910390f35b6102506004803603602081101561022457600080fd5b81019080803573ffffffffffffffffffffffffffffffffffffffff1690602001909291905050506109a6565b005b61025a610acd565b6040518080602001828103825283818151815260200191508051906020019080838360005b8381101561029a57808201518184015260208101905061027f565b50505050905090810190601f1680156102c75780820380516001836020036101000a031916815260200191505b509250505060405180910390f35b61038e600480360360208110156102eb57600080fd5b810190808035906020019064010000000081111561030857600080fd5b82018360208201111561031a57600080fd5b8035906020019184600183028401116401000000008311171561033c57600080fd5b91908080601f016020809104026020016040519081016040528093929190818152602001838380828437600081840152601f19601f820116905080830192505050505050509192919290505050610b6b565b005b610398610c48565b6040518080602001828103825283818151815260200191508051906020019060200280838360005b838110156103db5780820151818401526020810190506103c0565b505050509050019250505060405180910390f35b6103f7610dd2565b604051808273ffffffffffffffffffffffffffffffffffffffff16815260200191505060405180910390f35b6104dc6004803603602081101561043957600080fd5b810190808035906020019064010000000081111561045657600080fd5b82018360208201111561046857600080fd5b8035906020019184600183028401116401000000008311171561048a57600080fd5b91908080601f016020809104026020016040519081016040528093929190818152602001838380828437600081840152601f19601f820116905080830192505050505050509192919290505050610df6565b005b610597600480360360208110156104f457600080fd5b810190808035906020019064010000000081111561051157600080fd5b82018360208201111561052357600080fd5b8035906020019184600183028401116401000000008311171561054557600080fd5b91908080601f016020809104026020016040519081016040528093929190818152602001838380828437600081840152601f19601f820116905080830192505050505050509192919290505050610ed3565b005b6105a1611046565b604051808673ffffffffffffffffffffffffffffffffffffffff16815260200180602001806020018060200180602001858103855289818151815260200191508051906020019080838360005b838110156106095780820151818401526020810190506105ee565b50505050905090810190601f1680156106365780820380516001836020036101000a031916815260200191505b50858103845288818151815260200191508051906020019080838360005b8381101561066f578082015181840152602081019050610654565b50505050905090810190601f16801561069c5780820380516001836020036101000a031916815260200191505b50858103835287818151815260200191508051906020019080838360005b838110156106d55780820151818401526020810190506106ba565b50505050905090810190601f1680156107025780820380516001836020036101000a031916815260200191505b50858103825286818151815260200191508051906020019080838360005b8381101561073b578082015181840152602081019050610720565b50505050905090810190601f1680156107685780820380516001836020036101000a031916815260200191505b50995050505050505050505060405180910390f35b6107856112fa565b6040518080602001828103825283818151815260200191508051906020019080838360005b838110156107c55780820151818401526020810190506107aa565b50505050905090810190601f1680156107f25780820380516001836020036101000a031916815260200191505b509250505060405180910390f35b6108426004803603602081101561081657600080fd5b81019080803573ffffffffffffffffffffffffffffffffffffffff169060200190929190505050611398565b005b60028054600181600116156101000203166002900480601f0160208091040260200160405190810160405280929190818152602001828054600181600116156101000203166002900480156108da5780601f106108af576101008083540402835291602001916108da565b820191906000526020600020905b8154815290600101906020018083116108bd57829003601f168201915b505050505081565b600160009054906101000a900473ffffffffffffffffffffffffffffffffffffffff1681565b60058054600181600116156101000203166002900480601f01602080910402602001604051908101604052809291908181526020018280546001816001161561010002031660029004801561099e5780601f106109735761010080835404028352916020019161099e565b820191906000526020600020905b81548152906001019060200180831161098157829003601f168201915b505050505081565b60008054906101000a900473ffffffffffffffffffffffffffffffffffffffff1673ffffffffffffffffffffffffffffffffffffffff163373ffffffffffffffffffffffffffffffffffffffff1614610a67576040517f08c379a000000000000000000000000000000000000000000000000000000000815260040180806020018281038252601a8152602001807f4f6e6c792063616c6c61626c652062792072656769737472792e00000000000081525060200191505060405180910390fd5b6006819080600181540180825580915050600190039060005260206000200160009091909190916101000a81548173ffffffffffffffffffffffffffffffffffffffff021916908373ffffffffffffffffffffffffffffffffffffffff16021790555050565b60048054600181600116156101000203166002900480601f016020809104026020016040519081016040528092919081815260200182805460018160011615610100020316600290048015610b635780601f10610b3857610100808354040283529160200191610b63565b820191906000526020600020905b815481529060010190602001808311610b4657829003601f168201915b505050505081565b600160009054906101000a900473ffffffffffffffffffffffffffffffffffffffff1673ffffffffffffffffffffffffffffffffffffffff163373ffffffffffffffffffffffffffffffffffffffff1614610c2e576040517f08c379a00000000000000000000000000000000000000000000000000000000081526004018080602001828103825260208152602001807f4e6f7420746865206477656c6c657220776527726520657870656374696e672e81525060200191505060405180910390fd5b8060029080519060200190610c44929190611540565b5050565b606060008054906101000a900473ffffffffffffffffffffffffffffffffffffffff1673ffffffffffffffffffffffffffffffffffffffff163373ffffffffffffffffffffffffffffffffffffffff161480610cf15750600160009054906101000a900473ffffffffffffffffffffffffffffffffffffffff1673ffffffffffffffffffffffffffffffffffffffff163373ffffffffffffffffffffffffffffffffffffffff16145b610d46576040517f08c379a00000000000000000000000000000000000000000000000000000000081526004018080602001828103825260238152602001806115ec6023913960400191505060405180910390fd5b6006805480602002602001604051908101604052809291908181526020018280548015610dc857602002820191906000526020600020905b8160009054906101000a900473ffffffffffffffffffffffffffffffffffffffff1673ffffffffffffffffffffffffffffffffffffffff1681526020019060010190808311610d7e575b5050505050905090565b60008054906101000a900473ffffffffffffffffffffffffffffffffffffffff1681565b600160009054906101000a900473ffffffffffffffffffffffffffffffffffffffff1673ffffffffffffffffffffffffffffffffffffffff163373ffffffffffffffffffffffffffffffffffffffff1614610eb9576040517f08c379a00000000000000000000000000000000000000000000000000000000081526004018080602001828103825260208152602001807f4e6f7420746865206477656c6c657220776527726520657870656374696e672e81525060200191505060405180910390fd5b8060059080519060200190610ecf929190611540565b5050565b600160009054906101000a900473ffffffffffffffffffffffffffffffffffffffff1673ffffffffffffffffffffffffffffffffffffffff163373ffffffffffffffffffffffffffffffffffffffff1614610f96576040517f08c379a00000000000000000000000000000000000000000000000000000000081526004018080602001828103825260208152602001807f4e6f7420746865206477656c6c657220776527726520657870656374696e672e81525060200191505060405180910390fd5b8060039080519060200190610fac929190611540565b506003604051808280546001816001161561010002031660029004801561100a5780601f10610fe857610100808354040283529182019161100a565b820191906000526020600020905b815481529060010190602001808311610ff6575b505091505060405180910390207f0a3f2195205de15850444f80ab10b54143b9ff983df0f8c83cef5b92cb699f9460405160405180910390a250565b6000606080606080600160009054906101000a900473ffffffffffffffffffffffffffffffffffffffff166002600360046005838054600181600116156101000203166002900480601f01602080910402602001604051908101604052809291908181526020018280546001816001161561010002031660029004801561110e5780601f106110e35761010080835404028352916020019161110e565b820191906000526020600020905b8154815290600101906020018083116110f157829003601f168201915b50505050509350828054600181600116156101000203166002900480601f0160208091040260200160405190810160405280929190818152602001828054600181600116156101000203166002900480156111aa5780601f1061117f576101008083540402835291602001916111aa565b820191906000526020600020905b81548152906001019060200180831161118d57829003601f168201915b50505050509250818054600181600116156101000203166002900480601f0160208091040260200160405190810160405280929190818152602001828054600181600116156101000203166002900480156112465780601f1061121b57610100808354040283529160200191611246565b820191906000526020600020905b81548152906001019060200180831161122957829003601f168201915b50505050509150808054600181600116156101000203166002900480601f0160208091040260200160405190810160405280929190818152602001828054600181600116156101000203166002900480156112e25780601f106112b7576101008083540402835291602001916112e2565b820191906000526020600020905b8154815290600101906020018083116112c557829003601f168201915b50505050509050945094509450945094509091929394565b60038054600181600116156101000203166002900480601f0160208091040260200160405190810160405280929190818152602001828054600181600116156101000203166002900480156113905780601f1061136557610100808354040283529160200191611390565b820191906000526020600020905b81548152906001019060200180831161137357829003601f168201915b505050505081565b60008054906101000a900473ffffffffffffffffffffffffffffffffffffffff1673ffffffffffffffffffffffffffffffffffffffff163373ffffffffffffffffffffffffffffffffffffffff1614611459576040517f08c379a000000000000000000000000000000000000000000000000000000000815260040180806020018281038252601a8152602001807f4f6e6c792063616c6c61626c652062792072656769737472792e00000000000081525060200191505060405180910390fd5b6000600680549050141561146c5761153d565b600080600090505b600160068054905003811015611500578273ffffffffffffffffffffffffffffffffffffffff16600682815481106114a857fe5b9060005260206000200160009054906101000a900473ffffffffffffffffffffffffffffffffffffffff1673ffffffffffffffffffffffffffffffffffffffff1614156114f3578091505b8080600101915050611474565b506006818154811061150e57fe5b9060005260206000200160006101000a81549073ffffffffffffffffffffffffffffffffffffffff0219169055505b50565b828054600181600116156101000203166002900490600052602060002090601f01602090048101928261157657600085556115bd565b82601f1061158f57805160ff19168380011785556115bd565b828001600101855582156115bd579182015b828111156115bc5782518255916020019190600101906115a1565b5b5090506115ca91906115ce565b5090565b5b808211156115e75760008160009055506001016115cf565b509056fe4f6e6c792063616c6c61626c65206279207265676973747279206f72206f776e65722ea26469706673582212203405d2367f6a1e363123e7c3ff866ed5461386c66d9a28a7c5beb1b85867e9f464736f6c63430007060033",
  "immutableReferences": {},
  "source": "// SPDX-License-Identifier: MIT\npragma solidity >=0.7.0 <0.8.0;\n\n/**\n * @title DwellerID\n * @dev Represents identification of a Vault Dweller\n */\ncontract DwellerID {\n    // The parent registry that created this identification contract\n    address public registry;\n    // The dweller represents the owner of this identification contract\n    address public dweller;\n    // This is the display name of a dweller\n    string public name;\n    // Optional photo identification of the dweller\n    string public photoHash;\n    // String public key\n    bytes public pubkey;\n    // User status message\n    string public status = \"Sitting in orbit...\";\n\n    address[] private servers;\n\n\n    // Events\n    event DwellerSet(address indexed dweller);\n    event PhotoSet (string indexed photoHash);\n\n    // modifier to check if caller is owner\n    modifier isOwner() {\n        // If the first argument of 'require' evaluates to 'false', execution terminates and all\n        // changes to the state and to Ether balances are reverted.\n        require(msg.sender == dweller, \"Not the dweller we're expecting.\");\n        _;\n    }\n    modifier isRegistry() {\n        // If the first argument of 'require' evaluates to 'false', execution terminates and all\n        // changes to the state and to Ether balances are reverted.\n        require(msg.sender == registry, \"Only callable by registry.\");\n        _;\n    }\n    modifier isRegistryOrOwner() {\n        require(msg.sender == registry || msg.sender == dweller, \"Only callable by registry or owner.\");\n        _;\n    }\n\n    /**\n     * @dev Set contract deployer as dweller (owner)\n     * @param _name What should we call you, dweller?\n     */\n    constructor(string memory _name, address _dweller, bytes memory _pubkey) {\n        registry = msg.sender;\n        dweller = _dweller;\n        name = _name;\n        pubkey = _pubkey;\n        emit DwellerSet(dweller);\n    }\n\n    /**\n     * Getters\n     */\n\n    /**\n     * @dev Return owner address \n     * @return address_ owner address of dweller \n     * @return name_ name of the dweller\n     * @return photoHash_ string representation of the IPFS hash\n     * @return pubkey_ user public key\n     * @return status_ user status message\n     */\n    function getDweller() \n        external \n        view \n        returns (\n            address address_, \n            string memory name_, \n            string memory photoHash_, \n            bytes memory pubkey_,\n            string memory status_\n        )\n    {\n        return (dweller, name, photoHash, pubkey, status);\n    }\n\n    function getServers() \n        public\n        view\n        isRegistryOrOwner\n        returns (address[] memory)\n    {\n        return servers;\n    }\n\n    /**\n     * @dev Add a server from list of server contracts\n     * @param server Address pointing to server contract\n     */\n    function joinServer(address server) \n        public\n        isRegistry\n    {\n        servers.push(server);\n    }\n\n    /**\n     * @dev Remove server from list of server contracts\n     * @param server Address pointing to server contract\n     */\n    function leaveServer(address server) \n        public\n        isRegistry\n    {\n        if (servers.length == 0) return;\n        uint indx;\n        for (uint i = 0; i < servers.length-1; i++){\n            if (servers[i] == server) {\n                indx = i;\n            }\n        }\n        delete servers[indx];\n        \n    }\n\n    /**\n     * @dev Change dweller's display name\n     * @param _name What should we call you, dweller?\n     */\n    function setDwellerName(string memory _name) \n        public\n        isOwner\n    {\n        name = _name;\n    }\n\n    /**\n     * @dev Change dweller's display photo. Consider using PNG or JPEG photos for usability.\n     * @param _photoHash string representation of the IPFS hash\n     */\n    function setPhoto(string memory _photoHash) \n        public \n        isOwner \n    {\n        photoHash = _photoHash;\n        emit PhotoSet(photoHash);\n    }\n\n    /**\n     * @dev Update the users status\n     * @param _status string status to set.\n     */\n    function setStatus(string memory _status) \n        public\n        isOwner\n    {\n        status = _status;\n    }\n}",
  "sourcePath": "/Users/mtumiati/Knobs/satellite/Vault74-Contracts/contracts/DwellerID.sol",
  "compiler": {
    "name": "solc",
    "version": "0.7.6+commit.7338295f.Emscripten.clang"
  },
  "schemaVersion": "3.3.4",
  "updatedAt": "2021-05-04T09:55:27.572Z",
  "devdoc": {
    "details": "Represents identification of a Vault Dweller",
    "kind": "dev",
    "methods": {
      "constructor": {
        "details": "Set contract deployer as dweller (owner)",
        "params": {
          "_name": "What should we call you, dweller?"
        }
      },
      "getDweller()": {
        "details": "Return owner address ",
        "returns": {
          "address_": "owner address of dweller ",
          "name_": "name of the dweller",
          "photoHash_": "string representation of the IPFS hash",
          "pubkey_": "user public key",
          "status_": "user status message"
        }
      },
      "joinServer(address)": {
        "details": "Add a server from list of server contracts",
        "params": {
          "server": "Address pointing to server contract"
        }
      },
      "leaveServer(address)": {
        "details": "Remove server from list of server contracts",
        "params": {
          "server": "Address pointing to server contract"
        }
      },
      "setDwellerName(string)": {
        "details": "Change dweller's display name",
        "params": {
          "_name": "What should we call you, dweller?"
        }
      },
      "setPhoto(string)": {
        "details": "Change dweller's display photo. Consider using PNG or JPEG photos for usability.",
        "params": {
          "_photoHash": "string representation of the IPFS hash"
        }
      },
      "setStatus(string)": {
        "details": "Update the users status",
        "params": {
          "_status": "string status to set."
        }
      }
    },
    "title": "DwellerID",
    "version": 1
  },
  "userdoc": {
    "kind": "user",
    "methods": {},
    "version": 1
  }
}