{
  "contractName": "DwellerID",
  "abi": [
    {
      "inputs": [
        {
          "internalType": "bytes32",
          "name": "_name",
          "type": "bytes32"
        },
        {
          "internalType": "address",
          "name": "_dweller",
          "type": "address"
        }
      ],
      "stateMutability": "nonpayable",
      "type": "constructor"
    },
    {
      "anonymous": false,
      "inputs": [
        {
          "indexed": true,
          "internalType": "address",
          "name": "dweller",
          "type": "address"
        }
      ],
      "name": "DwellerSet",
      "type": "event"
    },
    {
      "anonymous": false,
      "inputs": [
        {
          "indexed": true,
          "internalType": "bytes32",
          "name": "photoHashBeg",
          "type": "bytes32"
        },
        {
          "indexed": true,
          "internalType": "bytes32",
          "name": "photoHashEnd",
          "type": "bytes32"
        }
      ],
      "name": "PhotoSet",
      "type": "event"
    },
    {
      "inputs": [],
      "name": "registry",
      "outputs": [
        {
          "internalType": "address",
          "name": "",
          "type": "address"
        }
      ],
      "stateMutability": "view",
      "type": "function"
    },
    {
      "inputs": [],
      "name": "getDweller",
      "outputs": [
        {
          "internalType": "address",
          "name": "address_",
          "type": "address"
        },
        {
          "internalType": "bytes32",
          "name": "name_",
          "type": "bytes32"
        },
        {
          "internalType": "bytes32",
          "name": "photoIPFSHash1_",
          "type": "bytes32"
        },
        {
          "internalType": "bytes32",
          "name": "photoIPFSHash2_",
          "type": "bytes32"
        }
      ],
      "stateMutability": "view",
      "type": "function"
    },
    {
      "inputs": [],
      "name": "getDwellerAddress",
      "outputs": [
        {
          "internalType": "address",
          "name": "",
          "type": "address"
        }
      ],
      "stateMutability": "view",
      "type": "function"
    },
    {
      "inputs": [],
      "name": "getDwellerName",
      "outputs": [
        {
          "internalType": "bytes32",
          "name": "",
          "type": "bytes32"
        }
      ],
      "stateMutability": "view",
      "type": "function"
    },
    {
      "inputs": [],
      "name": "getPhoto",
      "outputs": [
        {
          "internalType": "bytes",
          "name": "",
          "type": "bytes"
        }
      ],
      "stateMutability": "view",
      "type": "function"
    },
    {
      "inputs": [],
      "name": "getServers",
      "outputs": [
        {
          "internalType": "address[]",
          "name": "",
          "type": "address[]"
        }
      ],
      "stateMutability": "view",
      "type": "function"
    },
    {
      "inputs": [
        {
          "internalType": "address",
          "name": "server",
          "type": "address"
        }
      ],
      "name": "joinServer",
      "outputs": [],
      "stateMutability": "nonpayable",
      "type": "function"
    },
    {
      "inputs": [
        {
          "internalType": "address",
          "name": "server",
          "type": "address"
        }
      ],
      "name": "leaveServer",
      "outputs": [],
      "stateMutability": "nonpayable",
      "type": "function"
    },
    {
      "inputs": [
        {
          "internalType": "bytes32",
          "name": "_name",
          "type": "bytes32"
        }
      ],
      "name": "setDwellerName",
      "outputs": [],
      "stateMutability": "nonpayable",
      "type": "function"
    },
    {
      "inputs": [
        {
          "internalType": "bytes32[2]",
          "name": "hash",
          "type": "bytes32[2]"
        }
      ],
      "name": "setPhoto",
      "outputs": [],
      "stateMutability": "nonpayable",
      "type": "function"
    }
  ],
  "bytecode": "0x608060405234801561001057600080fd5b50604051610c62380380610c628339818101604052604081101561003357600080fd5b810190808051906020019092919080519060200190929190505050336000806101000a81548173ffffffffffffffffffffffffffffffffffffffff021916908373ffffffffffffffffffffffffffffffffffffffff16021790555080600160006101000a81548173ffffffffffffffffffffffffffffffffffffffff021916908373ffffffffffffffffffffffffffffffffffffffff16021790555081600281905550600160009054906101000a900473ffffffffffffffffffffffffffffffffffffffff1673ffffffffffffffffffffffffffffffffffffffff167f7ad616c31c10c22596ef8cf9862a7806725e419456cfef5415b40f0c04f0c27760405160405180910390a25050610b168061014c6000396000f3fe608060405234801561001057600080fd5b506004361061009e5760003560e01c8063983f669b11610066578063983f669b14610213578063b2ec005e1461025c578063bf1de8fa146102df578063e6b678c1146102fd578063ea0b1a7b146103415761009e565b806332aee87f146100a35780634907aba0146100e757806375c1c7e71461014c5780637b103999146101ab57806394b489cd146101df575b600080fd5b6100e5600480360360208110156100b957600080fd5b81019080803573ffffffffffffffffffffffffffffffffffffffff16906020019092919050505061036f565b005b61014a600480360360408110156100fd57600080fd5b8101908080604001906002806020026040519081016040528092919082600260200280828437600081840152601f19601f8201169050808301925050505050509192919290505050610496565b005b6101546105be565b6040518080602001828103825283818151815260200191508051906020019060200280838360005b8381101561019757808201518184015260208101905061017c565b505050509050019250505060405180910390f35b6101b3610748565b604051808273ffffffffffffffffffffffffffffffffffffffff16815260200191505060405180910390f35b6101e761076c565b604051808273ffffffffffffffffffffffffffffffffffffffff16815260200191505060405180910390f35b61021b610796565b604051808573ffffffffffffffffffffffffffffffffffffffff16815260200184815260200183815260200182815260200194505050505060405180910390f35b6102646107d6565b6040518080602001828103825283818151815260200191508051906020019080838360005b838110156102a4578082015181840152602081019050610289565b50505050905090810190601f1680156102d15780820380516001836020036101000a031916815260200191505b509250505060405180910390f35b6102e761083e565b6040518082815260200191505060405180910390f35b61033f6004803603602081101561031357600080fd5b81019080803573ffffffffffffffffffffffffffffffffffffffff169060200190929190505050610848565b005b61036d6004803603602081101561035757600080fd5b81019080803590602001909291905050506109f0565b005b60008054906101000a900473ffffffffffffffffffffffffffffffffffffffff1673ffffffffffffffffffffffffffffffffffffffff163373ffffffffffffffffffffffffffffffffffffffff1614610430576040517f08c379a000000000000000000000000000000000000000000000000000000000815260040180806020018281038252601a8152602001807f4f6e6c792063616c6c61626c652062792072656769737472792e00000000000081525060200191505060405180910390fd5b6005819080600181540180825580915050600190039060005260206000200160009091909190916101000a81548173ffffffffffffffffffffffffffffffffffffffff021916908373ffffffffffffffffffffffffffffffffffffffff16021790555050565b600160009054906101000a900473ffffffffffffffffffffffffffffffffffffffff1673ffffffffffffffffffffffffffffffffffffffff163373ffffffffffffffffffffffffffffffffffffffff1614610559576040517f08c379a00000000000000000000000000000000000000000000000000000000081526004018080602001828103825260208152602001807f4e6f7420746865206477656c6c657220776527726520657870656374696e672e81525060200191505060405180910390fd5b8060006002811061056657fe5b60200201516003819055508060016002811061057e57fe5b60200201516004819055506004546003547fb1101f1c17bd0104e6b31706b3268944399b3ee606cb859f3563ff3e184025ce60405160405180910390a350565b606060008054906101000a900473ffffffffffffffffffffffffffffffffffffffff1673ffffffffffffffffffffffffffffffffffffffff163373ffffffffffffffffffffffffffffffffffffffff1614806106675750600160009054906101000a900473ffffffffffffffffffffffffffffffffffffffff1673ffffffffffffffffffffffffffffffffffffffff163373ffffffffffffffffffffffffffffffffffffffff16145b6106bc576040517f08c379a0000000000000000000000000000000000000000000000000000000008152600401808060200182810382526023815260200180610abe6023913960400191505060405180910390fd5b600580548060200260200160405190810160405280929190818152602001828054801561073e57602002820191906000526020600020905b8160009054906101000a900473ffffffffffffffffffffffffffffffffffffffff1673ffffffffffffffffffffffffffffffffffffffff16815260200190600101908083116106f4575b5050505050905090565b60008054906101000a900473ffffffffffffffffffffffffffffffffffffffff1681565b6000600160009054906101000a900473ffffffffffffffffffffffffffffffffffffffff16905090565b600080600080600160009054906101000a900473ffffffffffffffffffffffffffffffffffffffff16600254600354600454935093509350935090919293565b606080604067ffffffffffffffff811180156107f157600080fd5b506040519080825280601f01601f1916602001820160405280156108245781602001600182028036833780820191505090505b509050600354602082015260045460408201528091505090565b6000600254905090565b60008054906101000a900473ffffffffffffffffffffffffffffffffffffffff1673ffffffffffffffffffffffffffffffffffffffff163373ffffffffffffffffffffffffffffffffffffffff1614610909576040517f08c379a000000000000000000000000000000000000000000000000000000000815260040180806020018281038252601a8152602001807f4f6e6c792063616c6c61626c652062792072656769737472792e00000000000081525060200191505060405180910390fd5b6000600580549050141561091c576109ed565b600080600090505b6001600580549050038110156109b0578273ffffffffffffffffffffffffffffffffffffffff166005828154811061095857fe5b9060005260206000200160009054906101000a900473ffffffffffffffffffffffffffffffffffffffff1673ffffffffffffffffffffffffffffffffffffffff1614156109a3578091505b8080600101915050610924565b50600581815481106109be57fe5b9060005260206000200160006101000a81549073ffffffffffffffffffffffffffffffffffffffff0219169055505b50565b600160009054906101000a900473ffffffffffffffffffffffffffffffffffffffff1673ffffffffffffffffffffffffffffffffffffffff163373ffffffffffffffffffffffffffffffffffffffff1614610ab3576040517f08c379a00000000000000000000000000000000000000000000000000000000081526004018080602001828103825260208152602001807f4e6f7420746865206477656c6c657220776527726520657870656374696e672e81525060200191505060405180910390fd5b806002819055505056fe4f6e6c792063616c6c61626c65206279207265676973747279206f72206f776e65722ea26469706673582212201c96534cf22b295f051366c36d3e6351ba9ff981b5aa90d0b2dc48a31597474a64736f6c63430007000033",
  "immutableReferences": {},
  "source": "// SPDX-License-Identifier: MIT\npragma solidity >=0.7.0 <0.8.0;\n\n/**\n * @title DwellerID\n * @dev Represents identification of a Vault Dweller\n */\ncontract DwellerID {\n    // The parent registry that created this identification contract\n    address public registry;\n    // The dweller represents the owner of this identification contract\n    address private dweller;\n    // This is the display name of a dweller\n    bytes32 private name;\n    // Optional photo identification of the dweller\n    // Stored as a split Multihash referencing IPFS hash of dwellers photo\n    bytes32 private photoHashBeg;\n    bytes32 private photoHashEnd;\n\n    address[] private servers;\n\n    // Events\n    event DwellerSet(address indexed dweller);\n    event PhotoSet (\n        bytes32 indexed photoHashBeg,\n        bytes32 indexed photoHashEnd\n    );\n\n    // modifier to check if caller is owner\n    modifier isOwner() {\n        // If the first argument of 'require' evaluates to 'false', execution terminates and all\n        // changes to the state and to Ether balances are reverted.\n        require(msg.sender == dweller, \"Not the dweller we're expecting.\");\n        _;\n    }\n    modifier isRegistry() {\n        // If the first argument of 'require' evaluates to 'false', execution terminates and all\n        // changes to the state and to Ether balances are reverted.\n        require(msg.sender == registry, \"Only callable by registry.\");\n        _;\n    }\n    modifier isRegistryOrOwner() {\n        require(msg.sender == registry || msg.sender == dweller, \"Only callable by registry or owner.\");\n        _;\n    }\n\n    /**\n     * @dev Set contract deployer as dweller (owner)\n     * @param _name What should we call you, dweller?\n     */\n    constructor(bytes32 _name, address _dweller) {\n        registry = msg.sender;\n        dweller = _dweller;\n        name = _name;\n        emit DwellerSet(dweller);\n    }\n\n    /**\n     * Getters\n     */\n\n    /**\n     * @dev Return owner address \n     * @return address_ owner address of dweller \n     * @return name_ name of the dweller\n     * @return photoIPFSHash1_ part 1 of the dwellers photo IPFS hash\n     * @return photoIPFSHash2_ part 2 of the dwellers photo IPFS hash\n     */\n    function getDweller() \n        external \n        view \n        returns (\n            address address_, \n            bytes32 name_,\n            bytes32 photoIPFSHash1_,\n            bytes32 photoIPFSHash2_\n        )\n    {\n        return (dweller, name, photoHashBeg, photoHashEnd);\n    }\n\n    /**\n     * @dev Return dweller's address (owner address)\n     * @return dweller address\n     */\n    function getDwellerAddress() \n        external \n        view \n        returns (address) \n    {\n        return dweller;\n    }\n\n    /**\n     * @dev Return dweller's name (display name)\n     * @return dweller name\n     */\n    function getDwellerName() \n        external \n        view \n        returns (bytes32) \n    {\n        return name;\n    }\n\n    /**\n     * @dev Get the dweller's photo IPFS hash\n     * @return dweller photo IPFS hash\n     */\n    function getPhoto() \n        public \n        view \n        returns (bytes memory) \n    {\n        bytes memory joined = new bytes(64);\n        // Join the two hash parts of photos IPFS hash\n        assembly {\n            mstore(add(joined, 32), sload(photoHashBeg.slot))\n            mstore(add(joined, 64), sload(photoHashEnd.slot))\n        }\n        return joined; \n    }\n\n    function getServers() \n        public\n        view\n        isRegistryOrOwner\n        returns (address[] memory)\n    {\n        return servers;\n    }\n\n    /**\n     * Setters\n     */\n\n    /**\n     * @dev Add a server from list of server contracts\n     * @param server Address pointing to server contract\n     */\n    function joinServer(address server) \n        public\n        isRegistry\n    {\n        servers.push(server);\n    }\n\n    /**\n     * @dev Remove server from list of server contracts\n     * @param server Address pointing to server contract\n     */\n    function leaveServer(address server) \n        public\n        isRegistry\n    {\n        if (servers.length == 0) return;\n        uint indx;\n        for (uint i = 0; i < servers.length-1; i++){\n            if (servers[i] == server) {\n                indx = i;\n            }\n        }\n        delete servers[indx];\n        \n    }\n\n    /**\n     * @dev Change dweller's display name\n     * @param _name What should we call you, dweller?\n     */\n    function setDwellerName(bytes32 _name) \n        public\n        isOwner\n    {\n        name = _name;\n    }\n\n    /**\n     * @dev Change dweller's display photo. Consider using PNG or JPEG photos for usability.\n     * @param hash split multihash referencing the IPFS hash for the photo\n     */\n    function setPhoto(bytes32[2] memory hash) \n        public \n        isOwner \n    {\n        photoHashBeg = hash[0];\n        photoHashEnd = hash[1];\n        emit PhotoSet(photoHashBeg, photoHashEnd);\n    }\n}",
  "sourcePath": "/Users/retro/Git/RetroPronghorn/Vault74/src/contracts/contracts/DwellerID.sol",
  "compiler": {
    "name": "solc",
    "version": "0.7.0+commit.9e61f92b.Emscripten.clang"
  },
  "schemaVersion": "3.3.3",
  "updatedAt": "2021-01-05T06:56:20.849Z",
  "devdoc": {
    "details": "Represents identification of a Vault Dweller",
    "kind": "dev",
    "methods": {
      "constructor": {
        "details": "Set contract deployer as dweller (owner)",
        "params": {
          "_name": "What should we call you, dweller?"
        }
      },
      "getDweller()": {
        "details": "Return owner address ",
        "returns": {
          "address_": "owner address of dweller ",
          "name_": "name of the dweller",
          "photoIPFSHash1_": "part 1 of the dwellers photo IPFS hash",
          "photoIPFSHash2_": "part 2 of the dwellers photo IPFS hash"
        }
      },
      "getDwellerAddress()": {
        "details": "Return dweller's address (owner address)",
        "returns": {
          "_0": "dweller address"
        }
      },
      "getDwellerName()": {
        "details": "Return dweller's name (display name)",
        "returns": {
          "_0": "dweller name"
        }
      },
      "getPhoto()": {
        "details": "Get the dweller's photo IPFS hash",
        "returns": {
          "_0": "dweller photo IPFS hash"
        }
      },
      "joinServer(address)": {
        "details": "Add a server from list of server contracts",
        "params": {
          "server": "Address pointing to server contract"
        }
      },
      "leaveServer(address)": {
        "details": "Remove server from list of server contracts",
        "params": {
          "server": "Address pointing to server contract"
        }
      },
      "setDwellerName(bytes32)": {
        "details": "Change dweller's display name",
        "params": {
          "_name": "What should we call you, dweller?"
        }
      },
      "setPhoto(bytes32[2])": {
        "details": "Change dweller's display photo. Consider using PNG or JPEG photos for usability.",
        "params": {
          "hash": "split multihash referencing the IPFS hash for the photo"
        }
      }
    },
    "title": "DwellerID",
    "version": 1
  },
  "userdoc": {
    "kind": "user",
    "methods": {},
    "version": 1
  }
}