{
  "contractName": "Friends",
  "abi": [
    {
      "inputs": [],
      "stateMutability": "nonpayable",
      "type": "constructor"
    },
    {
      "anonymous": false,
      "inputs": [
        {
          "indexed": true,
          "internalType": "address",
          "name": "friendRemoved",
          "type": "address"
        }
      ],
      "name": "FriendRemoved",
      "type": "event"
    },
    {
      "anonymous": false,
      "inputs": [
        {
          "indexed": true,
          "internalType": "address",
          "name": "sentFrom",
          "type": "address"
        }
      ],
      "name": "FriendRequestAccepted",
      "type": "event"
    },
    {
      "anonymous": false,
      "inputs": [
        {
          "indexed": true,
          "internalType": "address",
          "name": "sentFrom",
          "type": "address"
        }
      ],
      "name": "FriendRequestDenied",
      "type": "event"
    },
    {
      "anonymous": false,
      "inputs": [
        {
          "indexed": true,
          "internalType": "address",
          "name": "sentTo",
          "type": "address"
        }
      ],
      "name": "FriendRequestSent",
      "type": "event"
    },
    {
      "inputs": [
        {
          "internalType": "bytes",
          "name": "pub",
          "type": "bytes"
        }
      ],
      "name": "calculateAddress",
      "outputs": [
        {
          "internalType": "address",
          "name": "addr",
          "type": "address"
        }
      ],
      "stateMutability": "pure",
      "type": "function"
    },
    {
      "inputs": [
        {
          "internalType": "address",
          "name": "to",
          "type": "address"
        },
        {
          "internalType": "bytes",
          "name": "pubkey",
          "type": "bytes"
        }
      ],
      "name": "makeRequest",
      "outputs": [],
      "stateMutability": "nonpayable",
      "type": "function"
    },
    {
      "inputs": [
        {
          "internalType": "address",
          "name": "to",
          "type": "address"
        },
        {
          "internalType": "bytes32[2]",
          "name": "thread",
          "type": "bytes32[2]"
        },
        {
          "internalType": "bytes",
          "name": "pubkey",
          "type": "bytes"
        }
      ],
      "name": "acceptRequest",
      "outputs": [],
      "stateMutability": "nonpayable",
      "type": "function"
    },
    {
      "inputs": [
        {
          "internalType": "address",
          "name": "to",
          "type": "address"
        }
      ],
      "name": "denyRequest",
      "outputs": [],
      "stateMutability": "nonpayable",
      "type": "function"
    },
    {
      "inputs": [
        {
          "internalType": "address",
          "name": "to",
          "type": "address"
        }
      ],
      "name": "removeRequest",
      "outputs": [],
      "stateMutability": "nonpayable",
      "type": "function"
    },
    {
      "inputs": [
        {
          "internalType": "address",
          "name": "_toRemove",
          "type": "address"
        }
      ],
      "name": "removeFriend",
      "outputs": [],
      "stateMutability": "nonpayable",
      "type": "function"
    },
    {
      "inputs": [],
      "name": "getFriends",
      "outputs": [
        {
          "components": [
            {
              "internalType": "address",
              "name": "dweller",
              "type": "address"
            },
            {
              "internalType": "bytes32",
              "name": "threadHash1",
              "type": "bytes32"
            },
            {
              "internalType": "bytes32",
              "name": "threadHash2",
              "type": "bytes32"
            },
            {
              "internalType": "bytes",
              "name": "pubkey",
              "type": "bytes"
            }
          ],
          "internalType": "struct Friends.Friend[]",
          "name": "",
          "type": "tuple[]"
        }
      ],
      "stateMutability": "view",
      "type": "function"
    },
    {
      "inputs": [],
      "name": "getRequests",
      "outputs": [
        {
          "components": [
            {
              "internalType": "address",
              "name": "sender",
              "type": "address"
            },
            {
              "internalType": "bytes",
              "name": "pubkey",
              "type": "bytes"
            }
          ],
          "internalType": "struct Friends.FriendRequest[]",
          "name": "",
          "type": "tuple[]"
        }
      ],
      "stateMutability": "view",
      "type": "function"
    }
  ],
  "bytecode": "0x60806040527fffffffffffffffffffffffffffffffffffffffffffffffffffffffffffffffff60005534801561003457600080fd5b50612539806100446000396000f3fe608060405234801561001057600080fd5b50600436106100885760003560e01c80638813ce121161005b5780638813ce12146100ff578063954b03901461011d578063ac8d603014610139578063e8a4c04e1461015557610088565b80631f2d893a1461008d5780631f8f7270146100a95780633e3ab059146100c757806380cee8a5146100e3575b600080fd5b6100a760048036038101906100a29190611ce2565b610185565b005b6100b16102e0565b6040516100be919061221c565b60405180910390f35b6100e160048036038101906100dc9190611d0b565b610488565b005b6100fd60048036038101906100f89190611ce2565b610854565b005b610107610931565b60405161011491906121fa565b60405180910390f35b61013760048036038101906101329190611d72565b610ac5565b005b610153600480360381019061014e9190611ce2565b610c11565b005b61016f600480360381019061016a9190611dc6565b610ce4565b60405161017c91906121df565b60405180910390f35b6000600260003373ffffffffffffffffffffffffffffffffffffffff1673ffffffffffffffffffffffffffffffffffffffff16815260200190815260200160002060008373ffffffffffffffffffffffffffffffffffffffff1673ffffffffffffffffffffffffffffffffffffffff168152602001908152602001600020549050600081141561024a576040517f08c379a0000000000000000000000000000000000000000000000000000000008152600401610241906122de565b60405180910390fd5b60005481141561028f576040517f08c379a00000000000000000000000000000000000000000000000000000000081526004016102869061223e565b60405180910390fd5b6102993383610d00565b8173ffffffffffffffffffffffffffffffffffffffff167f0a9e7bdf167af5510b775c63b125451644c99a91b541b3813f6cb569b9fe0daf60405160405180910390a25050565b6060600360003373ffffffffffffffffffffffffffffffffffffffff1673ffffffffffffffffffffffffffffffffffffffff168152602001908152602001600020805480602002602001604051908101604052809291908181526020016000905b8282101561047f57838290600052602060002090600402016040518060800160405290816000820160009054906101000a900473ffffffffffffffffffffffffffffffffffffffff1673ffffffffffffffffffffffffffffffffffffffff1673ffffffffffffffffffffffffffffffffffffffff1681526020016001820154815260200160028201548152602001600382018054600181600116156101000203166002900480601f0160208091040260200160405190810160405280929190818152602001828054600181600116156101000203166002900480156104675780601f1061043c57610100808354040283529160200191610467565b820191906000526020600020905b81548152906001019060200180831161044a57829003601f168201915b50505050508152505081526020019060010190610341565b50505050905090565b6000600260003373ffffffffffffffffffffffffffffffffffffffff1673ffffffffffffffffffffffffffffffffffffffff16815260200190815260200160002060008573ffffffffffffffffffffffffffffffffffffffff1673ffffffffffffffffffffffffffffffffffffffff16815260200190815260200160002054905060005481141561054e576040517f08c379a00000000000000000000000000000000000000000000000000000000081526004016105459061223e565b60405180910390fd5b6000600160003373ffffffffffffffffffffffffffffffffffffffff1673ffffffffffffffffffffffffffffffffffffffff168152602001908152602001600020600183038154811061059d57fe5b90600052602060002090600202016040518060400160405290816000820160009054906101000a900473ffffffffffffffffffffffffffffffffffffffff1673ffffffffffffffffffffffffffffffffffffffff1673ffffffffffffffffffffffffffffffffffffffff168152602001600182018054600181600116156101000203166002900480601f0160208091040260200160405190810160405280929190818152602001828054600181600116156101000203166002900480156106a55780601f1061067a576101008083540402835291602001916106a5565b820191906000526020600020905b81548152906001019060200180831161068857829003601f168201915b5050505050815250509050600073ffffffffffffffffffffffffffffffffffffffff16816000015173ffffffffffffffffffffffffffffffffffffffff161415610724576040517f08c379a000000000000000000000000000000000000000000000000000000000815260040161071b906122de565b60405180910390fd5b600060405180608001604052808773ffffffffffffffffffffffffffffffffffffffff1681526020018660006002811061075a57fe5b602002015181526020018660016002811061077157fe5b6020020151815260200183602001518152509050600060405180608001604052803373ffffffffffffffffffffffffffffffffffffffff168152602001876000600281106107bb57fe5b60200201518152602001876001600281106107d257fe5b602002015181526020018681525090506107f0338460000151610d00565b6107fa3383611223565b610808836000015182611223565b8673ffffffffffffffffffffffffffffffffffffffff167f529983ca112b24c7d4fa4aab3910838a962db8fa4387508841122e3b2eba4f8f60405160405180910390a250505050505050565b6000600260003373ffffffffffffffffffffffffffffffffffffffff1673ffffffffffffffffffffffffffffffffffffffff16815260200190815260200160002060008373ffffffffffffffffffffffffffffffffffffffff1673ffffffffffffffffffffffffffffffffffffffff1681526020019081526020016000205490506000811415610919576040517f08c379a0000000000000000000000000000000000000000000000000000000008152600401610910906122fe565b60405180910390fd5b61092333836113d7565b61092d82336113d7565b5050565b6060600160003373ffffffffffffffffffffffffffffffffffffffff1673ffffffffffffffffffffffffffffffffffffffff168152602001908152602001600020805480602002602001604051908101604052809291908181526020016000905b82821015610abc57838290600052602060002090600202016040518060400160405290816000820160009054906101000a900473ffffffffffffffffffffffffffffffffffffffff1673ffffffffffffffffffffffffffffffffffffffff1673ffffffffffffffffffffffffffffffffffffffff168152602001600182018054600181600116156101000203166002900480601f016020809104026020016040519081016040528092919081815260200182805460018160011615610100020316600290048015610aa45780601f10610a7957610100808354040283529160200191610aa4565b820191906000526020600020905b815481529060010190602001808311610a8757829003601f168201915b50505050508152505081526020019060010190610992565b50505050905090565b6000600260008473ffffffffffffffffffffffffffffffffffffffff1673ffffffffffffffffffffffffffffffffffffffff16815260200190815260200160002060003373ffffffffffffffffffffffffffffffffffffffff1673ffffffffffffffffffffffffffffffffffffffff1681526020019081526020016000205490506000811480610b56575060005481145b610b95576040517f08c379a0000000000000000000000000000000000000000000000000000000008152600401610b8c906122be565b60405180910390fd5b610bc98360405180604001604052803373ffffffffffffffffffffffffffffffffffffffff16815260200185815250611933565b8273ffffffffffffffffffffffffffffffffffffffff167f31ed3729d46aa09de79e774f1f2fc8e25e3a427d0f4d3df9734059ca59c3b31360405160405180910390a2505050565b6000600260008373ffffffffffffffffffffffffffffffffffffffff1673ffffffffffffffffffffffffffffffffffffffff16815260200190815260200160002060003373ffffffffffffffffffffffffffffffffffffffff1673ffffffffffffffffffffffffffffffffffffffff1681526020019081526020016000205490506000811415610cd6576040517f08c379a0000000000000000000000000000000000000000000000000000000008152600401610ccd9061229e565b60405180910390fd5b610ce08233610d00565b5050565b6000808280519060200120905080600052600051915050919050565b6000600160008473ffffffffffffffffffffffffffffffffffffffff1673ffffffffffffffffffffffffffffffffffffffff1681526020019081526020016000208054905011610d85576040517f08c379a0000000000000000000000000000000000000000000000000000000008152600401610d7c9061225e565b60405180910390fd5b60006001600260008573ffffffffffffffffffffffffffffffffffffffff1673ffffffffffffffffffffffffffffffffffffffff16815260200190815260200160002060008473ffffffffffffffffffffffffffffffffffffffff1673ffffffffffffffffffffffffffffffffffffffff16815260200190815260200160002054039050600060018060008673ffffffffffffffffffffffffffffffffffffffff1673ffffffffffffffffffffffffffffffffffffffff16815260200190815260200160002080549050039050808214611102576000600160008673ffffffffffffffffffffffffffffffffffffffff1673ffffffffffffffffffffffffffffffffffffffff1681526020019081526020016000208281548110610ea557fe5b90600052602060002090600202016040518060400160405290816000820160009054906101000a900473ffffffffffffffffffffffffffffffffffffffff1673ffffffffffffffffffffffffffffffffffffffff1673ffffffffffffffffffffffffffffffffffffffff168152602001600182018054600181600116156101000203166002900480601f016020809104026020016040519081016040528092919081815260200182805460018160011615610100020316600290048015610fad5780601f10610f8257610100808354040283529160200191610fad565b820191906000526020600020905b815481529060010190602001808311610f9057829003601f168201915b505050505081525050905080600160008773ffffffffffffffffffffffffffffffffffffffff1673ffffffffffffffffffffffffffffffffffffffff168152602001908152602001600020848154811061100357fe5b906000526020600020906002020160008201518160000160006101000a81548173ffffffffffffffffffffffffffffffffffffffff021916908373ffffffffffffffffffffffffffffffffffffffff1602179055506020820151816001019080519060200190611074929190611ad3565b5090505060018301600260008773ffffffffffffffffffffffffffffffffffffffff1673ffffffffffffffffffffffffffffffffffffffff1681526020019081526020016000206000836000015173ffffffffffffffffffffffffffffffffffffffff1673ffffffffffffffffffffffffffffffffffffffff16815260200190815260200160002081905550505b600054600260008673ffffffffffffffffffffffffffffffffffffffff1673ffffffffffffffffffffffffffffffffffffffff16815260200190815260200160002060008573ffffffffffffffffffffffffffffffffffffffff1673ffffffffffffffffffffffffffffffffffffffff16815260200190815260200160002081905550600160008573ffffffffffffffffffffffffffffffffffffffff1673ffffffffffffffffffffffffffffffffffffffff1681526020019081526020016000208054806111cd57fe5b6001900381819060005260206000209060020201600080820160006101000a81549073ffffffffffffffffffffffffffffffffffffffff02191690556001820160006112199190611b61565b5050905550505050565b600360008373ffffffffffffffffffffffffffffffffffffffff1673ffffffffffffffffffffffffffffffffffffffff16815260200190815260200160002081908060018154018082558091505060019003906000526020600020906004020160009091909190915060008201518160000160006101000a81548173ffffffffffffffffffffffffffffffffffffffff021916908373ffffffffffffffffffffffffffffffffffffffff16021790555060208201518160010155604082015181600201556060820151816003019080519060200190611303929190611ad3565b5050506000600360008473ffffffffffffffffffffffffffffffffffffffff1673ffffffffffffffffffffffffffffffffffffffff16815260200190815260200160002080549050905080600460008573ffffffffffffffffffffffffffffffffffffffff1673ffffffffffffffffffffffffffffffffffffffff1681526020019081526020016000206000846000015173ffffffffffffffffffffffffffffffffffffffff1673ffffffffffffffffffffffffffffffffffffffff16815260200190815260200160002081905550505050565b6000600360008473ffffffffffffffffffffffffffffffffffffffff1673ffffffffffffffffffffffffffffffffffffffff168152602001908152602001600020805490501161145c576040517f08c379a00000000000000000000000000000000000000000000000000000000081526004016114539061227e565b60405180910390fd5b60006001600460008573ffffffffffffffffffffffffffffffffffffffff1673ffffffffffffffffffffffffffffffffffffffff16815260200190815260200160002060008473ffffffffffffffffffffffffffffffffffffffff1673ffffffffffffffffffffffffffffffffffffffff1681526020019081526020016000205403905060006001600360008673ffffffffffffffffffffffffffffffffffffffff1673ffffffffffffffffffffffffffffffffffffffff16815260200190815260200160002080549050039050808214611802576000600360008673ffffffffffffffffffffffffffffffffffffffff1673ffffffffffffffffffffffffffffffffffffffff168152602001908152602001600020828154811061157d57fe5b90600052602060002090600402016040518060800160405290816000820160009054906101000a900473ffffffffffffffffffffffffffffffffffffffff1673ffffffffffffffffffffffffffffffffffffffff1673ffffffffffffffffffffffffffffffffffffffff1681526020016001820154815260200160028201548152602001600382018054600181600116156101000203166002900480601f0160208091040260200160405190810160405280929190818152602001828054600181600116156101000203166002900480156116995780601f1061166e57610100808354040283529160200191611699565b820191906000526020600020905b81548152906001019060200180831161167c57829003601f168201915b505050505081525050905080600360008773ffffffffffffffffffffffffffffffffffffffff1673ffffffffffffffffffffffffffffffffffffffff16815260200190815260200160002084815481106116ef57fe5b906000526020600020906004020160008201518160000160006101000a81548173ffffffffffffffffffffffffffffffffffffffff021916908373ffffffffffffffffffffffffffffffffffffffff16021790555060208201518160010155604082015181600201556060820151816003019080519060200190611774929190611ad3565b5090505060018301600460008773ffffffffffffffffffffffffffffffffffffffff1673ffffffffffffffffffffffffffffffffffffffff1681526020019081526020016000206000836000015173ffffffffffffffffffffffffffffffffffffffff1673ffffffffffffffffffffffffffffffffffffffff16815260200190815260200160002081905550505b600054600460008673ffffffffffffffffffffffffffffffffffffffff1673ffffffffffffffffffffffffffffffffffffffff16815260200190815260200160002060008573ffffffffffffffffffffffffffffffffffffffff1673ffffffffffffffffffffffffffffffffffffffff16815260200190815260200160002081905550600360008573ffffffffffffffffffffffffffffffffffffffff1673ffffffffffffffffffffffffffffffffffffffff1681526020019081526020016000208054806118cd57fe5b6001900381819060005260206000209060040201600080820160006101000a81549073ffffffffffffffffffffffffffffffffffffffff0219169055600182016000905560028201600090556003820160006119299190611b61565b5050905550505050565b600160008373ffffffffffffffffffffffffffffffffffffffff1673ffffffffffffffffffffffffffffffffffffffff16815260200190815260200160002081908060018154018082558091505060019003906000526020600020906002020160009091909190915060008201518160000160006101000a81548173ffffffffffffffffffffffffffffffffffffffff021916908373ffffffffffffffffffffffffffffffffffffffff16021790555060208201518160010190805190602001906119ff929190611ad3565b5050506000600160008473ffffffffffffffffffffffffffffffffffffffff1673ffffffffffffffffffffffffffffffffffffffff16815260200190815260200160002080549050905080600260008573ffffffffffffffffffffffffffffffffffffffff1673ffffffffffffffffffffffffffffffffffffffff1681526020019081526020016000206000846000015173ffffffffffffffffffffffffffffffffffffffff1673ffffffffffffffffffffffffffffffffffffffff16815260200190815260200160002081905550505050565b828054600181600116156101000203166002900490600052602060002090601f016020900481019282611b095760008555611b50565b82601f10611b2257805160ff1916838001178555611b50565b82800160010185558215611b50579182015b82811115611b4f578251825591602001919060010190611b34565b5b509050611b5d9190611ba9565b5090565b50805460018160011615610100020316600290046000825580601f10611b875750611ba6565b601f016020900490600052602060002090810190611ba59190611ba9565b5b50565b5b80821115611bc2576000816000905550600101611baa565b5090565b6000611bd9611bd48461234f565b61231e565b90508082856020860282011115611bef57600080fd5b60005b85811015611c1f5781611c058882611ca3565b845260208401935060208301925050600181019050611bf2565b5050509392505050565b6000611c3c611c3784612375565b61231e565b905082815260208101848484011115611c5457600080fd5b611c5f848285612480565b509392505050565b600081359050611c76816124d5565b92915050565b600082601f830112611c8d57600080fd5b6002611c9a848285611bc6565b91505092915050565b600081359050611cb2816124ec565b92915050565b600082601f830112611cc957600080fd5b8135611cd9848260208601611c29565b91505092915050565b600060208284031215611cf457600080fd5b6000611d0284828501611c67565b91505092915050565b600080600060808486031215611d2057600080fd5b6000611d2e86828701611c67565b9350506020611d3f86828701611c7c565b925050606084013567ffffffffffffffff811115611d5c57600080fd5b611d6886828701611cb8565b9150509250925092565b60008060408385031215611d8557600080fd5b6000611d9385828601611c67565b925050602083013567ffffffffffffffff811115611db057600080fd5b611dbc85828601611cb8565b9150509250929050565b600060208284031215611dd857600080fd5b600082013567ffffffffffffffff811115611df257600080fd5b611dfe84828501611cb8565b91505092915050565b6000611e13838361213f565b905092915050565b6000611e27838361217c565b905092915050565b611e3881612444565b82525050565b611e4781612444565b82525050565b6000611e58826123c5565b611e628185612400565b935083602082028501611e74856123a5565b8060005b85811015611eb05784840389528151611e918582611e07565b9450611e9c836123e6565b925060208a01995050600181019050611e78565b50829750879550505050505092915050565b6000611ecd826123d0565b611ed78185612411565b935083602082028501611ee9856123b5565b8060005b85811015611f255784840389528151611f068582611e1b565b9450611f11836123f3565b925060208a01995050600181019050611eed565b50829750879550505050505092915050565b611f4081612456565b82525050565b6000611f51826123db565b611f5b8185612422565b9350611f6b81856020860161248f565b611f74816124c4565b840191505092915050565b6000611f8c601f83612433565b91507f467269656e64207265717565737420686173206265656e2072656d6f766564006000830152602082019050919050565b6000611fcc601f83612433565b91507f546865726520617265206e6f20726571756573747320746f2072656d6f7665006000830152602082019050919050565b600061200c601e83612433565b91507f546865726520617265206e6f20667269656e647320746f2072656d6f766500006000830152602082019050919050565b600061204c601583612433565b91507f5265717565737420646f206e6f742065787369737400000000000000000000006000830152602082019050919050565b600061208c601483612433565b91507f5265717565737420616c72656164792073656e740000000000000000000000006000830152602082019050919050565b60006120cc601683612433565b91507f5265717565737420646f6573206e6f74206578697374000000000000000000006000830152602082019050919050565b600061210c601483612433565b91507f467269656e6420646f206e6f74206578736973740000000000000000000000006000830152602082019050919050565b60006040830160008301516121576000860182611e2f565b506020830151848203602086015261216f8282611f46565b9150508091505092915050565b60006080830160008301516121946000860182611e2f565b5060208301516121a76020860182611f37565b5060408301516121ba6040860182611f37565b50606083015184820360608601526121d28282611f46565b9150508091505092915050565b60006020820190506121f46000830184611e3e565b92915050565b600060208201905081810360008301526122148184611e4d565b905092915050565b600060208201905081810360008301526122368184611ec2565b905092915050565b6000602082019050818103600083015261225781611f7f565b9050919050565b6000602082019050818103600083015261227781611fbf565b9050919050565b6000602082019050818103600083015261229781611fff565b9050919050565b600060208201905081810360008301526122b78161203f565b9050919050565b600060208201905081810360008301526122d78161207f565b9050919050565b600060208201905081810360008301526122f7816120bf565b9050919050565b60006020820190508181036000830152612317816120ff565b9050919050565b6000604051905081810181811067ffffffffffffffff82111715612345576123446124c2565b5b8060405250919050565b600067ffffffffffffffff82111561236a576123696124c2565b5b602082029050919050565b600067ffffffffffffffff8211156123905761238f6124c2565b5b601f19601f8301169050602081019050919050565b6000819050602082019050919050565b6000819050602082019050919050565b600081519050919050565b600081519050919050565b600081519050919050565b6000602082019050919050565b6000602082019050919050565b600082825260208201905092915050565b600082825260208201905092915050565b600082825260208201905092915050565b600082825260208201905092915050565b600061244f82612460565b9050919050565b6000819050919050565b600073ffffffffffffffffffffffffffffffffffffffff82169050919050565b82818337600083830152505050565b60005b838110156124ad578082015181840152602081019050612492565b838111156124bc576000848401525b50505050565bfe5b6000601f19601f8301169050919050565b6124de81612444565b81146124e957600080fd5b50565b6124f581612456565b811461250057600080fd5b5056fea26469706673582212204f988d0f78895faa22ee64e4a14b7a2777a1678b78786a317e890672f218b4ed64736f6c63430007060033",
  "immutableReferences": {},
  "source": "// SPDX-License-Identifier: MIT\npragma solidity >=0.7.0 <0.8.0;\npragma experimental ABIEncoderV2;\n\n/**\n * @title FriendRequester\n * @dev Maps friend requests along with associated threadIDs\n */\ncontract Friends {\n    \n    struct FriendRequest {\n        address sender;\n        bytes pubkey;\n    }\n\n    struct Friend {\n        address dweller; // Address of the friend\n        bytes32 threadHash1; // Part 1 of the convorsation ThreadID\n        bytes32 threadHash2; // Part 2 of the convorsation ThreadID\n        bytes pubkey; // Public key used to compute ECDH (Elliptic Curve Diffie Helman)\n    }\n    \n    uint MAX_UINT = uint256(-1);\n\n    event FriendRequestSent(address indexed sentTo);\n\n    event FriendRequestAccepted(address indexed sentFrom);\n\n    event FriendRequestDenied(address indexed sentFrom);\n    \n    // Emitted when a user removes a friend\n    event FriendRemoved(address indexed friendRemoved);\n\n    // Mapping of all friends requests a particular address has\n    mapping(address => FriendRequest[]) private requests;\n    \n    // Tracks the index of each friend request inside the mapping\n    mapping(address => mapping(address => uint)) private requestsTracker;\n    \n    // Mapping of all friends a particular address has\n    mapping(address => Friend[]) private friends;\n    \n    // Tracks the index of each Friend inside the mapping\n    mapping(address => mapping(address => uint)) private friendsTracker;\n    \n    \n    /**\n     * @dev Create a new Friends contract\n     */\n    constructor() {}\n\n    /**\n     * @dev Converts the given public key to ethereum address\n     * @return addr\n     */\n    function calculateAddress(bytes memory pub) public pure returns (address addr) {\n        bytes32 hash = keccak256(pub);\n        assembly {\n            mstore(0, hash)\n            addr := mload(0)\n        }    \n    }\n\n    /**\n     * @dev Returns a friend from the friends mapping\n     * @return fr\n     */\n    function _getFriend(address _from, address _toGet) internal view returns (Friend memory fr) {\n        uint index = friendsTracker[_from][_toGet];\n        require(index != 0, \"Friend does not exist\");\n        return friends[_from][index - 1];\n    }\n    \n    /**\n     * @dev Adds a friend to the friends mapping\n     */\n    function _addFriend(address _to, Friend memory fr) internal {\n        friends[_to].push(fr);\n        uint index = friends[_to].length;\n        friendsTracker[_to][fr.dweller] = index;\n    }\n    \n    /**\n     * @dev Removes a friend from the friends mapping\n     */\n    function _removeFriend(address _from, address _toRemove) internal {\n        require(friends[_from].length > 0, \"There are no friends to remove\");\n        // Index of the element to remove\n        uint index = friendsTracker[_from][_toRemove] - 1;\n        uint lastIndex = friends[_from].length - 1;\n        \n        if(index != lastIndex){\n            // Last friend inside the array\n            Friend memory last = friends[_from][lastIndex];\n            // Change the last with the element to remove\n            friends[_from][index] = last;\n            // Update the Index\n            friendsTracker[_from][last.dweller] = index + 1;\n        }\n        \n        // Clear the previous index by setting the maximum integer\n        friendsTracker[_from][_toRemove] = MAX_UINT;\n        \n        // Reduce the size of the array by 1\n        friends[_from].pop();\n    }\n    \n    /**\n     * @dev Returns a friend request from the requests mapping\n     * @return fr\n     */\n    function _getRequest(address _from, address _toGet) internal view returns (FriendRequest memory fr) {\n        uint index = requestsTracker[_from][_toGet];\n        require(index != 0, \"Request does not exist\");\n        return requests[_from][index];\n    }\n    \n    /**\n     * @dev Adds a friend request to the requests mapping\n     */\n    function _addRequest(address _to, FriendRequest memory _from) internal {\n        requests[_to].push(_from);\n        uint index = requests[_to].length;\n        requestsTracker[_to][_from.sender] = index;\n    }\n    \n    /**\n     * @dev Removes a friend request from the requests mapping\n     */\n    function _removeRequest(address _from, address _toRemove) internal {\n        require(requests[_from].length > 0, \"There are no requests to remove\");\n        // Index of the element to remove\n        uint index = requestsTracker[_from][_toRemove] - 1;\n        uint lastIndex = requests[_from].length - 1;\n        \n        if(index != lastIndex){\n            // Last friend inside the array\n            FriendRequest memory last = requests[_from][lastIndex];\n            // Change the last with the element to remove\n            requests[_from][index] = last;\n            // Update the Index\n            requestsTracker[_from][last.sender] = index + 1;\n        }\n        \n        // Clear the previous index by setting the maximum integer\n        requestsTracker[_from][_toRemove] = MAX_UINT;\n        \n        // Reduce the size of the array by 1\n        requests[_from].pop();\n    }\n\n    /**\n     * @dev Add a new friend request\n     */\n    function makeRequest(address to, bytes memory pubkey) public {\n        uint index = requestsTracker[to][msg.sender];\n        require(index == 0 || index == MAX_UINT, \"Request already sent\");\n\n        _addRequest(\n            to,\n            FriendRequest(msg.sender, pubkey)\n        );\n\n        emit FriendRequestSent(to);\n    }\n    \n    /**\n     * @dev Accept a friend request\n     */\n    function acceptRequest(address to, bytes32[2] memory thread, bytes memory pubkey) public {\n        uint friendRequestIndex = requestsTracker[msg.sender][to];\n        \n        // Check if the friend request has already been removed\n        require(friendRequestIndex != MAX_UINT, \"Friend request has been removed\");\n        \n        // Check if the request exist\n        FriendRequest memory friendRequest = requests[msg.sender][friendRequestIndex -1];\n        require(friendRequest.sender != address(0), \"Request does not exist\");\n        \n        // Current sender\n        Friend memory receiverFriend = Friend(\n            to,\n            thread[0],\n            thread[1],\n            friendRequest.pubkey\n        );\n        \n        // Original sender of the request\n        Friend memory senderFriend = Friend(\n            msg.sender,\n            thread[0],\n            thread[1],\n            pubkey\n        );\n        \n        _removeRequest(msg.sender, friendRequest.sender);\n        _addFriend(msg.sender, receiverFriend);\n        _addFriend(friendRequest.sender, senderFriend);\n\n        emit FriendRequestAccepted(to);\n    }\n\n    /**\n     * @dev Deny a friend request\n     */\n    function denyRequest(address to) public {\n        uint friendRequestIndex = requestsTracker[msg.sender][to];\n        \n        // Check if the friend request exist\n        require(friendRequestIndex != 0, \"Request does not exist\");\n        \n        // Check if the friend request has already been removed\n        require(friendRequestIndex != MAX_UINT, \"Friend request has been removed\");\n        \n        _removeRequest(msg.sender, to);\n\n        emit FriendRequestDenied(to);\n    }\n\n    /**\n     * @dev Remove a friend request\n     */\n    function removeRequest(address to) public {\n        uint index = requestsTracker[to][msg.sender];\n        require(index != 0, \"Request do not exsist\");\n\n        _removeRequest(to, msg.sender);\n    }\n\n    /**\n     * @dev Remove a friend\n     */\n    function removeFriend(address _toRemove) public {\n        uint index = requestsTracker[msg.sender][_toRemove];\n        require(index != 0, \"Friend do not exsist\");\n\n        _removeFriend(msg.sender, _toRemove);\n        _removeFriend(_toRemove, msg.sender);\n    }\n    \n    /**\n     * @dev Returns the friends list related to the msg.sender\n     */\n    function getFriends() public view returns (Friend[] memory) {\n        return friends[msg.sender];\n    }\n    \n    /**\n     * @dev Returns the requests list related directed to the msg.sender\n     */\n    function getRequests() public view returns (FriendRequest[] memory) {\n        return requests[msg.sender];\n    }\n}",
  "sourcePath": "/Users/mtumiati/Knobs/satellite/Vault74-Contracts/contracts/Friends.sol",
  "compiler": {
    "name": "solc",
    "version": "0.7.6+commit.7338295f.Emscripten.clang"
  },
  "schemaVersion": "3.3.4",
  "updatedAt": "2021-03-24T14:44:42.182Z",
  "devdoc": {
    "details": "Maps friend requests along with associated threadIDs",
    "kind": "dev",
    "methods": {
      "acceptRequest(address,bytes32[2],bytes)": {
        "details": "Accept a friend request"
      },
      "calculateAddress(bytes)": {
        "details": "Converts the given public key to ethereum address",
        "returns": {
          "addr": "addr"
        }
      },
      "constructor": {
        "details": "Create a new Friends contract"
      },
      "denyRequest(address)": {
        "details": "Deny a friend request"
      },
      "getFriends()": {
        "details": "Returns the friends list related to the msg.sender"
      },
      "getRequests()": {
        "details": "Returns the requests list related directed to the msg.sender"
      },
      "makeRequest(address,bytes)": {
        "details": "Add a new friend request"
      },
      "removeFriend(address)": {
        "details": "Remove a friend"
      },
      "removeRequest(address)": {
        "details": "Remove a friend request"
      }
    },
    "title": "FriendRequester",
    "version": 1
  },
  "userdoc": {
    "kind": "user",
    "methods": {},
    "version": 1
  }
}