{
  "contractName": "Friends",
  "abi": [
    {
      "inputs": [],
      "stateMutability": "nonpayable",
      "type": "constructor"
    },
    {
      "anonymous": false,
      "inputs": [
        {
          "indexed": true,
          "internalType": "address",
          "name": "friendRemoved",
          "type": "address"
        }
      ],
      "name": "FriendRemoved",
      "type": "event"
    },
    {
      "anonymous": false,
      "inputs": [
        {
          "indexed": true,
          "internalType": "address",
          "name": "sentTo",
          "type": "address"
        }
      ],
      "name": "FriendRequestSent",
      "type": "event"
    },
    {
      "inputs": [],
      "name": "getRequests",
      "outputs": [
        {
          "internalType": "uint256[]",
          "name": "",
          "type": "uint256[]"
        }
      ],
      "stateMutability": "view",
      "type": "function",
      "constant": true
    },
    {
      "inputs": [
        {
          "internalType": "uint256",
          "name": "id",
          "type": "uint256"
        }
      ],
      "name": "getRequest",
      "outputs": [
        {
          "components": [
            {
              "internalType": "uint256",
              "name": "id",
              "type": "uint256"
            },
            {
              "internalType": "bool",
              "name": "active",
              "type": "bool"
            },
            {
              "internalType": "bool",
              "name": "accepted",
              "type": "bool"
            },
            {
              "internalType": "address",
              "name": "sender",
              "type": "address"
            },
            {
              "internalType": "address",
              "name": "reciver",
              "type": "address"
            },
            {
              "internalType": "bytes32",
              "name": "threadHash1",
              "type": "bytes32"
            },
            {
              "internalType": "bytes32",
              "name": "threadHash2",
              "type": "bytes32"
            }
          ],
          "internalType": "struct Friends.FriendRequest",
          "name": "",
          "type": "tuple"
        }
      ],
      "stateMutability": "view",
      "type": "function",
      "constant": true
    },
    {
      "inputs": [],
      "name": "getFriends",
      "outputs": [
        {
          "components": [
            {
              "internalType": "address",
              "name": "dweller",
              "type": "address"
            },
            {
              "internalType": "bytes32",
              "name": "threadHash1",
              "type": "bytes32"
            },
            {
              "internalType": "bytes32",
              "name": "threadHash2",
              "type": "bytes32"
            }
          ],
          "internalType": "struct Friends.Friend[]",
          "name": "",
          "type": "tuple[]"
        }
      ],
      "stateMutability": "view",
      "type": "function",
      "constant": true
    },
    {
      "inputs": [
        {
          "internalType": "address",
          "name": "to",
          "type": "address"
        },
        {
          "internalType": "bytes32[2]",
          "name": "thread",
          "type": "bytes32[2]"
        }
      ],
      "name": "makeRequest",
      "outputs": [],
      "stateMutability": "nonpayable",
      "type": "function"
    },
    {
      "inputs": [
        {
          "internalType": "uint256",
          "name": "id",
          "type": "uint256"
        }
      ],
      "name": "acceptRequest",
      "outputs": [],
      "stateMutability": "nonpayable",
      "type": "function"
    },
    {
      "inputs": [
        {
          "internalType": "uint256",
          "name": "id",
          "type": "uint256"
        }
      ],
      "name": "denyRequest",
      "outputs": [],
      "stateMutability": "nonpayable",
      "type": "function"
    },
    {
      "inputs": [
        {
          "internalType": "address",
          "name": "dweller",
          "type": "address"
        }
      ],
      "name": "removeFriend",
      "outputs": [],
      "stateMutability": "nonpayable",
      "type": "function"
    }
  ],
  "bytecode": "0x608060405234801561001057600080fd5b5060026040518060e0016040528060008152602001600115158152602001600015158152602001600073ffffffffffffffffffffffffffffffffffffffff168152602001600073ffffffffffffffffffffffffffffffffffffffff1681526020016000801b81526020016000801b81525090806001815401808255809150506001900390600052602060002090600502016000909190919091506000820151816000015560208201518160010160006101000a81548160ff02191690831515021790555060408201518160010160016101000a81548160ff02191690831515021790555060608201518160010160026101000a81548173ffffffffffffffffffffffffffffffffffffffff021916908373ffffffffffffffffffffffffffffffffffffffff16021790555060808201518160020160006101000a81548173ffffffffffffffffffffffffffffffffffffffff021916908373ffffffffffffffffffffffffffffffffffffffff16021790555060a0820151816003015560c082015181600401555050611b2b806101a76000396000f3fe608060405234801561001057600080fd5b506004361061007d5760003560e01c806379f96c571161005b57806379f96c57146100d857806380cee8a5146100f45780638813ce1214610110578063c58343ef1461012e5761007d565b80631f8f72701461008257806344fbc98e146100a05780634ba1f098146100bc575b600080fd5b61008a61015e565b604051610097919061188d565b60405180910390f35b6100ba60048036038101906100b59190611458565b610264565b005b6100d660048036038101906100d19190611494565b610680565b005b6100f260048036038101906100ed9190611494565b610b57565b005b61010e6004803603810190610109919061142f565b610eea565b005b610118611134565b60405161012591906118af565b60405180910390f35b61014860048036038101906101439190611494565b6111c8565b6040516101559190611971565b60405180910390f35b6060600360003373ffffffffffffffffffffffffffffffffffffffff1673ffffffffffffffffffffffffffffffffffffffff168152602001908152602001600020805480602002602001604051908101604052809291908181526020016000905b8282101561025b57838290600052602060002090600302016040518060600160405290816000820160009054906101000a900473ffffffffffffffffffffffffffffffffffffffff1673ffffffffffffffffffffffffffffffffffffffff1673ffffffffffffffffffffffffffffffffffffffff16815260200160018201548152602001600282015481525050815260200190600101906101bf565b50505050905090565b3373ffffffffffffffffffffffffffffffffffffffff168273ffffffffffffffffffffffffffffffffffffffff1614156102d3576040517f08c379a00000000000000000000000000000000000000000000000000000000081526004016102ca906118f1565b60405180910390fd5b6000600160003373ffffffffffffffffffffffffffffffffffffffff1673ffffffffffffffffffffffffffffffffffffffff16815260200190815260200160002060008473ffffffffffffffffffffffffffffffffffffffff1673ffffffffffffffffffffffffffffffffffffffff1681526020019081526020016000205414610392576040517f08c379a000000000000000000000000000000000000000000000000000000000815260040161038990611911565b60405180910390fd5b61039a611309565b6040518060e0016040528060028054905081526020016001151581526020016000151581526020013373ffffffffffffffffffffffffffffffffffffffff1681526020018473ffffffffffffffffffffffffffffffffffffffff1681526020018360006002811061040757fe5b602002015181526020018360016002811061041e57fe5b6020020151815250905060028190806001815401808255809150506001900390600052602060002090600502016000909190919091506000820151816000015560208201518160010160006101000a81548160ff02191690831515021790555060408201518160010160016101000a81548160ff02191690831515021790555060608201518160010160026101000a81548173ffffffffffffffffffffffffffffffffffffffff021916908373ffffffffffffffffffffffffffffffffffffffff16021790555060808201518160020160006101000a81548173ffffffffffffffffffffffffffffffffffffffff021916908373ffffffffffffffffffffffffffffffffffffffff16021790555060a0820151816003015560c0820151816004015550506000808473ffffffffffffffffffffffffffffffffffffffff1673ffffffffffffffffffffffffffffffffffffffff1681526020019081526020016000206001600280549050039080600181540180825580915050600190039060005260206000200160009091909190915055600160028054905003600160003373ffffffffffffffffffffffffffffffffffffffff1673ffffffffffffffffffffffffffffffffffffffff16815260200190815260200160002060008573ffffffffffffffffffffffffffffffffffffffff1673ffffffffffffffffffffffffffffffffffffffff168152602001908152602001600020819055508273ffffffffffffffffffffffffffffffffffffffff167f31ed3729d46aa09de79e774f1f2fc8e25e3a427d0f4d3df9734059ca59c3b31360405160405180910390a2505050565b610688611309565b6002828154811061069557fe5b90600052602060002090600502016040518060e0016040529081600082015481526020016001820160009054906101000a900460ff161515151581526020016001820160019054906101000a900460ff161515151581526020016001820160029054906101000a900473ffffffffffffffffffffffffffffffffffffffff1673ffffffffffffffffffffffffffffffffffffffff1673ffffffffffffffffffffffffffffffffffffffff1681526020016002820160009054906101000a900473ffffffffffffffffffffffffffffffffffffffff1673ffffffffffffffffffffffffffffffffffffffff1673ffffffffffffffffffffffffffffffffffffffff1681526020016003820154815260200160048201548152505090503373ffffffffffffffffffffffffffffffffffffffff16816080015173ffffffffffffffffffffffffffffffffffffffff1614610822576040517f08c379a000000000000000000000000000000000000000000000000000000000815260040161081990611931565b60405180910390fd5b60008160200190151590811515815250506001816040019015159081151581525050806002838154811061085257fe5b90600052602060002090600502016000820151816000015560208201518160010160006101000a81548160ff02191690831515021790555060408201518160010160016101000a81548160ff02191690831515021790555060608201518160010160026101000a81548173ffffffffffffffffffffffffffffffffffffffff021916908373ffffffffffffffffffffffffffffffffffffffff16021790555060808201518160020160006101000a81548173ffffffffffffffffffffffffffffffffffffffff021916908373ffffffffffffffffffffffffffffffffffffffff16021790555060a0820151816003015560c08201518160040155905050600360003373ffffffffffffffffffffffffffffffffffffffff1673ffffffffffffffffffffffffffffffffffffffff1681526020019081526020016000206040518060600160405280836060015173ffffffffffffffffffffffffffffffffffffffff1681526020018360a0015181526020018360c00151815250908060018154018082558091505060019003906000526020600020906003020160009091909190915060008201518160000160006101000a81548173ffffffffffffffffffffffffffffffffffffffff021916908373ffffffffffffffffffffffffffffffffffffffff1602179055506020820151816001015560408201518160020155505060036000826060015173ffffffffffffffffffffffffffffffffffffffff1673ffffffffffffffffffffffffffffffffffffffff16815260200190815260200160002060405180606001604052803373ffffffffffffffffffffffffffffffffffffffff1681526020018360a0015181526020018360c00151815250908060018154018082558091505060019003906000526020600020906003020160009091909190915060008201518160000160006101000a81548173ffffffffffffffffffffffffffffffffffffffff021916908373ffffffffffffffffffffffffffffffffffffffff160217905550602082015181600101556040820151816002015550505050565b610b5f611309565b60028281548110610b6c57fe5b90600052602060002090600502016040518060e0016040529081600082015481526020016001820160009054906101000a900460ff161515151581526020016001820160019054906101000a900460ff161515151581526020016001820160029054906101000a900473ffffffffffffffffffffffffffffffffffffffff1673ffffffffffffffffffffffffffffffffffffffff1673ffffffffffffffffffffffffffffffffffffffff1681526020016002820160009054906101000a900473ffffffffffffffffffffffffffffffffffffffff1673ffffffffffffffffffffffffffffffffffffffff1673ffffffffffffffffffffffffffffffffffffffff1681526020016003820154815260200160048201548152505090503373ffffffffffffffffffffffffffffffffffffffff16816080015173ffffffffffffffffffffffffffffffffffffffff1614610cf9576040517f08c379a0000000000000000000000000000000000000000000000000000000008152600401610cf090611951565b60405180910390fd5b600115158160200151151514610d44576040517f08c379a0000000000000000000000000000000000000000000000000000000008152600401610d3b906118d1565b60405180910390fd5b60008160200190151590811515815250508060028381548110610d6357fe5b90600052602060002090600502016000820151816000015560208201518160010160006101000a81548160ff02191690831515021790555060408201518160010160016101000a81548160ff02191690831515021790555060608201518160010160026101000a81548173ffffffffffffffffffffffffffffffffffffffff021916908373ffffffffffffffffffffffffffffffffffffffff16021790555060808201518160020160006101000a81548173ffffffffffffffffffffffffffffffffffffffff021916908373ffffffffffffffffffffffffffffffffffffffff16021790555060a0820151816003015560c08201518160040155905050600060016000836060015173ffffffffffffffffffffffffffffffffffffffff1673ffffffffffffffffffffffffffffffffffffffff16815260200190815260200160002060003373ffffffffffffffffffffffffffffffffffffffff1673ffffffffffffffffffffffffffffffffffffffff168152602001908152602001600020819055505050565b6000600360003373ffffffffffffffffffffffffffffffffffffffff1673ffffffffffffffffffffffffffffffffffffffff1681526020019081526020016000209050600080600090505b8280549050811015610fc7578373ffffffffffffffffffffffffffffffffffffffff16838281548110610f6457fe5b906000526020600020906003020160000160009054906101000a900473ffffffffffffffffffffffffffffffffffffffff1673ffffffffffffffffffffffffffffffffffffffff161415610fba57809150610fc7565b8080600101915050610f35565b5060018280549050038110156110915781600183805490500381548110610fea57fe5b906000526020600020906003020182828154811061100457fe5b90600052602060002090600302016000820160009054906101000a900473ffffffffffffffffffffffffffffffffffffffff168160000160006101000a81548173ffffffffffffffffffffffffffffffffffffffff021916908373ffffffffffffffffffffffffffffffffffffffff16021790555060018201548160010155600282015481600201559050505b816001838054905003815481106110a457fe5b9060005260206000209060030201600080820160006101000a81549073ffffffffffffffffffffffffffffffffffffffff02191690556001820160009055600282016000905550508273ffffffffffffffffffffffffffffffffffffffff167fdf33258b68a0f7bc14cb0d28dd33feae582f5b4e758e74b97056debaef5605f560405160405180910390a2505050565b60606000803373ffffffffffffffffffffffffffffffffffffffff1673ffffffffffffffffffffffffffffffffffffffff1681526020019081526020016000208054806020026020016040519081016040528092919081815260200182805480156111be57602002820191906000526020600020905b8154815260200190600101908083116111aa575b5050505050905090565b6111d0611309565b6111d8611309565b600283815481106111e557fe5b90600052602060002090600502016040518060e0016040529081600082015481526020016001820160009054906101000a900460ff161515151581526020016001820160019054906101000a900460ff161515151581526020016001820160029054906101000a900473ffffffffffffffffffffffffffffffffffffffff1673ffffffffffffffffffffffffffffffffffffffff1673ffffffffffffffffffffffffffffffffffffffff1681526020016002820160009054906101000a900473ffffffffffffffffffffffffffffffffffffffff1673ffffffffffffffffffffffffffffffffffffffff1673ffffffffffffffffffffffffffffffffffffffff16815260200160038201548152602001600482015481525050905080915050919050565b6040518060e0016040528060008152602001600015158152602001600015158152602001600073ffffffffffffffffffffffffffffffffffffffff168152602001600073ffffffffffffffffffffffffffffffffffffffff16815260200160008019168152602001600080191681525090565b60008135905061138b81611ab0565b92915050565b600082601f8301126113a257600080fd5b60026113b56113b0826119b9565b61198c565b915081838560208402820111156113cb57600080fd5b60005b838110156113fb57816113e18882611405565b8452602084019350602083019250506001810190506113ce565b5050505092915050565b60008135905061141481611ac7565b92915050565b60008135905061142981611ade565b92915050565b60006020828403121561144157600080fd5b600061144f8482850161137c565b91505092915050565b6000806060838503121561146b57600080fd5b60006114798582860161137c565b925050602061148a85828601611391565b9150509250929050565b6000602082840312156114a657600080fd5b60006114b48482850161141a565b91505092915050565b60006114c9838361183c565b60608301905092915050565b60006114e1838361187e565b60208301905092915050565b6114f681611a5e565b82525050565b6000611507826119fb565b6115118185611a2b565b935061151c836119db565b8060005b8381101561154d57815161153488826114bd565b975061153f83611a11565b925050600181019050611520565b5085935050505092915050565b600061156582611a06565b61156f8185611a3c565b935061157a836119eb565b8060005b838110156115ab57815161159288826114d5565b975061159d83611a1e565b92505060018101905061157e565b5085935050505092915050565b6115c181611a70565b82525050565b6115d081611a7c565b82525050565b60006115e3602683611a4d565b91507f54686520667269656e642072657175657374206973206e6f206c6f676572206160008301527f63746976652e00000000000000000000000000000000000000000000000000006020830152604082019050919050565b6000611649601a83611a4d565b91507f596f752063616e277420667269656e6420796f757273656c662e0000000000006000830152602082019050919050565b6000611689602883611a4d565b91507f596f7520616c72656164792073656e742061207265717565737420746f20746860008301527f697320757365722e0000000000000000000000000000000000000000000000006020830152604082019050919050565b60006116ef602283611a4d565b91507f5468697320726571756573742069736e277420796f75727320746f206163636560008301527f70740000000000000000000000000000000000000000000000000000000000006020830152604082019050919050565b6000611755602783611a4d565b91507f596f752063616e27742064656e79206f746865722070656f706c65277320726560008301527f7175657374732e000000000000000000000000000000000000000000000000006020830152604082019050919050565b60e0820160008201516117c4600085018261187e565b5060208201516117d760208501826115b8565b5060408201516117ea60408501826115b8565b5060608201516117fd60608501826114ed565b50608082015161181060808501826114ed565b5060a082015161182360a08501826115c7565b5060c082015161183660c08501826115c7565b50505050565b60608201600082015161185260008501826114ed565b50602082015161186560208501826115c7565b50604082015161187860408501826115c7565b50505050565b61188781611aa6565b82525050565b600060208201905081810360008301526118a781846114fc565b905092915050565b600060208201905081810360008301526118c9818461155a565b905092915050565b600060208201905081810360008301526118ea816115d6565b9050919050565b6000602082019050818103600083015261190a8161163c565b9050919050565b6000602082019050818103600083015261192a8161167c565b9050919050565b6000602082019050818103600083015261194a816116e2565b9050919050565b6000602082019050818103600083015261196a81611748565b9050919050565b600060e08201905061198660008301846117ae565b92915050565b6000604051905081810181811067ffffffffffffffff821117156119af57600080fd5b8060405250919050565b600067ffffffffffffffff8211156119d057600080fd5b602082029050919050565b6000819050602082019050919050565b6000819050602082019050919050565b600081519050919050565b600081519050919050565b6000602082019050919050565b6000602082019050919050565b600082825260208201905092915050565b600082825260208201905092915050565b600082825260208201905092915050565b6000611a6982611a86565b9050919050565b60008115159050919050565b6000819050919050565b600073ffffffffffffffffffffffffffffffffffffffff82169050919050565b6000819050919050565b611ab981611a5e565b8114611ac457600080fd5b50565b611ad081611a7c565b8114611adb57600080fd5b50565b611ae781611aa6565b8114611af257600080fd5b5056fea26469706673582212209a75dc6f90e30ed03c3eb651cd66c7422787ba203da48f50d36342e54dc6bea064736f6c63430007000033",
  "immutableReferences": {},
  "source": "// SPDX-License-Identifier: MIT\npragma solidity >=0.7.0 <0.8.0;\npragma experimental ABIEncoderV2;\n\n/**\n * @title FriendRequester\n * @dev Maps friend requests along with associated threadIDs\n */\ncontract Friends {\n\n    struct Friend {\n        address dweller; // Address of the friend\n        bytes32 threadHash1; // Part 1 of the convorsation ThreadID\n        bytes32 threadHash2; // Part 2 of the convorsation ThreadID\n    }\n\n    struct FriendRequest {\n        uint id; // ID of the friend request\n        bool active; // Is the friend request still pending\n        bool accepted; // Has the friend request  been accepted\n        address sender; // The address of the user whom sent the request\n        address reciver; // The address of the person they are request to friend with\n        bytes32 threadHash1; // Part 1 of the convorsation ThreadID\n        bytes32 threadHash2; // Part 2 of the convorsation ThreadID\n    }\n\n    // We only expose who the request was sent to\n    event FriendRequestSent(address indexed sentTo);\n    // Emitted when a user removes a friend\n    event FriendRemoved(address indexed friendRemoved);\n\n    // List of requests a particular address has recieved\n    mapping(address => uint[]) private recievedRequests;\n    // Mapping of requests to IDs a particular address has sent\n    // This is used to insure an address does not send multiple\n    // friend requests to a user\n    mapping(address => mapping(address => uint)) private sentRequests;\n    // List of all friend requests\n    FriendRequest[] private requests;\n    // Mapping of all friends a particular address has\n    mapping(address => Friend[]) private friends;\n\n    /**\n     * @dev Create a new Friends contract\n     */\n    constructor() {\n        // Prevents multiple friend requets from first sender.\n        // since we check against zero, here we're just reserving\n        // the 0 ID slot.\n        requests.push(FriendRequest(\n            0,\n            true,\n            false,\n            address(0x0),\n            address(0x0),\n            bytes32(0),\n            bytes32(0)\n        ));\n    }\n\n    /** \n     * @dev Get all the friend requests you have recieved\n     * @return list of friend IDs\n     */\n    function getRequests()\n        public\n        view\n        returns (uint[] memory)\n    {\n        return recievedRequests[msg.sender];\n    }\n    \n    \n    /** \n     * @dev Get a specified request by ID\n     * @return Friend request at specified id\n     */\n    function getRequest(uint id)\n        public\n        view\n        returns (FriendRequest memory)\n    {\n        FriendRequest memory fr = requests[id];\n        return fr;\n    }\n    \n    /** \n     * @dev Get all the friends you have\n     * @return list of Friends\n     */\n    function getFriends() \n        public\n        view\n        returns (Friend[] memory) \n    {\n        return friends[msg.sender];\n    }\n\n    /** \n     * @dev Make a new friend request to a user\n     * @param to Address to send the friend request to\n     * @param thread bytes list containing split threadID hash\n     */\n    function makeRequest(address to, bytes32[2] memory thread) \n        public \n    {\n        require(to != msg.sender, \"You can't friend yourself.\");\n        require(sentRequests[msg.sender][to] == 0, \"You already sent a request to this user.\");\n        FriendRequest memory fr = FriendRequest(\n            requests.length,\n            true,\n            false,\n            msg.sender,\n            to,\n            thread[0],\n            thread[1]\n        );\n        requests.push(fr);\n        // Send new request\n        recievedRequests[to].push(requests.length - 1);\n        // Add request to sent requests\n        sentRequests[msg.sender][to] = requests.length - 1;\n        // Emit request sent event\n        emit FriendRequestSent(to);\n    }\n\n    /**\n     * @dev Accept a friend request by ID\n     * @param id ID of the friend request to accept\n     */\n    function acceptRequest(uint id) public {\n        FriendRequest memory fr = requests[id];\n        require(fr.reciver == msg.sender, \"This request isn't yours to accept\");\n        // The requests lifecycle is over\n        fr.active = false;\n        // Accept the request so the sender knows we're friends.\n        fr.accepted = true;\n        requests[id] = fr;\n        // Add friends for the users\n        friends[msg.sender].push(Friend(\n            fr.sender,\n            fr.threadHash1,\n            fr.threadHash2\n        ));\n        friends[fr.sender].push(Friend(\n            msg.sender,\n            fr.threadHash1,\n            fr.threadHash2\n        ));\n    }\n\n    /**\n     * @dev Deny a friend request by ID\n     * @param id ID of the friend request to deny\n     */\n    function denyRequest(uint id)\n        public\n    {\n        FriendRequest memory fr = requests[id];\n        require(fr.reciver == msg.sender, \"You can't deny other people's requests.\");\n        require(fr.active == true, \"The friend request is no loger active.\");\n        // The requests lifecycle is over\n        fr.active = false;\n        requests[id] = fr;\n        // Cancel the pending request so they can send another in the future\n        sentRequests[fr.sender][msg.sender] = 0;\n    }\n\n    /**\n     * @dev Remove a friend by address\n     * @param dweller address of the friend to remove\n     */\n    function removeFriend(address dweller) \n        public\n    {\n        // Locate friends this sender has\n        Friend[] storage frs = friends[msg.sender];\n        // Track index of found friends\n        uint indx;\n        // Iterate friends to find index of friend to remove\n        for (uint i = 0; i < frs.length; i++) {\n            if (frs[i].dweller == dweller) {\n                indx = i;\n                break;\n            }\n        }\n        // If the friend is not the last in the list,\n        if (indx < frs.length - 1) {\n          // shift the last item into it's place.\n          frs[indx] = frs[frs.length - 1];\n        }\n        // Delete the last item in the list.\n        delete frs[frs.length - 1];\n        // Emit friend removed\n        emit FriendRemoved(dweller);\n    }\n}",
  "sourcePath": "/Users/mtumiati/Knobs/satellite/Vault74-Contracts/contracts/Friends.sol",
  "compiler": {
    "name": "solc",
    "version": "0.7.0+commit.9e61f92b.Emscripten.clang"
  },
  "schemaVersion": "3.3.4",
  "updatedAt": "2021-03-09T09:49:48.682Z",
  "networkType": "ethereum",
  "devdoc": {
    "details": "Maps friend requests along with associated threadIDs",
    "kind": "dev",
    "methods": {
      "acceptRequest(uint256)": {
        "details": "Accept a friend request by ID",
        "params": {
          "id": "ID of the friend request to accept"
        }
      },
      "constructor": {
        "details": "Create a new Friends contract"
      },
      "denyRequest(uint256)": {
        "details": "Deny a friend request by ID",
        "params": {
          "id": "ID of the friend request to deny"
        }
      },
      "getFriends()": {
        "details": "Get all the friends you have",
        "returns": {
          "_0": "list of Friends"
        }
      },
      "getRequest(uint256)": {
        "details": "Get a specified request by ID",
        "returns": {
          "_0": "Friend request at specified id"
        }
      },
      "getRequests()": {
        "details": "Get all the friend requests you have recieved",
        "returns": {
          "_0": "list of friend IDs"
        }
      },
      "makeRequest(address,bytes32[2])": {
        "details": "Make a new friend request to a user",
        "params": {
          "thread": "bytes list containing split threadID hash",
          "to": "Address to send the friend request to"
        }
      },
      "removeFriend(address)": {
        "details": "Remove a friend by address",
        "params": {
          "dweller": "address of the friend to remove"
        }
      }
    },
    "title": "FriendRequester",
    "version": 1
  },
  "userdoc": {
    "kind": "user",
    "methods": {},
    "version": 1
  }
}