{
  "contractName": "Friends",
  "abi": [
    {
      "inputs": [],
      "stateMutability": "nonpayable",
      "type": "constructor"
    },
    {
      "anonymous": false,
      "inputs": [
        {
          "indexed": true,
          "internalType": "address",
          "name": "friendRemoved",
          "type": "address"
        }
      ],
      "name": "FriendRemoved",
      "type": "event"
    },
    {
      "anonymous": false,
      "inputs": [
        {
          "indexed": true,
          "internalType": "address",
          "name": "sentFrom",
          "type": "address"
        }
      ],
      "name": "FriendRequestAccepted",
      "type": "event"
    },
    {
      "anonymous": false,
      "inputs": [
        {
          "indexed": true,
          "internalType": "address",
          "name": "sentFrom",
          "type": "address"
        }
      ],
      "name": "FriendRequestDenied",
      "type": "event"
    },
    {
      "anonymous": false,
      "inputs": [
        {
          "indexed": true,
          "internalType": "address",
          "name": "sentTo",
          "type": "address"
        }
      ],
      "name": "FriendRequestSent",
      "type": "event"
    },
    {
      "inputs": [
        {
          "internalType": "bytes",
          "name": "pub",
          "type": "bytes"
        }
      ],
      "name": "calculateAddress",
      "outputs": [
        {
          "internalType": "address",
          "name": "addr",
          "type": "address"
        }
      ],
      "stateMutability": "pure",
      "type": "function",
      "constant": true
    },
    {
      "inputs": [
        {
          "internalType": "address",
          "name": "to",
          "type": "address"
        },
        {
          "internalType": "string",
          "name": "encryptedKey",
          "type": "string"
        }
      ],
      "name": "makeRequest",
      "outputs": [],
      "stateMutability": "nonpayable",
      "type": "function"
    },
    {
      "inputs": [
        {
          "internalType": "address",
          "name": "to",
          "type": "address"
        },
        {
          "internalType": "string",
          "name": "encryptedKey",
          "type": "string"
        }
      ],
      "name": "acceptRequest",
      "outputs": [],
      "stateMutability": "nonpayable",
      "type": "function"
    },
    {
      "inputs": [
        {
          "internalType": "address",
          "name": "to",
          "type": "address"
        }
      ],
      "name": "denyRequest",
      "outputs": [],
      "stateMutability": "nonpayable",
      "type": "function"
    },
    {
      "inputs": [
        {
          "internalType": "address",
          "name": "to",
          "type": "address"
        }
      ],
      "name": "removeRequest",
      "outputs": [],
      "stateMutability": "nonpayable",
      "type": "function"
    },
    {
      "inputs": [
        {
          "internalType": "address",
          "name": "_toRemove",
          "type": "address"
        }
      ],
      "name": "removeFriend",
      "outputs": [],
      "stateMutability": "nonpayable",
      "type": "function"
    },
    {
      "inputs": [],
      "name": "getFriends",
      "outputs": [
        {
          "components": [
            {
              "internalType": "address",
              "name": "dweller",
              "type": "address"
            },
            {
              "internalType": "string",
              "name": "encryptedKey",
              "type": "string"
            }
          ],
          "internalType": "struct Friends.Friend[]",
          "name": "",
          "type": "tuple[]"
        }
      ],
      "stateMutability": "view",
      "type": "function",
      "constant": true
    },
    {
      "inputs": [],
      "name": "getRequests",
      "outputs": [
        {
          "components": [
            {
              "internalType": "address",
              "name": "sender",
              "type": "address"
            },
            {
              "internalType": "string",
              "name": "encryptedKey",
              "type": "string"
            }
          ],
          "internalType": "struct Friends.FriendRequest[]",
          "name": "",
          "type": "tuple[]"
        }
      ],
      "stateMutability": "view",
      "type": "function",
      "constant": true
    }
  ],
  "bytecode": "0x60806040527fffffffffffffffffffffffffffffffffffffffffffffffffffffffffffffffff60005534801561003457600080fd5b50612392806100446000396000f3fe608060405234801561001057600080fd5b50600436106100885760003560e01c80638813ce121161005b5780638813ce12146100ff5780639a8e49a41461011d578063ac8d603014610139578063e8a4c04e1461015557610088565b8063187a322c1461008d5780631f2d893a146100a95780631f8f7270146100c557806380cee8a5146100e3575b600080fd5b6100a760048036038101906100a29190611c17565b610185565b005b6100c360048036038101906100be9190611bee565b6102d1565b005b6100cd61042c565b6040516100da919061208c565b60405180910390f35b6100fd60048036038101906100f89190611bee565b6105c0565b005b61010761069d565b604051610114919061206a565b60405180910390f35b61013760048036038101906101329190611c17565b610831565b005b610153600480360381019061014e9190611bee565b610ba0565b005b61016f600480360381019061016a9190611c6b565b610c73565b60405161017c919061204f565b60405180910390f35b6000600260008473ffffffffffffffffffffffffffffffffffffffff1673ffffffffffffffffffffffffffffffffffffffff16815260200190815260200160002060003373ffffffffffffffffffffffffffffffffffffffff1673ffffffffffffffffffffffffffffffffffffffff1681526020019081526020016000205490506000811480610216575060005481145b610255576040517f08c379a000000000000000000000000000000000000000000000000000000000815260040161024c9061212e565b60405180910390fd5b6102898360405180604001604052803373ffffffffffffffffffffffffffffffffffffffff16815260200185815250610c8f565b8273ffffffffffffffffffffffffffffffffffffffff167f31ed3729d46aa09de79e774f1f2fc8e25e3a427d0f4d3df9734059ca59c3b31360405160405180910390a2505050565b6000600260003373ffffffffffffffffffffffffffffffffffffffff1673ffffffffffffffffffffffffffffffffffffffff16815260200190815260200160002060008373ffffffffffffffffffffffffffffffffffffffff1673ffffffffffffffffffffffffffffffffffffffff1681526020019081526020016000205490506000811415610396576040517f08c379a000000000000000000000000000000000000000000000000000000000815260040161038d9061214e565b60405180910390fd5b6000548114156103db576040517f08c379a00000000000000000000000000000000000000000000000000000000081526004016103d2906120ae565b60405180910390fd5b6103e53383610e2f565b8173ffffffffffffffffffffffffffffffffffffffff167f0a9e7bdf167af5510b775c63b125451644c99a91b541b3813f6cb569b9fe0daf60405160405180910390a25050565b6060600360003373ffffffffffffffffffffffffffffffffffffffff1673ffffffffffffffffffffffffffffffffffffffff168152602001908152602001600020805480602002602001604051908101604052809291908181526020016000905b828210156105b757838290600052602060002090600202016040518060400160405290816000820160009054906101000a900473ffffffffffffffffffffffffffffffffffffffff1673ffffffffffffffffffffffffffffffffffffffff1673ffffffffffffffffffffffffffffffffffffffff168152602001600182018054600181600116156101000203166002900480601f01602080910402602001604051908101604052809291908181526020018280546001816001161561010002031660029004801561059f5780601f106105745761010080835404028352916020019161059f565b820191906000526020600020905b81548152906001019060200180831161058257829003601f168201915b5050505050815250508152602001906001019061048d565b50505050905090565b6000600460003373ffffffffffffffffffffffffffffffffffffffff1673ffffffffffffffffffffffffffffffffffffffff16815260200190815260200160002060008373ffffffffffffffffffffffffffffffffffffffff1673ffffffffffffffffffffffffffffffffffffffff1681526020019081526020016000205490506000811415610685576040517f08c379a000000000000000000000000000000000000000000000000000000000815260040161067c9061216e565b60405180910390fd5b61068f3383611352565b6106998233611352565b5050565b6060600160003373ffffffffffffffffffffffffffffffffffffffff1673ffffffffffffffffffffffffffffffffffffffff168152602001908152602001600020805480602002602001604051908101604052809291908181526020016000905b8282101561082857838290600052602060002090600202016040518060400160405290816000820160009054906101000a900473ffffffffffffffffffffffffffffffffffffffff1673ffffffffffffffffffffffffffffffffffffffff1673ffffffffffffffffffffffffffffffffffffffff168152602001600182018054600181600116156101000203166002900480601f0160208091040260200160405190810160405280929190818152602001828054600181600116156101000203166002900480156108105780601f106107e557610100808354040283529160200191610810565b820191906000526020600020905b8154815290600101906020018083116107f357829003601f168201915b505050505081525050815260200190600101906106fe565b50505050905090565b6000600260003373ffffffffffffffffffffffffffffffffffffffff1673ffffffffffffffffffffffffffffffffffffffff16815260200190815260200160002060008473ffffffffffffffffffffffffffffffffffffffff1673ffffffffffffffffffffffffffffffffffffffff1681526020019081526020016000205490506000548114156108f7576040517f08c379a00000000000000000000000000000000000000000000000000000000081526004016108ee906120ae565b60405180910390fd5b6000600160003373ffffffffffffffffffffffffffffffffffffffff1673ffffffffffffffffffffffffffffffffffffffff168152602001908152602001600020600183038154811061094657fe5b90600052602060002090600202016040518060400160405290816000820160009054906101000a900473ffffffffffffffffffffffffffffffffffffffff1673ffffffffffffffffffffffffffffffffffffffff1673ffffffffffffffffffffffffffffffffffffffff168152602001600182018054600181600116156101000203166002900480601f016020809104026020016040519081016040528092919081815260200182805460018160011615610100020316600290048015610a4e5780601f10610a2357610100808354040283529160200191610a4e565b820191906000526020600020905b815481529060010190602001808311610a3157829003601f168201915b5050505050815250509050600073ffffffffffffffffffffffffffffffffffffffff16816000015173ffffffffffffffffffffffffffffffffffffffff161415610acd576040517f08c379a0000000000000000000000000000000000000000000000000000000008152600401610ac49061214e565b60405180910390fd5b600060405180604001604052808673ffffffffffffffffffffffffffffffffffffffff16815260200183602001518152509050600060405180604001604052803373ffffffffffffffffffffffffffffffffffffffff168152602001868152509050610b3d338460000151610e2f565b610b473383611876565b610b55836000015182611876565b8573ffffffffffffffffffffffffffffffffffffffff167f529983ca112b24c7d4fa4aab3910838a962db8fa4387508841122e3b2eba4f8f60405160405180910390a2505050505050565b6000600260008373ffffffffffffffffffffffffffffffffffffffff1673ffffffffffffffffffffffffffffffffffffffff16815260200190815260200160002060003373ffffffffffffffffffffffffffffffffffffffff1673ffffffffffffffffffffffffffffffffffffffff1681526020019081526020016000205490506000811415610c65576040517f08c379a0000000000000000000000000000000000000000000000000000000008152600401610c5c9061210e565b60405180910390fd5b610c6f8233610e2f565b5050565b6000808280519060200120905080600052600051915050919050565b600160008373ffffffffffffffffffffffffffffffffffffffff1673ffffffffffffffffffffffffffffffffffffffff16815260200190815260200160002081908060018154018082558091505060019003906000526020600020906002020160009091909190915060008201518160000160006101000a81548173ffffffffffffffffffffffffffffffffffffffff021916908373ffffffffffffffffffffffffffffffffffffffff1602179055506020820151816001019080519060200190610d5b929190611a16565b5050506000600160008473ffffffffffffffffffffffffffffffffffffffff1673ffffffffffffffffffffffffffffffffffffffff16815260200190815260200160002080549050905080600260008573ffffffffffffffffffffffffffffffffffffffff1673ffffffffffffffffffffffffffffffffffffffff1681526020019081526020016000206000846000015173ffffffffffffffffffffffffffffffffffffffff1673ffffffffffffffffffffffffffffffffffffffff16815260200190815260200160002081905550505050565b6000600160008473ffffffffffffffffffffffffffffffffffffffff1673ffffffffffffffffffffffffffffffffffffffff1681526020019081526020016000208054905011610eb4576040517f08c379a0000000000000000000000000000000000000000000000000000000008152600401610eab906120ce565b60405180910390fd5b60006001600260008573ffffffffffffffffffffffffffffffffffffffff1673ffffffffffffffffffffffffffffffffffffffff16815260200190815260200160002060008473ffffffffffffffffffffffffffffffffffffffff1673ffffffffffffffffffffffffffffffffffffffff16815260200190815260200160002054039050600060018060008673ffffffffffffffffffffffffffffffffffffffff1673ffffffffffffffffffffffffffffffffffffffff16815260200190815260200160002080549050039050808214611231576000600160008673ffffffffffffffffffffffffffffffffffffffff1673ffffffffffffffffffffffffffffffffffffffff1681526020019081526020016000208281548110610fd457fe5b90600052602060002090600202016040518060400160405290816000820160009054906101000a900473ffffffffffffffffffffffffffffffffffffffff1673ffffffffffffffffffffffffffffffffffffffff1673ffffffffffffffffffffffffffffffffffffffff168152602001600182018054600181600116156101000203166002900480601f0160208091040260200160405190810160405280929190818152602001828054600181600116156101000203166002900480156110dc5780601f106110b1576101008083540402835291602001916110dc565b820191906000526020600020905b8154815290600101906020018083116110bf57829003601f168201915b505050505081525050905080600160008773ffffffffffffffffffffffffffffffffffffffff1673ffffffffffffffffffffffffffffffffffffffff168152602001908152602001600020848154811061113257fe5b906000526020600020906002020160008201518160000160006101000a81548173ffffffffffffffffffffffffffffffffffffffff021916908373ffffffffffffffffffffffffffffffffffffffff16021790555060208201518160010190805190602001906111a3929190611a16565b5090505060018301600260008773ffffffffffffffffffffffffffffffffffffffff1673ffffffffffffffffffffffffffffffffffffffff1681526020019081526020016000206000836000015173ffffffffffffffffffffffffffffffffffffffff1673ffffffffffffffffffffffffffffffffffffffff16815260200190815260200160002081905550505b600054600260008673ffffffffffffffffffffffffffffffffffffffff1673ffffffffffffffffffffffffffffffffffffffff16815260200190815260200160002060008573ffffffffffffffffffffffffffffffffffffffff1673ffffffffffffffffffffffffffffffffffffffff16815260200190815260200160002081905550600160008573ffffffffffffffffffffffffffffffffffffffff1673ffffffffffffffffffffffffffffffffffffffff1681526020019081526020016000208054806112fc57fe5b6001900381819060005260206000209060020201600080820160006101000a81549073ffffffffffffffffffffffffffffffffffffffff02191690556001820160006113489190611aa4565b5050905550505050565b6000600360008473ffffffffffffffffffffffffffffffffffffffff1673ffffffffffffffffffffffffffffffffffffffff16815260200190815260200160002080549050116113d7576040517f08c379a00000000000000000000000000000000000000000000000000000000081526004016113ce906120ee565b60405180910390fd5b60006001600460008573ffffffffffffffffffffffffffffffffffffffff1673ffffffffffffffffffffffffffffffffffffffff16815260200190815260200160002060008473ffffffffffffffffffffffffffffffffffffffff1673ffffffffffffffffffffffffffffffffffffffff1681526020019081526020016000205403905060006001600360008673ffffffffffffffffffffffffffffffffffffffff1673ffffffffffffffffffffffffffffffffffffffff16815260200190815260200160002080549050039050808214611755576000600360008673ffffffffffffffffffffffffffffffffffffffff1673ffffffffffffffffffffffffffffffffffffffff16815260200190815260200160002082815481106114f857fe5b90600052602060002090600202016040518060400160405290816000820160009054906101000a900473ffffffffffffffffffffffffffffffffffffffff1673ffffffffffffffffffffffffffffffffffffffff1673ffffffffffffffffffffffffffffffffffffffff168152602001600182018054600181600116156101000203166002900480601f0160208091040260200160405190810160405280929190818152602001828054600181600116156101000203166002900480156116005780601f106115d557610100808354040283529160200191611600565b820191906000526020600020905b8154815290600101906020018083116115e357829003601f168201915b505050505081525050905080600360008773ffffffffffffffffffffffffffffffffffffffff1673ffffffffffffffffffffffffffffffffffffffff168152602001908152602001600020848154811061165657fe5b906000526020600020906002020160008201518160000160006101000a81548173ffffffffffffffffffffffffffffffffffffffff021916908373ffffffffffffffffffffffffffffffffffffffff16021790555060208201518160010190805190602001906116c7929190611a16565b5090505060018301600460008773ffffffffffffffffffffffffffffffffffffffff1673ffffffffffffffffffffffffffffffffffffffff1681526020019081526020016000206000836000015173ffffffffffffffffffffffffffffffffffffffff1673ffffffffffffffffffffffffffffffffffffffff16815260200190815260200160002081905550505b600054600460008673ffffffffffffffffffffffffffffffffffffffff1673ffffffffffffffffffffffffffffffffffffffff16815260200190815260200160002060008573ffffffffffffffffffffffffffffffffffffffff1673ffffffffffffffffffffffffffffffffffffffff16815260200190815260200160002081905550600360008573ffffffffffffffffffffffffffffffffffffffff1673ffffffffffffffffffffffffffffffffffffffff16815260200190815260200160002080548061182057fe5b6001900381819060005260206000209060020201600080820160006101000a81549073ffffffffffffffffffffffffffffffffffffffff021916905560018201600061186c9190611aa4565b5050905550505050565b600360008373ffffffffffffffffffffffffffffffffffffffff1673ffffffffffffffffffffffffffffffffffffffff16815260200190815260200160002081908060018154018082558091505060019003906000526020600020906002020160009091909190915060008201518160000160006101000a81548173ffffffffffffffffffffffffffffffffffffffff021916908373ffffffffffffffffffffffffffffffffffffffff1602179055506020820151816001019080519060200190611942929190611a16565b5050506000600360008473ffffffffffffffffffffffffffffffffffffffff1673ffffffffffffffffffffffffffffffffffffffff16815260200190815260200160002080549050905080600460008573ffffffffffffffffffffffffffffffffffffffff1673ffffffffffffffffffffffffffffffffffffffff1681526020019081526020016000206000846000015173ffffffffffffffffffffffffffffffffffffffff1673ffffffffffffffffffffffffffffffffffffffff16815260200190815260200160002081905550505050565b828054600181600116156101000203166002900490600052602060002090601f016020900481019282611a4c5760008555611a93565b82601f10611a6557805160ff1916838001178555611a93565b82800160010185558215611a93579182015b82811115611a92578251825591602001919060010190611a77565b5b509050611aa09190611aec565b5090565b50805460018160011615610100020316600290046000825580601f10611aca5750611ae9565b601f016020900490600052602060002090810190611ae89190611aec565b5b50565b5b80821115611b05576000816000905550600101611aed565b5090565b6000611b1c611b17846121bf565b61218e565b905082815260208101848484011115611b3457600080fd5b611b3f8482856122f0565b509392505050565b6000611b5a611b55846121ef565b61218e565b905082815260208101848484011115611b7257600080fd5b611b7d8482856122f0565b509392505050565b600081359050611b9481612345565b92915050565b600082601f830112611bab57600080fd5b8135611bbb848260208601611b09565b91505092915050565b600082601f830112611bd557600080fd5b8135611be5848260208601611b47565b91505092915050565b600060208284031215611c0057600080fd5b6000611c0e84828501611b85565b91505092915050565b60008060408385031215611c2a57600080fd5b6000611c3885828601611b85565b925050602083013567ffffffffffffffff811115611c5557600080fd5b611c6185828601611bc4565b9150509250929050565b600060208284031215611c7d57600080fd5b600082013567ffffffffffffffff811115611c9757600080fd5b611ca384828501611b9a565b91505092915050565b6000611cb88383611fd5565b905092915050565b6000611ccc8383612012565b905092915050565b611cdd816122be565b82525050565b611cec816122be565b82525050565b6000611cfd8261223f565b611d07818561227a565b935083602082028501611d198561221f565b8060005b85811015611d555784840389528151611d368582611cac565b9450611d4183612260565b925060208a01995050600181019050611d1d565b50829750879550505050505092915050565b6000611d728261224a565b611d7c818561228b565b935083602082028501611d8e8561222f565b8060005b85811015611dca5784840389528151611dab8582611cc0565b9450611db68361226d565b925060208a01995050600181019050611d92565b50829750879550505050505092915050565b6000611de782612255565b611df1818561229c565b9350611e018185602086016122ff565b611e0a81612334565b840191505092915050565b6000611e22601f836122ad565b91507f467269656e64207265717565737420686173206265656e2072656d6f766564006000830152602082019050919050565b6000611e62601f836122ad565b91507f546865726520617265206e6f20726571756573747320746f2072656d6f7665006000830152602082019050919050565b6000611ea2601e836122ad565b91507f546865726520617265206e6f20667269656e647320746f2072656d6f766500006000830152602082019050919050565b6000611ee26015836122ad565b91507f5265717565737420646f206e6f742065787369737400000000000000000000006000830152602082019050919050565b6000611f226014836122ad565b91507f5265717565737420616c72656164792073656e740000000000000000000000006000830152602082019050919050565b6000611f626016836122ad565b91507f5265717565737420646f6573206e6f74206578697374000000000000000000006000830152602082019050919050565b6000611fa26014836122ad565b91507f467269656e6420646f206e6f74206578736973740000000000000000000000006000830152602082019050919050565b6000604083016000830151611fed6000860182611cd4565b50602083015184820360208601526120058282611ddc565b9150508091505092915050565b600060408301600083015161202a6000860182611cd4565b50602083015184820360208601526120428282611ddc565b9150508091505092915050565b60006020820190506120646000830184611ce3565b92915050565b600060208201905081810360008301526120848184611cf2565b905092915050565b600060208201905081810360008301526120a68184611d67565b905092915050565b600060208201905081810360008301526120c781611e15565b9050919050565b600060208201905081810360008301526120e781611e55565b9050919050565b6000602082019050818103600083015261210781611e95565b9050919050565b6000602082019050818103600083015261212781611ed5565b9050919050565b6000602082019050818103600083015261214781611f15565b9050919050565b6000602082019050818103600083015261216781611f55565b9050919050565b6000602082019050818103600083015261218781611f95565b9050919050565b6000604051905081810181811067ffffffffffffffff821117156121b5576121b4612332565b5b8060405250919050565b600067ffffffffffffffff8211156121da576121d9612332565b5b601f19601f8301169050602081019050919050565b600067ffffffffffffffff82111561220a57612209612332565b5b601f19601f8301169050602081019050919050565b6000819050602082019050919050565b6000819050602082019050919050565b600081519050919050565b600081519050919050565b600081519050919050565b6000602082019050919050565b6000602082019050919050565b600082825260208201905092915050565b600082825260208201905092915050565b600082825260208201905092915050565b600082825260208201905092915050565b60006122c9826122d0565b9050919050565b600073ffffffffffffffffffffffffffffffffffffffff82169050919050565b82818337600083830152505050565b60005b8381101561231d578082015181840152602081019050612302565b8381111561232c576000848401525b50505050565bfe5b6000601f19601f8301169050919050565b61234e816122be565b811461235957600080fd5b5056fea26469706673582212206f2435fb3a19d3086ae1f9ac9830fabcb09d589c4b35bd13210cd0c1afc2c8c164736f6c63430007060033",
  "immutableReferences": {},
  "source": "// SPDX-License-Identifier: MIT\npragma solidity >=0.7.0 <0.8.0;\npragma experimental ABIEncoderV2;\n\n/**\n * @title FriendRequester\n * @dev Maps friend requests along with associated threadIDs\n */\ncontract Friends {\n    \n    struct FriendRequest {\n        address sender;\n        string encryptedKey;\n    }\n\n    struct Friend {\n        address dweller; // Address of the friend\n        string encryptedKey;\n    }\n    \n    uint MAX_UINT = uint256(-1);\n\n    event FriendRequestSent(address indexed sentTo);\n\n    event FriendRequestAccepted(address indexed sentFrom);\n\n    event FriendRequestDenied(address indexed sentFrom);\n    \n    // Emitted when a user removes a friend\n    event FriendRemoved(address indexed friendRemoved);\n\n    // Mapping of all friends requests a particular address has\n    mapping(address => FriendRequest[]) private requests;\n    \n    // Tracks the index of each friend request inside the mapping\n    mapping(address => mapping(address => uint)) private requestsTracker;\n    \n    // Mapping of all friends a particular address has\n    mapping(address => Friend[]) private friends;\n    \n    // Tracks the index of each Friend inside the mapping\n    mapping(address => mapping(address => uint)) private friendsTracker;\n    \n    \n    /**\n     * @dev Create a new Friends contract\n     */\n    constructor() {}\n\n    /**\n     * @dev Converts the given public key to ethereum address\n     * @return addr\n     */\n    function calculateAddress(bytes memory pub) public pure returns (address addr) {\n        bytes32 hash = keccak256(pub);\n        assembly {\n            mstore(0, hash)\n            addr := mload(0)\n        }    \n    }\n\n    /**\n     * @dev Returns a friend from the friends mapping\n     * @return fr\n     */\n    function _getFriend(address _from, address _toGet) internal view returns (Friend memory fr) {\n        uint index = friendsTracker[_from][_toGet];\n        require(index != 0, \"Friend does not exist\");\n        return friends[_from][index - 1];\n    }\n    \n    /**\n     * @dev Adds a friend to the friends mapping\n     */\n    function _addFriend(address _to, Friend memory fr) internal {\n        friends[_to].push(fr);\n        uint index = friends[_to].length;\n        friendsTracker[_to][fr.dweller] = index;\n    }\n    \n    /**\n     * @dev Removes a friend from the friends mapping\n     */\n    function _removeFriend(address _from, address _toRemove) internal {\n        require(friends[_from].length > 0, \"There are no friends to remove\");\n        // Index of the element to remove\n        uint index = friendsTracker[_from][_toRemove] - 1;\n        uint lastIndex = friends[_from].length - 1;\n        \n        if(index != lastIndex){\n            // Last friend inside the array\n            Friend memory last = friends[_from][lastIndex];\n            // Change the last with the element to remove\n            friends[_from][index] = last;\n            // Update the Index\n            friendsTracker[_from][last.dweller] = index + 1;\n        }\n        \n        // Clear the previous index by setting the maximum integer\n        friendsTracker[_from][_toRemove] = MAX_UINT;\n        \n        // Reduce the size of the array by 1\n        friends[_from].pop();\n    }\n    \n    /**\n     * @dev Returns a friend request from the requests mapping\n     * @return fr\n     */\n    function _getRequest(address _from, address _toGet) internal view returns (FriendRequest memory fr) {\n        uint index = requestsTracker[_from][_toGet];\n        require(index != 0, \"Request does not exist\");\n        return requests[_from][index];\n    }\n    \n    /**\n     * @dev Adds a friend request to the requests mapping\n     */\n    function _addRequest(address _to, FriendRequest memory _from) internal {\n        requests[_to].push(_from);\n        uint index = requests[_to].length;\n        requestsTracker[_to][_from.sender] = index;\n    }\n    \n    /**\n     * @dev Removes a friend request from the requests mapping\n     */\n    function _removeRequest(address _from, address _toRemove) internal {\n        require(requests[_from].length > 0, \"There are no requests to remove\");\n        // Index of the element to remove\n        uint index = requestsTracker[_from][_toRemove] - 1;\n        uint lastIndex = requests[_from].length - 1;\n        \n        if(index != lastIndex){\n            // Last friend inside the array\n            FriendRequest memory last = requests[_from][lastIndex];\n            // Change the last with the element to remove\n            requests[_from][index] = last;\n            // Update the Index\n            requestsTracker[_from][last.sender] = index + 1;\n        }\n        \n        // Clear the previous index by setting the maximum integer\n        requestsTracker[_from][_toRemove] = MAX_UINT;\n        \n        // Reduce the size of the array by 1\n        requests[_from].pop();\n    }\n\n    /**\n     * @dev Add a new friend request\n     */\n    function makeRequest(address to, string memory encryptedKey) public {\n        uint index = requestsTracker[to][msg.sender];\n        require(index == 0 || index == MAX_UINT, \"Request already sent\");\n\n        _addRequest(\n            to,\n            FriendRequest(msg.sender, encryptedKey)\n        );\n\n        emit FriendRequestSent(to);\n    }\n    \n    /**\n     * @dev Accept a friend request\n     */\n    function acceptRequest(address to, string memory encryptedKey) public {\n        uint friendRequestIndex = requestsTracker[msg.sender][to];\n        \n        // Check if the friend request has already been removed\n        require(friendRequestIndex != MAX_UINT, \"Friend request has been removed\");\n        \n        // Check if the request exist\n        FriendRequest memory friendRequest = requests[msg.sender][friendRequestIndex -1];\n        require(friendRequest.sender != address(0), \"Request does not exist\");\n        \n        // Current sender\n        Friend memory receiverFriend = Friend(\n            to,\n            friendRequest.encryptedKey\n        );\n        \n        // Original sender of the request\n        Friend memory senderFriend = Friend(\n            msg.sender,\n            encryptedKey\n        );\n        \n        _removeRequest(msg.sender, friendRequest.sender);\n        _addFriend(msg.sender, receiverFriend);\n        _addFriend(friendRequest.sender, senderFriend);\n\n        emit FriendRequestAccepted(to);\n    }\n\n    /**\n     * @dev Deny a friend request\n     */\n    function denyRequest(address to) public {\n        uint friendRequestIndex = requestsTracker[msg.sender][to];\n        \n        // Check if the friend request exist\n        require(friendRequestIndex != 0, \"Request does not exist\");\n        \n        // Check if the friend request has already been removed\n        require(friendRequestIndex != MAX_UINT, \"Friend request has been removed\");\n        \n        _removeRequest(msg.sender, to);\n\n        emit FriendRequestDenied(to);\n    }\n\n    /**\n     * @dev Remove a friend request\n     */\n    function removeRequest(address to) public {\n        uint index = requestsTracker[to][msg.sender];\n        require(index != 0, \"Request do not exsist\");\n\n        _removeRequest(to, msg.sender);\n    }\n\n    /**\n     * @dev Remove a friend\n     */\n    function removeFriend(address _toRemove) public {\n        uint index = friendsTracker[msg.sender][_toRemove];\n        require(index != 0, \"Friend do not exsist\");\n\n        _removeFriend(msg.sender, _toRemove);\n        _removeFriend(_toRemove, msg.sender);\n    }\n    \n    /**\n     * @dev Returns the friends list related to the msg.sender\n     */\n    function getFriends() public view returns (Friend[] memory) {\n        return friends[msg.sender];\n    }\n    \n    /**\n     * @dev Returns the requests list related directed to the msg.sender\n     */\n    function getRequests() public view returns (FriendRequest[] memory) {\n        return requests[msg.sender];\n    }\n}",
  "sourcePath": "/Users/mtumiati/Knobs/satellite/Vault74-Contracts/contracts/Friends.sol",
  "compiler": {
    "name": "solc",
    "version": "0.7.6+commit.7338295f.Emscripten.clang"
  },
  "schemaVersion": "3.3.4",
  "updatedAt": "2021-05-04T09:56:22.202Z",
  "networkType": "ethereum",
  "devdoc": {
    "details": "Maps friend requests along with associated threadIDs",
    "kind": "dev",
    "methods": {
      "acceptRequest(address,string)": {
        "details": "Accept a friend request"
      },
      "calculateAddress(bytes)": {
        "details": "Converts the given public key to ethereum address",
        "returns": {
          "addr": "addr"
        }
      },
      "constructor": {
        "details": "Create a new Friends contract"
      },
      "denyRequest(address)": {
        "details": "Deny a friend request"
      },
      "getFriends()": {
        "details": "Returns the friends list related to the msg.sender"
      },
      "getRequests()": {
        "details": "Returns the requests list related directed to the msg.sender"
      },
      "makeRequest(address,string)": {
        "details": "Add a new friend request"
      },
      "removeFriend(address)": {
        "details": "Remove a friend"
      },
      "removeRequest(address)": {
        "details": "Remove a friend request"
      }
    },
    "title": "FriendRequester",
    "version": 1
  },
  "userdoc": {
    "kind": "user",
    "methods": {},
    "version": 1
  }
}