{
  "contractName": "Server",
  "abi": [
    {
      "inputs": [
        {
          "internalType": "bytes32",
          "name": "_name",
          "type": "bytes32"
        },
        {
          "internalType": "address",
          "name": "_dweller",
          "type": "address"
        }
      ],
      "stateMutability": "nonpayable",
      "type": "constructor"
    },
    {
      "anonymous": false,
      "inputs": [
        {
          "indexed": true,
          "internalType": "address",
          "name": "admin",
          "type": "address"
        }
      ],
      "name": "AdminAdded",
      "type": "event"
    },
    {
      "anonymous": false,
      "inputs": [
        {
          "indexed": true,
          "internalType": "address",
          "name": "admin",
          "type": "address"
        }
      ],
      "name": "AdminRemoved",
      "type": "event"
    },
    {
      "anonymous": false,
      "inputs": [
        {
          "indexed": true,
          "internalType": "bytes32",
          "name": "name",
          "type": "bytes32"
        },
        {
          "indexed": true,
          "internalType": "uint8",
          "name": "typeId",
          "type": "uint8"
        }
      ],
      "name": "ChannelCreated",
      "type": "event"
    },
    {
      "anonymous": false,
      "inputs": [
        {
          "indexed": true,
          "internalType": "bytes32",
          "name": "name",
          "type": "bytes32"
        }
      ],
      "name": "ChannelDeleted",
      "type": "event"
    },
    {
      "anonymous": false,
      "inputs": [
        {
          "indexed": true,
          "internalType": "bytes32",
          "name": "groupName",
          "type": "bytes32"
        },
        {
          "indexed": true,
          "internalType": "bytes32",
          "name": "channelName",
          "type": "bytes32"
        }
      ],
      "name": "ChannelGrouped",
      "type": "event"
    },
    {
      "anonymous": false,
      "inputs": [
        {
          "indexed": true,
          "internalType": "bytes32",
          "name": "groupName",
          "type": "bytes32"
        }
      ],
      "name": "ChannelRemovedFromGroup",
      "type": "event"
    },
    {
      "anonymous": false,
      "inputs": [
        {
          "indexed": true,
          "internalType": "address",
          "name": "dweller",
          "type": "address"
        }
      ],
      "name": "DwellerSet",
      "type": "event"
    },
    {
      "anonymous": false,
      "inputs": [
        {
          "indexed": true,
          "internalType": "bytes32",
          "name": "groupName",
          "type": "bytes32"
        }
      ],
      "name": "GroupCreated",
      "type": "event"
    },
    {
      "anonymous": false,
      "inputs": [
        {
          "indexed": true,
          "internalType": "bytes32",
          "name": "groupName",
          "type": "bytes32"
        }
      ],
      "name": "GroupDeleted",
      "type": "event"
    },
    {
      "anonymous": false,
      "inputs": [
        {
          "indexed": true,
          "internalType": "address",
          "name": "member",
          "type": "address"
        }
      ],
      "name": "MemberInvited",
      "type": "event"
    },
    {
      "anonymous": false,
      "inputs": [
        {
          "indexed": true,
          "internalType": "address",
          "name": "member",
          "type": "address"
        }
      ],
      "name": "MemberJoined",
      "type": "event"
    },
    {
      "anonymous": false,
      "inputs": [
        {
          "indexed": true,
          "internalType": "address",
          "name": "member",
          "type": "address"
        }
      ],
      "name": "MemberLeft",
      "type": "event"
    },
    {
      "anonymous": false,
      "inputs": [
        {
          "indexed": true,
          "internalType": "address",
          "name": "member",
          "type": "address"
        }
      ],
      "name": "MemberRevoked",
      "type": "event"
    },
    {
      "anonymous": false,
      "inputs": [
        {
          "indexed": true,
          "internalType": "bytes32",
          "name": "name",
          "type": "bytes32"
        }
      ],
      "name": "NameChanged",
      "type": "event"
    },
    {
      "anonymous": false,
      "inputs": [
        {
          "indexed": true,
          "internalType": "bytes32",
          "name": "photoHash1",
          "type": "bytes32"
        },
        {
          "indexed": true,
          "internalType": "bytes32",
          "name": "photoHash2",
          "type": "bytes32"
        }
      ],
      "name": "PhotoSet",
      "type": "event"
    },
    {
      "inputs": [
        {
          "internalType": "address",
          "name": "",
          "type": "address"
        }
      ],
      "name": "administrators",
      "outputs": [
        {
          "internalType": "bool",
          "name": "",
          "type": "bool"
        }
      ],
      "stateMutability": "view",
      "type": "function"
    },
    {
      "inputs": [
        {
          "internalType": "bytes32",
          "name": "",
          "type": "bytes32"
        }
      ],
      "name": "channelTypes",
      "outputs": [
        {
          "internalType": "uint8",
          "name": "",
          "type": "uint8"
        }
      ],
      "stateMutability": "view",
      "type": "function"
    },
    {
      "inputs": [
        {
          "internalType": "uint256",
          "name": "",
          "type": "uint256"
        }
      ],
      "name": "channels",
      "outputs": [
        {
          "internalType": "bytes32",
          "name": "",
          "type": "bytes32"
        }
      ],
      "stateMutability": "view",
      "type": "function"
    },
    {
      "inputs": [
        {
          "internalType": "bytes32",
          "name": "",
          "type": "bytes32"
        },
        {
          "internalType": "uint256",
          "name": "",
          "type": "uint256"
        }
      ],
      "name": "groupings",
      "outputs": [
        {
          "internalType": "bytes32",
          "name": "",
          "type": "bytes32"
        }
      ],
      "stateMutability": "view",
      "type": "function"
    },
    {
      "inputs": [
        {
          "internalType": "uint256",
          "name": "",
          "type": "uint256"
        }
      ],
      "name": "groups",
      "outputs": [
        {
          "internalType": "bytes32",
          "name": "",
          "type": "bytes32"
        }
      ],
      "stateMutability": "view",
      "type": "function"
    },
    {
      "inputs": [
        {
          "internalType": "address",
          "name": "",
          "type": "address"
        }
      ],
      "name": "memberStatus",
      "outputs": [
        {
          "internalType": "bool",
          "name": "",
          "type": "bool"
        }
      ],
      "stateMutability": "view",
      "type": "function"
    },
    {
      "inputs": [
        {
          "internalType": "uint256",
          "name": "",
          "type": "uint256"
        }
      ],
      "name": "members",
      "outputs": [
        {
          "internalType": "address",
          "name": "",
          "type": "address"
        }
      ],
      "stateMutability": "view",
      "type": "function"
    },
    {
      "inputs": [],
      "name": "name",
      "outputs": [
        {
          "internalType": "bytes32",
          "name": "",
          "type": "bytes32"
        }
      ],
      "stateMutability": "view",
      "type": "function"
    },
    {
      "inputs": [],
      "name": "registry",
      "outputs": [
        {
          "internalType": "address",
          "name": "",
          "type": "address"
        }
      ],
      "stateMutability": "view",
      "type": "function"
    },
    {
      "inputs": [],
      "name": "getMembers",
      "outputs": [
        {
          "internalType": "address[]",
          "name": "",
          "type": "address[]"
        }
      ],
      "stateMutability": "view",
      "type": "function"
    },
    {
      "inputs": [],
      "name": "getChannels",
      "outputs": [
        {
          "internalType": "bytes32[]",
          "name": "",
          "type": "bytes32[]"
        }
      ],
      "stateMutability": "view",
      "type": "function"
    },
    {
      "inputs": [],
      "name": "getGroups",
      "outputs": [
        {
          "internalType": "bytes32[]",
          "name": "",
          "type": "bytes32[]"
        }
      ],
      "stateMutability": "view",
      "type": "function"
    },
    {
      "inputs": [],
      "name": "getPhoto",
      "outputs": [
        {
          "internalType": "bytes",
          "name": "",
          "type": "bytes"
        }
      ],
      "stateMutability": "view",
      "type": "function"
    },
    {
      "inputs": [],
      "name": "getDBHash",
      "outputs": [
        {
          "internalType": "bytes",
          "name": "",
          "type": "bytes"
        }
      ],
      "stateMutability": "view",
      "type": "function"
    },
    {
      "inputs": [
        {
          "internalType": "uint256",
          "name": "indx",
          "type": "uint256"
        }
      ],
      "name": "getMemberAtIndex",
      "outputs": [
        {
          "internalType": "address",
          "name": "",
          "type": "address"
        }
      ],
      "stateMutability": "view",
      "type": "function"
    },
    {
      "inputs": [
        {
          "internalType": "bytes32",
          "name": "_name",
          "type": "bytes32"
        },
        {
          "internalType": "uint8",
          "name": "typeId",
          "type": "uint8"
        }
      ],
      "name": "addChannel",
      "outputs": [],
      "stateMutability": "nonpayable",
      "type": "function"
    },
    {
      "inputs": [
        {
          "internalType": "uint256",
          "name": "indx",
          "type": "uint256"
        }
      ],
      "name": "delChannel",
      "outputs": [],
      "stateMutability": "nonpayable",
      "type": "function"
    },
    {
      "inputs": [
        {
          "internalType": "bytes32",
          "name": "groupName",
          "type": "bytes32"
        }
      ],
      "name": "createGroup",
      "outputs": [],
      "stateMutability": "nonpayable",
      "type": "function"
    },
    {
      "inputs": [
        {
          "internalType": "uint256",
          "name": "indx",
          "type": "uint256"
        }
      ],
      "name": "delGroup",
      "outputs": [],
      "stateMutability": "nonpayable",
      "type": "function"
    },
    {
      "inputs": [
        {
          "internalType": "bytes32",
          "name": "groupName",
          "type": "bytes32"
        },
        {
          "internalType": "bytes32",
          "name": "channelName",
          "type": "bytes32"
        }
      ],
      "name": "addChannelToGroup",
      "outputs": [],
      "stateMutability": "nonpayable",
      "type": "function"
    },
    {
      "inputs": [
        {
          "internalType": "bytes32",
          "name": "groupName",
          "type": "bytes32"
        },
        {
          "internalType": "uint256",
          "name": "channelIndex",
          "type": "uint256"
        }
      ],
      "name": "removeChannelFromGroup",
      "outputs": [],
      "stateMutability": "nonpayable",
      "type": "function"
    },
    {
      "inputs": [
        {
          "internalType": "address",
          "name": "admin",
          "type": "address"
        }
      ],
      "name": "addAdmin",
      "outputs": [],
      "stateMutability": "nonpayable",
      "type": "function"
    },
    {
      "inputs": [
        {
          "internalType": "address",
          "name": "admin",
          "type": "address"
        }
      ],
      "name": "removeAdmin",
      "outputs": [],
      "stateMutability": "nonpayable",
      "type": "function"
    },
    {
      "inputs": [
        {
          "internalType": "address",
          "name": "member",
          "type": "address"
        }
      ],
      "name": "join",
      "outputs": [],
      "stateMutability": "nonpayable",
      "type": "function"
    },
    {
      "inputs": [
        {
          "internalType": "uint256",
          "name": "indx",
          "type": "uint256"
        }
      ],
      "name": "leave",
      "outputs": [],
      "stateMutability": "nonpayable",
      "type": "function"
    },
    {
      "inputs": [
        {
          "internalType": "address",
          "name": "member",
          "type": "address"
        }
      ],
      "name": "inviteMember",
      "outputs": [],
      "stateMutability": "nonpayable",
      "type": "function"
    },
    {
      "inputs": [
        {
          "internalType": "address",
          "name": "member",
          "type": "address"
        }
      ],
      "name": "revokeMember",
      "outputs": [],
      "stateMutability": "nonpayable",
      "type": "function"
    },
    {
      "inputs": [
        {
          "internalType": "bytes32",
          "name": "_name",
          "type": "bytes32"
        }
      ],
      "name": "setName",
      "outputs": [],
      "stateMutability": "nonpayable",
      "type": "function"
    },
    {
      "inputs": [
        {
          "internalType": "bytes32[2]",
          "name": "hash",
          "type": "bytes32[2]"
        }
      ],
      "name": "setPhoto",
      "outputs": [],
      "stateMutability": "nonpayable",
      "type": "function"
    },
    {
      "inputs": [
        {
          "internalType": "bytes32[2]",
          "name": "hash",
          "type": "bytes32[2]"
        }
      ],
      "name": "setDBHash",
      "outputs": [],
      "stateMutability": "nonpayable",
      "type": "function"
    }
  ],
  "bytecode": "0x608060405234801561001057600080fd5b5060405161256a38038061256a8339818101604052604081101561003357600080fd5b810190808051906020019092919080519060200190929190505050336000806101000a81548173ffffffffffffffffffffffffffffffffffffffff021916908373ffffffffffffffffffffffffffffffffffffffff16021790555080600160006101000a81548173ffffffffffffffffffffffffffffffffffffffff021916908373ffffffffffffffffffffffffffffffffffffffff16021790555081600281905550600160096000600160009054906101000a900473ffffffffffffffffffffffffffffffffffffffff1673ffffffffffffffffffffffffffffffffffffffff1673ffffffffffffffffffffffffffffffffffffffff16815260200190815260200160002060006101000a81548160ff0219169083151502179055506007819080600181540180825580915050600190039060005260206000200160009091909190916101000a81548173ffffffffffffffffffffffffffffffffffffffff021916908373ffffffffffffffffffffffffffffffffffffffff160217905550600160009054906101000a900473ffffffffffffffffffffffffffffffffffffffff1673ffffffffffffffffffffffffffffffffffffffff167f7ad616c31c10c22596ef8cf9862a7806725e419456cfef5415b40f0c04f0c27760405160405180910390a2600160009054906101000a900473ffffffffffffffffffffffffffffffffffffffff1673ffffffffffffffffffffffffffffffffffffffff167f44d6d25963f097ad14f29f06854a01f575648a1ef82f30e562ccd3889717e33960405160405180910390a250506122dc8061028e6000396000f3fe608060405234801561001057600080fd5b50600436106101da5760003560e01c80638f12c19611610104578063b45bea01116100a2578063dcd496e211610071578063dcd496e214610938578063e5949b5d1461099d578063f8024d10146109df578063ffa2475e14610a37576101da565b8063b45bea0114610838578063c72b517614610873578063cd8b9b7c146108d2578063d425065f14610900576101da565b806396324bd4116100de57806396324bd4146106915780639eab5253146106d3578063acaa298214610732578063b2ec005e146107b5576101da565b80638f12c196146105d657806394638da5146106045780639575f6ac14610632576101da565b806364afef301161017c5780637a9750901161014b5780637a975090146104da5780637b103999146105125780637dc16839146105465780638adf23b914610592576101da565b806364afef30146103b457806367dfd4c91461040e578063704802751461043c57806376be158514610480576101da565b80632f890b93116101b85780632f890b93146102855780634907aba0146102c95780635ac801fe1461032e5780635daf08ca1461035c576101da565b806306fdde03146101df5780631785f53c146101fd57806328ffe6c814610241575b600080fd5b6101e7610a7c565b6040518082815260200191505060405180910390f35b61023f6004803603602081101561021357600080fd5b81019080803573ffffffffffffffffffffffffffffffffffffffff169060200190929190505050610a82565b005b6102836004803603602081101561025757600080fd5b81019080803573ffffffffffffffffffffffffffffffffffffffff169060200190929190505050610c8a565b005b6102c76004803603602081101561029b57600080fd5b81019080803573ffffffffffffffffffffffffffffffffffffffff169060200190929190505050610e80565b005b61032c600480360360408110156102df57600080fd5b8101908080604001906002806020026040519081016040528092919082600260200280828437600081840152601f19601f8201169050808301925050505050509192919290505050610fdd565b005b61035a6004803603602081101561034457600080fd5b8101908080359060200190929190505050611101565b005b6103886004803603602081101561037257600080fd5b81019080803590602001909291905050506111f7565b604051808273ffffffffffffffffffffffffffffffffffffffff16815260200191505060405180910390f35b6103f6600480360360208110156103ca57600080fd5b81019080803573ffffffffffffffffffffffffffffffffffffffff169060200190929190505050611236565b60405180821515815260200191505060405180910390f35b61043a6004803603602081101561042457600080fd5b8101908080359060200190929190505050611256565b005b61047e6004803603602081101561045257600080fd5b81019080803573ffffffffffffffffffffffffffffffffffffffff1690602001909291905050506113b1565b005b6104c26004803603602081101561049657600080fd5b81019080803573ffffffffffffffffffffffffffffffffffffffff169060200190929190505050611512565b60405180821515815260200191505060405180910390f35b610510600480360360408110156104f057600080fd5b810190808035906020019092919080359060200190929190505050611532565b005b61051a61165d565b604051808273ffffffffffffffffffffffffffffffffffffffff16815260200191505060405180910390f35b61057c6004803603604081101561055c57600080fd5b810190808035906020019092919080359060200190929190505050611681565b6040518082815260200191505060405180910390f35b6105d4600480360360208110156105a857600080fd5b81019080803573ffffffffffffffffffffffffffffffffffffffff1690602001909291905050506116b2565b005b610602600480360360208110156105ec57600080fd5b810190808035906020019092919050505061180f565b005b6106306004803603602081101561061a57600080fd5b8101908080359060200190929190505050611927565b005b61063a611a71565b6040518080602001828103825283818151815260200191508051906020019060200280838360005b8381101561067d578082015181840152602081019050610662565b505050509050019250505060405180910390f35b6106bd600480360360208110156106a757600080fd5b8101908080359060200190929190505050611ac9565b6040518082815260200191505060405180910390f35b6106db611aed565b6040518080602001828103825283818151815260200191508051906020019060200280838360005b8381101561071e578082015181840152602081019050610703565b505050509050019250505060405180910390f35b61073a611b7b565b6040518080602001828103825283818151815260200191508051906020019080838360005b8381101561077a57808201518184015260208101905061075f565b50505050905090810190601f1680156107a75780820380516001836020036101000a031916815260200191505b509250505060405180910390f35b6107bd611be4565b6040518080602001828103825283818151815260200191508051906020019080838360005b838110156107fd5780820151818401526020810190506107e2565b50505050905090810190601f16801561082a5780820380516001836020036101000a031916815260200191505b509250505060405180910390f35b6108716004803603604081101561084e57600080fd5b8101908080359060200190929190803560ff169060200190929190505050611c4d565b005b61087b611d96565b6040518080602001828103825283818151815260200191508051906020019060200280838360005b838110156108be5780820151818401526020810190506108a3565b505050509050019250505060405180910390f35b6108fe600480360360208110156108e857600080fd5b8101908080359060200190929190505050611dee565b005b6109366004803603604081101561091657600080fd5b810190808035906020019092919080359060200190929190505050611f34565b005b61099b6004803603604081101561094e57600080fd5b8101908080604001906002806020026040519081016040528092919082600260200280828437600081840152601f19601f8201169050808301925050505050509192919290505050612050565b005b6109c9600480360360208110156109b357600080fd5b8101908080359060200190929190505050612174565b6040518082815260200191505060405180910390f35b610a0b600480360360208110156109f557600080fd5b8101908080359060200190929190505050612198565b604051808273ffffffffffffffffffffffffffffffffffffffff16815260200191505060405180910390f35b610a6360048036036020811015610a4d57600080fd5b81019080803590602001909291905050506121d9565b604051808260ff16815260200191505060405180910390f35b60025481565b600160009054906101000a900473ffffffffffffffffffffffffffffffffffffffff1673ffffffffffffffffffffffffffffffffffffffff163373ffffffffffffffffffffffffffffffffffffffff1614610b45576040517f08c379a00000000000000000000000000000000000000000000000000000000081526004018080602001828103825260208152602001807f4e6f7420746865206477656c6c657220776527726520657870656374696e672e81525060200191505060405180910390fd5b600160009054906101000a900473ffffffffffffffffffffffffffffffffffffffff1673ffffffffffffffffffffffffffffffffffffffff168173ffffffffffffffffffffffffffffffffffffffff161415610bec576040517f08c379a00000000000000000000000000000000000000000000000000000000081526004018080602001828103825260238152602001806122386023913960400191505060405180910390fd5b6000600960008373ffffffffffffffffffffffffffffffffffffffff1673ffffffffffffffffffffffffffffffffffffffff16815260200190815260200160002060006101000a81548160ff0219169083151502179055508073ffffffffffffffffffffffffffffffffffffffff167fa3b62bc36326052d97ea62d63c3d60308ed4c3ea8ac079dd8499f1e9c4f80c0f60405160405180910390a250565b60008054906101000a900473ffffffffffffffffffffffffffffffffffffffff1673ffffffffffffffffffffffffffffffffffffffff163373ffffffffffffffffffffffffffffffffffffffff1614610d2e576040517f08c379a000000000000000000000000000000000000000000000000000000000815260040180806020018281038252602381526020018061225b6023913960400191505060405180910390fd5b60011515600860008373ffffffffffffffffffffffffffffffffffffffff1673ffffffffffffffffffffffffffffffffffffffff16815260200190815260200160002060009054906101000a900460ff16151514610dd7576040517f08c379a000000000000000000000000000000000000000000000000000000000815260040180806020018281038252602981526020018061227e6029913960400191505060405180910390fd5b6007819080600181540180825580915050600190039060005260206000200160009091909190916101000a81548173ffffffffffffffffffffffffffffffffffffffff021916908373ffffffffffffffffffffffffffffffffffffffff1602179055508073ffffffffffffffffffffffffffffffffffffffff167f0abf3b3f643594d958297062a019458e27d7766629590ac621aa1000fa1298ab60405160405180910390a250565b600960003373ffffffffffffffffffffffffffffffffffffffff1673ffffffffffffffffffffffffffffffffffffffff16815260200190815260200160002060009054906101000a900460ff16610f3f576040517f08c379a000000000000000000000000000000000000000000000000000000000815260040180806020018281038252601a8152602001807f4e6f7420617574686f72697a656420746f20646f20746861742e00000000000081525060200191505060405180910390fd5b6001600860008373ffffffffffffffffffffffffffffffffffffffff1673ffffffffffffffffffffffffffffffffffffffff16815260200190815260200160002060006101000a81548160ff0219169083151502179055508073ffffffffffffffffffffffffffffffffffffffff167fc45331953289455b6552aec540792d4ab36cb2b0923c6402ce8f5bb3206fd55160405160405180910390a250565b600960003373ffffffffffffffffffffffffffffffffffffffff1673ffffffffffffffffffffffffffffffffffffffff16815260200190815260200160002060009054906101000a900460ff1661109c576040517f08c379a000000000000000000000000000000000000000000000000000000000815260040180806020018281038252601a8152602001807f4e6f7420617574686f72697a656420746f20646f20746861742e00000000000081525060200191505060405180910390fd5b806000600281106110a957fe5b6020020151600381905550806001600281106110c157fe5b60200201516004819055506004546003547fb1101f1c17bd0104e6b31706b3268944399b3ee606cb859f3563ff3e184025ce60405160405180910390a350565b600960003373ffffffffffffffffffffffffffffffffffffffff1673ffffffffffffffffffffffffffffffffffffffff16815260200190815260200160002060009054906101000a900460ff166111c0576040517f08c379a000000000000000000000000000000000000000000000000000000000815260040180806020018281038252601a8152602001807f4e6f7420617574686f72697a656420746f20646f20746861742e00000000000081525060200191505060405180910390fd5b807fb0a4d76c825dc814a59c1a90f520a677f3f0843980294ef90afe1d7616a1cf7060405160405180910390a28060028190555050565b6007818154811061120757600080fd5b906000526020600020016000915054906101000a900473ffffffffffffffffffffffffffffffffffffffff1681565b60086020528060005260406000206000915054906101000a900460ff1681565b60008054906101000a900473ffffffffffffffffffffffffffffffffffffffff1673ffffffffffffffffffffffffffffffffffffffff163373ffffffffffffffffffffffffffffffffffffffff16146112fa576040517f08c379a000000000000000000000000000000000000000000000000000000000815260040180806020018281038252602381526020018061225b6023913960400191505060405180910390fd5b6007818154811061130757fe5b9060005260206000200160006101000a81549073ffffffffffffffffffffffffffffffffffffffff02191690556007818154811061134157fe5b9060005260206000200160009054906101000a900473ffffffffffffffffffffffffffffffffffffffff1673ffffffffffffffffffffffffffffffffffffffff167fbea911b50ccdd2233b28faa49766c3cbd0631608f32e5a724d7b83b32b681ad060405160405180910390a250565b600160009054906101000a900473ffffffffffffffffffffffffffffffffffffffff1673ffffffffffffffffffffffffffffffffffffffff163373ffffffffffffffffffffffffffffffffffffffff1614611474576040517f08c379a00000000000000000000000000000000000000000000000000000000081526004018080602001828103825260208152602001807f4e6f7420746865206477656c6c657220776527726520657870656374696e672e81525060200191505060405180910390fd5b6001600960008373ffffffffffffffffffffffffffffffffffffffff1673ffffffffffffffffffffffffffffffffffffffff16815260200190815260200160002060006101000a81548160ff0219169083151502179055508073ffffffffffffffffffffffffffffffffffffffff167f44d6d25963f097ad14f29f06854a01f575648a1ef82f30e562ccd3889717e33960405160405180910390a250565b60096020528060005260406000206000915054906101000a900460ff1681565b600960003373ffffffffffffffffffffffffffffffffffffffff1673ffffffffffffffffffffffffffffffffffffffff16815260200190815260200160002060009054906101000a900460ff166115f1576040517f08c379a000000000000000000000000000000000000000000000000000000000815260040180806020018281038252601a8152602001807f4e6f7420617574686f72697a656420746f20646f20746861742e00000000000081525060200191505060405180910390fd5b600d600083815260200190815260200160002081908060018154018082558091505060019003906000526020600020016000909190919091505580827f546e9fb79eaf9a3211963312983fb663b2502766181ef2c7009a87e335f5451760405160405180910390a35050565b60008054906101000a900473ffffffffffffffffffffffffffffffffffffffff1681565b600d602052816000526040600020818154811061169d57600080fd5b90600052602060002001600091509150505481565b600960003373ffffffffffffffffffffffffffffffffffffffff1673ffffffffffffffffffffffffffffffffffffffff16815260200190815260200160002060009054906101000a900460ff16611771576040517f08c379a000000000000000000000000000000000000000000000000000000000815260040180806020018281038252601a8152602001807f4e6f7420617574686f72697a656420746f20646f20746861742e00000000000081525060200191505060405180910390fd5b6000600860008373ffffffffffffffffffffffffffffffffffffffff1673ffffffffffffffffffffffffffffffffffffffff16815260200190815260200160002060006101000a81548160ff0219169083151502179055508073ffffffffffffffffffffffffffffffffffffffff167f745cd29407db644ed93e3ceb61cbcab96d1dfb496989ac5d5bf514fc5a9fab9c60405160405180910390a250565b600960003373ffffffffffffffffffffffffffffffffffffffff1673ffffffffffffffffffffffffffffffffffffffff16815260200190815260200160002060009054906101000a900460ff166118ce576040517f08c379a000000000000000000000000000000000000000000000000000000000815260040180806020018281038252601a8152602001807f4e6f7420617574686f72697a656420746f20646f20746861742e00000000000081525060200191505060405180910390fd5b600c819080600181540180825580915050600190039060005260206000200160009091909190915055807f68f2001f3d21c00cd78cc99ed066e602521463b601394d6b4b0664ceed39461160405160405180910390a250565b600960003373ffffffffffffffffffffffffffffffffffffffff1673ffffffffffffffffffffffffffffffffffffffff16815260200190815260200160002060009054906101000a900460ff166119e6576040517f08c379a000000000000000000000000000000000000000000000000000000000815260040180806020018281038252601a8152602001807f4e6f7420617574686f72697a656420746f20646f20746861742e00000000000081525060200191505060405180910390fd5b6000600a82815481106119f557fe5b90600052602060002001549050600a8281548110611a0f57fe5b9060005260206000200160009055600b600082815260200190815260200160002060006101000a81549060ff0219169055807f5de34b3ec8e5a6a0329f529aa00c1f5e33b45ee79d414001e68e4a0179d7412e60405160405180910390a25050565b6060600a805480602002602001604051908101604052809291908181526020018280548015611abf57602002820191906000526020600020905b815481526020019060010190808311611aab575b5050505050905090565b600c8181548110611ad957600080fd5b906000526020600020016000915090505481565b60606007805480602002602001604051908101604052809291908181526020018280548015611b7157602002820191906000526020600020905b8160009054906101000a900473ffffffffffffffffffffffffffffffffffffffff1673ffffffffffffffffffffffffffffffffffffffff1681526020019060010190808311611b27575b5050505050905090565b60606000604067ffffffffffffffff81118015611b9757600080fd5b506040519080825280601f01601f191660200182016040528015611bca5781602001600182028036833780820191505090505b509050600554602082015260065460408201528091505090565b60606000604067ffffffffffffffff81118015611c0057600080fd5b506040519080825280601f01601f191660200182016040528015611c335781602001600182028036833780820191505090505b509050600354602082015260045460408201528091505090565b600960003373ffffffffffffffffffffffffffffffffffffffff1673ffffffffffffffffffffffffffffffffffffffff16815260200190815260200160002060009054906101000a900460ff16611d0c576040517f08c379a000000000000000000000000000000000000000000000000000000000815260040180806020018281038252601a8152602001807f4e6f7420617574686f72697a656420746f20646f20746861742e00000000000081525060200191505060405180910390fd5b600a82908060018154018082558091505060019003906000526020600020016000909190919091505580600b600084815260200190815260200160002060006101000a81548160ff021916908360ff1602179055508060ff16827f1c13b30228b6d19b2bac97346da74380ac7e838dd8d172451d3e39a8c6c2b65c60405160405180910390a35050565b6060600c805480602002602001604051908101604052809291908181526020018280548015611de457602002820191906000526020600020905b815481526020019060010190808311611dd0575b5050505050905090565b600960003373ffffffffffffffffffffffffffffffffffffffff1673ffffffffffffffffffffffffffffffffffffffff16815260200190815260200160002060009054906101000a900460ff16611ead576040517f08c379a000000000000000000000000000000000000000000000000000000000815260040180806020018281038252601a8152602001807f4e6f7420617574686f72697a656420746f20646f20746861742e00000000000081525060200191505060405180910390fd5b6000600c8281548110611ebc57fe5b90600052602060002001549050600d60008281526020019081526020016000206000611ee891906121f9565b600c8281548110611ef557fe5b9060005260206000200160009055807fb263dc5411a180f49f3c853fbfe2c39f8c88eab0bce5b71c01fc966cd25c5b4b60405160405180910390a25050565b600960003373ffffffffffffffffffffffffffffffffffffffff1673ffffffffffffffffffffffffffffffffffffffff16815260200190815260200160002060009054906101000a900460ff16611ff3576040517f08c379a000000000000000000000000000000000000000000000000000000000815260040180806020018281038252601a8152602001807f4e6f7420617574686f72697a656420746f20646f20746861742e00000000000081525060200191505060405180910390fd5b600d6000838152602001908152602001600020818154811061201157fe5b9060005260206000200160009055817f127f1c981a721f1c2dce3d0810d2412cfcaffe97b2d5fc40abd41779805b5b3c60405160405180910390a25050565b600960003373ffffffffffffffffffffffffffffffffffffffff1673ffffffffffffffffffffffffffffffffffffffff16815260200190815260200160002060009054906101000a900460ff1661210f576040517f08c379a000000000000000000000000000000000000000000000000000000000815260040180806020018281038252601a8152602001807f4e6f7420617574686f72697a656420746f20646f20746861742e00000000000081525060200191505060405180910390fd5b8060006002811061211c57fe5b60200201516005819055508060016002811061213457fe5b60200201516006819055506006546005547fb1101f1c17bd0104e6b31706b3268944399b3ee606cb859f3563ff3e184025ce60405160405180910390a350565b600a818154811061218457600080fd5b906000526020600020016000915090505481565b6000600782815481106121a757fe5b9060005260206000200160009054906101000a900473ffffffffffffffffffffffffffffffffffffffff169050919050565b600b6020528060005260406000206000915054906101000a900460ff1681565b5080546000825590600052602060002090810190612217919061221a565b50565b5b8082111561223357600081600090555060010161221b565b509056fe596f752063616e27742072656d6f766520746865206f776e65722061732061646d696e4f6e6c7920746865207265676973747279206d6179206578656375746520746869732e4d656d626572206e6f7420617574686f72697a656420746f206a6f696e20746865207365727665722ea26469706673582212202e6176a312c2fd99c4fb50d9576c57ce7bf296ed15c228ed13e8df011183fa2964736f6c63430007060033",
  "immutableReferences": {},
  "source": "// SPDX-License-Identifier: MIT\npragma solidity >=0.7.0 <0.8.0;\n\nimport \"./Vault74Registry.sol\";\n\n/**\n * @title Server\n * @dev Identifies a Vault74 server used to communicate with many dwellers\n */\ncontract Server {\n    // The parent registry that created this server contract\n    address public registry;\n    // The dweller represents the owner of this server\n    address private dweller;\n    // This is the display name of the server\n    bytes32 public name;\n    // Optional photo identification of the server\n    // Stored as a split Multihash referencing IPFS hash of servers photo\n    bytes32 private photoHash1;\n    bytes32 private photoHash2;\n    // Optional additional info access hash\n    bytes32 private dbHash1;\n    bytes32 private dbHash2;\n    // Server memebers whom have joined\n    address[] public members;\n    // Check a eth address to see if the member has access\n    // if they do, they will have a truthy bool set\n    mapping(address => bool) public memberStatus;\n    // Administrators\n    mapping(address => bool) public administrators;\n    // Channels\n    bytes32[] public channels;\n    // Name -> TypeId\n    mapping(bytes32 => uint8) public channelTypes;\n    // Used to store channels in specific groups\n    bytes32[] public groups;\n    mapping(bytes32 => bytes32[]) public groupings;\n\n    /**\n     * Events\n     */\n    // Internal\n    event DwellerSet(address indexed dweller);\n    // Information\n    event NameChanged(bytes32 indexed name);\n    event PhotoSet (\n        bytes32 indexed photoHash1,\n        bytes32 indexed photoHash2\n    );\n    // Members & Roles\n    event MemberInvited(address indexed member);\n    event MemberJoined(address indexed member);\n    event MemberLeft(address indexed member);\n    event AdminAdded(address indexed admin);\n    event AdminRemoved(address indexed admin);\n    event MemberRevoked(address indexed member);\n    // Groups\n    event GroupCreated(bytes32 indexed groupName);\n    event GroupDeleted(bytes32 indexed groupName);\n    event ChannelGrouped(bytes32 indexed groupName, bytes32 indexed channelName);\n    event ChannelRemovedFromGroup(bytes32 indexed groupName);\n    // Channels\n    event ChannelCreated(\n        bytes32 indexed name,\n        uint8 indexed typeId\n    );\n    event ChannelDeleted( bytes32 indexed name);\n    \n    /**\n     * @dev Set contract deployer as dweller (owner)\n     * @param _name What should we call your server?\n     */\n    constructor(bytes32 _name, address _dweller) {\n        registry = msg.sender;\n        dweller = _dweller;\n        name = _name;\n        // Set the owner as an administrator\n        administrators[dweller] = true;\n        members.push(_dweller);\n        // Emit events\n        emit DwellerSet(dweller);\n        emit AdminAdded(dweller);\n    }\n\n    /**\n     * Modifiers\n     */\n\n    // modifier to check if caller is owner\n    modifier isOwner() {\n        require(msg.sender == dweller, \"Not the dweller we're expecting.\");\n        _;\n    }\n    // modifier to check if caller is owner\n    modifier isRegistry() {\n        require(msg.sender == registry, \"Only the registry may execute this.\");\n        _;\n    }\n    // modifier to check if caller is admin\n    modifier isAdmin() {\n        require(administrators[msg.sender], \"Not authorized to do that.\");\n        _;\n    }\n    \n    /**\n     * Getters\n     */\n    \n    function getMembers() \n        public\n        view\n        returns (address[] memory)\n    {\n        return members;\n    }\n    \n    function getChannels() \n        public\n        view\n        returns (bytes32[] memory)\n    {\n        return channels;\n    }\n    \n    function getGroups() \n        public\n        view\n        returns (bytes32[] memory)\n    {\n        return groups;\n    }\n\n    /**\n     * @dev Get the servers's photo IPFS hash\n     * @return server photo IPFS hash\n     */\n    function getPhoto() \n        public \n        view \n        returns (bytes memory) \n    {\n        bytes memory joined = new bytes(64);\n        // Join the two hash parts of photos IPFS hash\n        assembly {\n            mstore(add(joined, 32), sload(photoHash1.slot))\n            mstore(add(joined, 64), sload(photoHash2.slot))\n        }\n        return joined; \n    }\n\n    /**\n     * @dev Get the servers's photo IPFS hash\n     * @return server photo IPFS hash\n     */\n    function getDBHash() \n        public \n        view \n        returns (bytes memory) \n    {\n        bytes memory joined = new bytes(64);\n        // Join the two hash parts\n        assembly {\n            mstore(add(joined, 32), sload(dbHash1.slot))\n            mstore(add(joined, 64), sload(dbHash2.slot))\n        }\n        return joined; \n    }\n    \n    function getMemberAtIndex(uint indx)\n        public\n        view\n        returns (address) \n    {\n        return members[indx];\n    }\n\n    /**\n     * Setters\n     */\n\n    // Channels\n    function addChannel(bytes32 _name, uint8 typeId) \n        public\n        isAdmin\n    {\n        channels.push(_name);\n        channelTypes[_name] = typeId;\n        emit ChannelCreated(_name, typeId);\n    }\n\n    function delChannel(uint indx) \n        public\n        isAdmin\n    {\n        bytes32 channelName = channels[indx];\n        delete channels[indx];\n        delete channelTypes[channelName];\n        emit ChannelDeleted(channelName);\n    }\n    \n    // Groups\n    function createGroup(bytes32 groupName) \n        public\n        isAdmin\n    {\n        groups.push(groupName);\n        emit GroupCreated(groupName);\n    }\n\n    function delGroup(uint indx) \n        public\n        isAdmin\n    {\n        bytes32 groupName = groups[indx];\n        delete groupings[groupName];\n        delete groups[indx];\n        emit GroupDeleted(groupName);\n    }\n\n    function addChannelToGroup(bytes32 groupName, bytes32 channelName)\n        public\n        isAdmin\n    {\n        groupings[groupName].push(channelName);\n        emit ChannelGrouped(groupName, channelName);\n    }\n\n    function removeChannelFromGroup(bytes32 groupName, uint channelIndex)\n        public\n        isAdmin\n    {\n        delete groupings[groupName][channelIndex];\n        emit ChannelRemovedFromGroup(groupName);\n    }\n\n    // Roles\n    function addAdmin(address admin) \n        public\n        isOwner\n    {\n        administrators[admin] = true;\n        emit AdminAdded(admin);\n    }\n\n    function removeAdmin(address admin) \n        public\n        isOwner\n    {\n        require(admin != dweller, \"You can't remove the owner as admin\");\n        administrators[admin] = false;\n        emit AdminRemoved(admin);\n    }\n\n    // Members\n    function join(address member) \n        public\n        isRegistry\n    {\n        require(memberStatus[member] == true, \"Member not authorized to join the server.\");\n        members.push(member);\n        emit MemberJoined(member);\n    }\n    \n    function leave(uint indx)\n        public\n        isRegistry\n    {\n        delete members[indx];\n        emit MemberLeft(members[indx]);\n    }\n    \n    function inviteMember(address member)\n        public\n        isAdmin\n    {\n        memberStatus[member] = true;\n        emit MemberInvited(member);\n    }\n\n    function revokeMember(address member)\n        public\n        isAdmin\n    {\n        memberStatus[member] = false;\n        emit MemberRevoked(member);\n    }\n\n    /**\n     * @dev Change servers's display name\n     * @param _name What should we call your server\n     */\n    function setName(bytes32 _name)\n        public\n        isAdmin\n    {\n        emit NameChanged(_name);\n        name = _name;\n    }\n\n    /**\n     * @dev Change servers's display photo. Consider using PNG or JPEG photos for usability.\n     * @param hash split multihash referencing the IPFS hash for the photo\n     */\n    function setPhoto(bytes32[2] memory hash) \n        public \n        isAdmin \n    {\n        photoHash1 = hash[0];\n        photoHash2 = hash[1];\n        emit PhotoSet(photoHash1, photoHash2);\n    }\n    \n    /**\n     * @dev Change dweller's display photo. Consider using PNG or JPEG photos for usability.\n     * @param hash split multihash\n     */\n    function setDBHash(bytes32[2] memory hash) \n        public \n        isAdmin \n    {\n        dbHash1 = hash[0];\n        dbHash2 = hash[1];\n        emit PhotoSet(dbHash1, dbHash2);\n    }\n}",
  "sourcePath": "/Users/mtumiati/Knobs/satellite/Vault74-Contracts/contracts/Server.sol",
  "compiler": {
    "name": "solc",
    "version": "0.7.6+commit.7338295f.Emscripten.clang"
  },
  "schemaVersion": "3.3.4",
  "updatedAt": "2021-04-04T19:48:01.623Z",
  "devdoc": {
    "details": "Identifies a Vault74 server used to communicate with many dwellers",
    "kind": "dev",
    "methods": {
      "constructor": {
        "details": "Set contract deployer as dweller (owner)",
        "params": {
          "_name": "What should we call your server?"
        }
      },
      "getDBHash()": {
        "details": "Get the servers's photo IPFS hash",
        "returns": {
          "_0": "server photo IPFS hash"
        }
      },
      "getPhoto()": {
        "details": "Get the servers's photo IPFS hash",
        "returns": {
          "_0": "server photo IPFS hash"
        }
      },
      "setDBHash(bytes32[2])": {
        "details": "Change dweller's display photo. Consider using PNG or JPEG photos for usability.",
        "params": {
          "hash": "split multihash"
        }
      },
      "setName(bytes32)": {
        "details": "Change servers's display name",
        "params": {
          "_name": "What should we call your server"
        }
      },
      "setPhoto(bytes32[2])": {
        "details": "Change servers's display photo. Consider using PNG or JPEG photos for usability.",
        "params": {
          "hash": "split multihash referencing the IPFS hash for the photo"
        }
      }
    },
    "title": "Server",
    "version": 1
  },
  "userdoc": {
    "events": {
      "DwellerSet(address)": {
        "notice": "Events"
      }
    },
    "kind": "user",
    "methods": {
      "addChannel(bytes32,uint8)": {
        "notice": "Setters"
      },
      "getMembers()": {
        "notice": "Getters"
      }
    },
    "version": 1
  }
}