{
  "contractName": "StickerFactory",
  "abi": [
    {
      "inputs": [],
      "stateMutability": "nonpayable",
      "type": "constructor"
    },
    {
      "anonymous": false,
      "inputs": [
        {
          "indexed": true,
          "internalType": "address",
          "name": "setAddress",
          "type": "address"
        },
        {
          "indexed": true,
          "internalType": "address",
          "name": "creator",
          "type": "address"
        }
      ],
      "name": "NewSticker",
      "type": "event"
    },
    {
      "inputs": [
        {
          "internalType": "address",
          "name": "",
          "type": "address"
        }
      ],
      "name": "artists",
      "outputs": [
        {
          "internalType": "address",
          "name": "addr",
          "type": "address"
        },
        {
          "internalType": "string",
          "name": "name",
          "type": "string"
        },
        {
          "internalType": "string",
          "name": "signature",
          "type": "string"
        },
        {
          "internalType": "string",
          "name": "description",
          "type": "string"
        }
      ],
      "stateMutability": "view",
      "type": "function"
    },
    {
      "inputs": [
        {
          "internalType": "string",
          "name": "tokenName",
          "type": "string"
        },
        {
          "internalType": "string",
          "name": "tokenSymbol",
          "type": "string"
        },
        {
          "internalType": "uint256",
          "name": "limit",
          "type": "uint256"
        },
        {
          "internalType": "string",
          "name": "uri",
          "type": "string"
        },
        {
          "internalType": "uint256",
          "name": "initialPrice",
          "type": "uint256"
        }
      ],
      "name": "createSticker",
      "outputs": [],
      "stateMutability": "nonpayable",
      "type": "function"
    },
    {
      "inputs": [],
      "name": "getAvailableSets",
      "outputs": [
        {
          "internalType": "address[]",
          "name": "",
          "type": "address[]"
        }
      ],
      "stateMutability": "view",
      "type": "function"
    },
    {
      "inputs": [
        {
          "internalType": "address",
          "name": "artistAddr",
          "type": "address"
        },
        {
          "internalType": "string",
          "name": "name",
          "type": "string"
        },
        {
          "internalType": "string",
          "name": "signature",
          "type": "string"
        },
        {
          "internalType": "string",
          "name": "description",
          "type": "string"
        }
      ],
      "name": "registerArtist",
      "outputs": [],
      "stateMutability": "nonpayable",
      "type": "function"
    }
  ],
  "bytecode": "0x608060405234801561001057600080fd5b50336000806101000a81548173ffffffffffffffffffffffffffffffffffffffff021916908373ffffffffffffffffffffffffffffffffffffffff160217905550614b77806100606000396000f3fe60806040523480156200001157600080fd5b5060043610620000525760003560e01c8063069dab8f146200005757806317cd4403146200021557806325d2cd1c146200041e578063d23489e41462000633575b600080fd5b6200009c600480360360208110156200006f57600080fd5b81019080803573ffffffffffffffffffffffffffffffffffffffff16906020019092919050505062000696565b604051808573ffffffffffffffffffffffffffffffffffffffff168152602001806020018060200180602001848103845287818151815260200191508051906020019080838360005b8381101562000102578082015181840152602081019050620000e5565b50505050905090810190601f168015620001305780820380516001836020036101000a031916815260200191505b50848103835286818151815260200191508051906020019080838360005b838110156200016b5780820151818401526020810190506200014e565b50505050905090810190601f168015620001995780820380516001836020036101000a031916815260200191505b50848103825285818151815260200191508051906020019080838360005b83811015620001d4578082015181840152602081019050620001b7565b50505050905090810190601f168015620002025780820380516001836020036101000a031916815260200191505b5097505050505050505060405180910390f35b6200041c600480360360a08110156200022d57600080fd5b81019080803590602001906401000000008111156200024b57600080fd5b8201836020820111156200025e57600080fd5b803590602001918460018302840111640100000000831117156200028157600080fd5b91908080601f016020809104026020016040519081016040528093929190818152602001838380828437600081840152601f19601f82011690508083019250505050505050919291929080359060200190640100000000811115620002e557600080fd5b820183602082011115620002f857600080fd5b803590602001918460018302840111640100000000831117156200031b57600080fd5b91908080601f016020809104026020016040519081016040528093929190818152602001838380828437600081840152601f19601f82011690508083019250505050505050919291929080359060200190929190803590602001906401000000008111156200038957600080fd5b8201836020820111156200039c57600080fd5b80359060200191846001830284011164010000000083111715620003bf57600080fd5b91908080601f016020809104026020016040519081016040528093929190818152602001838380828437600081840152601f19601f82011690508083019250505050505050919291929080359060200190929190505050620008ba565b005b62000631600480360360808110156200043657600080fd5b81019080803573ffffffffffffffffffffffffffffffffffffffff169060200190929190803590602001906401000000008111156200047457600080fd5b8201836020820111156200048757600080fd5b80359060200191846001830284011164010000000083111715620004aa57600080fd5b91908080601f016020809104026020016040519081016040528093929190818152602001838380828437600081840152601f19601f820116905080830192505050505050509192919290803590602001906401000000008111156200050e57600080fd5b8201836020820111156200052157600080fd5b803590602001918460018302840111640100000000831117156200054457600080fd5b91908080601f016020809104026020016040519081016040528093929190818152602001838380828437600081840152601f19601f82011690508083019250505050505050919291929080359060200190640100000000811115620005a857600080fd5b820183602082011115620005bb57600080fd5b80359060200191846001830284011164010000000083111715620005de57600080fd5b91908080601f016020809104026020016040519081016040528093929190818152602001838380828437600081840152601f19601f82011690508083019250505050505050919291929050505062000b8b565b005b6200063d62000d76565b6040518080602001828103825283818151815260200191508051906020019060200280838360005b838110156200068257808201518184015260208101905062000665565b505050509050019250505060405180910390f35b60026020528060005260406000206000915090508060000160009054906101000a900473ffffffffffffffffffffffffffffffffffffffff1690806001018054600181600116156101000203166002900480601f0160208091040260200160405190810160405280929190818152602001828054600181600116156101000203166002900480156200076c5780601f1062000740576101008083540402835291602001916200076c565b820191906000526020600020905b8154815290600101906020018083116200074e57829003601f168201915b505050505090806002018054600181600116156101000203166002900480601f0160208091040260200160405190810160405280929190818152602001828054600181600116156101000203166002900480156200080e5780601f10620007e2576101008083540402835291602001916200080e565b820191906000526020600020905b815481529060010190602001808311620007f057829003601f168201915b505050505090806003018054600181600116156101000203166002900480601f016020809104026020016040519081016040528092919081815260200182805460018160011615610100020316600290048015620008b05780601f106200088457610100808354040283529160200191620008b0565b820191906000526020600020905b8154815290600101906020018083116200089257829003601f168201915b5050505050905084565b6000831162000915576040517f08c379a000000000000000000000000000000000000000000000000000000000815260040180806020018281038252602181526020018062004b216021913960400191505060405180910390fd5b60008585858533866040516200092b9062000e06565b808060200180602001878152602001806020018673ffffffffffffffffffffffffffffffffffffffff16815260200185815260200184810384528a818151815260200191508051906020019080838360005b838110156200099a5780820151818401526020810190506200097d565b50505050905090810190601f168015620009c85780820380516001836020036101000a031916815260200191505b50848103835289818151815260200191508051906020019080838360005b8381101562000a03578082015181840152602081019050620009e6565b50505050905090810190601f16801562000a315780820380516001836020036101000a031916815260200191505b50848103825287818151815260200191508051906020019080838360005b8381101562000a6c57808201518184015260208101905062000a4f565b50505050905090810190601f16801562000a9a5780820380516001836020036101000a031916815260200191505b509950505050505050505050604051809103906000f08015801562000ac3573d6000803e3d6000fd5b5090506001819080600181540180825580915050600190039060005260206000200160009091909190916101000a81548173ffffffffffffffffffffffffffffffffffffffff021916908373ffffffffffffffffffffffffffffffffffffffff1602179055503373ffffffffffffffffffffffffffffffffffffffff168173ffffffffffffffffffffffffffffffffffffffff167f10a424e58b6ce7054ab70d1495ae04d1254609906abb7eb33d4729d281883ad460405160405180910390a3505050505050565b60008054906101000a900473ffffffffffffffffffffffffffffffffffffffff1673ffffffffffffffffffffffffffffffffffffffff163373ffffffffffffffffffffffffffffffffffffffff161462000c4d576040517f08c379a000000000000000000000000000000000000000000000000000000000815260040180806020018281038252600b8152602001807f4e6f7420616c6c6f77656400000000000000000000000000000000000000000081525060200191505060405180910390fd5b600060405180608001604052808673ffffffffffffffffffffffffffffffffffffffff16815260200185815260200184815260200183815250905080600260008773ffffffffffffffffffffffffffffffffffffffff1673ffffffffffffffffffffffffffffffffffffffff16815260200190815260200160002060008201518160000160006101000a81548173ffffffffffffffffffffffffffffffffffffffff021916908373ffffffffffffffffffffffffffffffffffffffff160217905550602082015181600101908051906020019062000d2d92919062000e14565b50604082015181600201908051906020019062000d4c92919062000e14565b50606082015181600301908051906020019062000d6b92919062000e14565b509050505050505050565b6060600180548060200260200160405190810160405280929190818152602001828054801562000dfc57602002820191906000526020600020905b8160009054906101000a900473ffffffffffffffffffffffffffffffffffffffff1673ffffffffffffffffffffffffffffffffffffffff168152602001906001019080831162000db1575b5050505050905090565b613c568062000ecb83390190565b828054600181600116156101000203166002900490600052602060002090601f01602090048101928262000e4c576000855562000e98565b82601f1062000e6757805160ff191683800117855562000e98565b8280016001018555821562000e98579182015b8281111562000e9757825182559160200191906001019062000e7a565b5b50905062000ea7919062000eab565b5090565b5b8082111562000ec657600081600090555060010162000eac565b509056fe60806040523480156200001157600080fd5b5060405162003c5638038062003c56833981810160405260c08110156200003757600080fd5b81019080805160405193929190846401000000008211156200005857600080fd5b838201915060208201858111156200006f57600080fd5b82518660018202830111640100000000821117156200008d57600080fd5b8083526020830192505050908051906020019080838360005b83811015620000c3578082015181840152602081019050620000a6565b50505050905090810190601f168015620000f15780820380516001836020036101000a031916815260200191505b50604052602001805160405193929190846401000000008211156200011557600080fd5b838201915060208201858111156200012c57600080fd5b82518660018202830111640100000000821117156200014a57600080fd5b8083526020830192505050908051906020019080838360005b838110156200018057808201518184015260208101905062000163565b50505050905090810190601f168015620001ae5780820380516001836020036101000a031916815260200191505b506040526020018051906020019092919080516040519392919084640100000000821115620001dc57600080fd5b83820191506020820185811115620001f357600080fd5b82518660018202830111640100000000821117156200021157600080fd5b8083526020830192505050908051906020019080838360005b83811015620002475780820151818401526020810190506200022a565b50505050905090810190601f168015620002755780820380516001836020036101000a031916815260200191505b5060405260200180519060200190929190805190602001909291905050508585620002ad6301ffc9a760e01b620003a660201b60201c565b8160069080519060200190620002c592919062000b7f565b508060079080519060200190620002de92919062000b7f565b50620002f76380ac58cd60e01b620003a660201b60201c565b6200030f635b5e139f60e01b620003a660201b60201c565b6200032763780e9d6360e01b620003a660201b60201c565b505081600b60006101000a81548173ffffffffffffffffffffffffffffffffffffffff021916908373ffffffffffffffffffffffffffffffffffffffff16021790555083600c8190555080600d819055506200038983620004af60201b60201c565b6200039a82620004cb60201b60201c565b50505050505062000c35565b63ffffffff60e01b817bffffffffffffffffffffffffffffffffffffffffffffffffffffffff1916141562000443576040517f08c379a000000000000000000000000000000000000000000000000000000000815260040180806020018281038252601c8152602001807f4552433136353a20696e76616c696420696e746572666163652069640000000081525060200191505060405180910390fd5b6001600080837bffffffffffffffffffffffffffffffffffffffffffffffffffffffff19167bffffffffffffffffffffffffffffffffffffffffffffffffffffffff1916815260200190815260200160002060006101000a81548160ff02191690831515021790555050565b8060099080519060200190620004c792919062000b7f565b5050565b600c54620004e5600a620005c260201b620018e71760201c565b1062000559576040517f08c379a00000000000000000000000000000000000000000000000000000000081526004018080602001828103825260168152602001807f4e6f206d6f726520746f6b656e7320746f206d696e740000000000000000000081525060200191505060405180910390fd5b600062000572600a620005c260201b620018e71760201c565b9050620005868282620005d060201b60201c565b620005a7816200059b620007e460201b60201c565b6200088a60201b60201c565b620005be600a6200092060201b620018f51760201c565b5050565b600081600001549050919050565b600073ffffffffffffffffffffffffffffffffffffffff168273ffffffffffffffffffffffffffffffffffffffff16141562000674576040517f08c379a00000000000000000000000000000000000000000000000000000000081526004018080602001828103825260208152602001807f4552433732313a206d696e7420746f20746865207a65726f206164647265737381525060200191505060405180910390fd5b62000685816200093660201b60201c565b15620006f9576040517f08c379a000000000000000000000000000000000000000000000000000000000815260040180806020018281038252601c8152602001807f4552433732313a20746f6b656e20616c7265616479206d696e7465640000000081525060200191505060405180910390fd5b6200070d600083836200095a60201b60201c565b6200076581600160008573ffffffffffffffffffffffffffffffffffffffff1673ffffffffffffffffffffffffffffffffffffffff1681526020019081526020016000206200095f60201b6200190b1790919060201c565b5062000783818360026200098160201b62001925179092919060201c565b50808273ffffffffffffffffffffffffffffffffffffffff16600073ffffffffffffffffffffffffffffffffffffffff167fddf252ad1be2c89b69c2b068fc378daa952ba7f163c4a11628f55a4df523b3ef60405160405180910390a45050565b606060098054600181600116156101000203166002900480601f016020809104026020016040519081016040528092919081815260200182805460018160011615610100020316600290048015620008805780601f10620008545761010080835404028352916020019162000880565b820191906000526020600020905b8154815290600101906020018083116200086257829003601f168201915b5050505050905090565b6200089b826200093660201b60201c565b620008f2576040517f08c379a000000000000000000000000000000000000000000000000000000000815260040180806020018281038252602c81526020018062003c2a602c913960400191505060405180910390fd5b806008600084815260200190815260200160002090805190602001906200091b92919062000b7f565b505050565b6001816000016000828254019250508190555050565b600062000953826002620009be60201b6200195a1790919060201c565b9050919050565b505050565b600062000979836000018360001b620009e060201b60201c565b905092915050565b6000620009b5846000018460001b8473ffffffffffffffffffffffffffffffffffffffff1660001b62000a5a60201b60201c565b90509392505050565b6000620009d8836000018360001b62000b3960201b60201c565b905092915050565b6000620009f4838362000b5c60201b60201c565b62000a4f57826000018290806001815401808255809150506001900390600052602060002001600090919091909150558260000180549050836001016000848152602001908152602001600020819055506001905062000a54565b600090505b92915050565b600080846001016000858152602001908152602001600020549050600081141562000b035784600001604051806040016040528086815260200185815250908060018154018082558091505060019003906000526020600020906002020160009091909190915060008201518160000155602082015181600101555050846000018054905085600101600086815260200190815260200160002081905550600191505062000b32565b8285600001600183038154811062000b1757fe5b90600052602060002090600202016001018190555060009150505b9392505050565b600080836001016000848152602001908152602001600020541415905092915050565b600080836001016000848152602001908152602001600020541415905092915050565b828054600181600116156101000203166002900490600052602060002090601f01602090048101928262000bb7576000855562000c03565b82601f1062000bd257805160ff191683800117855562000c03565b8280016001018555821562000c03579182015b8281111562000c0257825182559160200191906001019062000be5565b5b50905062000c12919062000c16565b5090565b5b8082111562000c3157600081600090555060010162000c17565b5090565b612fe58062000c456000396000f3fe60806040526004361061013f5760003560e01c80634f6ccce7116100b6578063a035b1fe1161006f578063a035b1fe1461076a578063a22cb46514610795578063b88d4fde146107f2578063c87b56dd14610904578063d5abeb01146109b8578063e985e9c5146109e35761013f565b80634f6ccce7146104f65780636352211e146105455780636c0360eb146105aa57806370a082311461063a57806391b7f5ed1461069f57806395d89b41146106da5761013f565b8063095ea7b311610108578063095ea7b3146102f457806318160ddd1461034f57806323b872dd1461037a5780632f745c59146103f557806342842e0e146104645780634e71d92d146104df5761013f565b8062e0b0f81461014457806301ffc9a71461014e57806302d05d3f146101be57806306fdde03146101ff578063081812fc1461028f575b600080fd5b61014c610a6a565b005b34801561015a57600080fd5b506101a66004803603602081101561017157600080fd5b8101908080357bffffffffffffffffffffffffffffffffffffffffffffffffffffffff19169060200190929190505050610aec565b60405180821515815260200191505060405180910390f35b3480156101ca57600080fd5b506101d3610b53565b604051808273ffffffffffffffffffffffffffffffffffffffff16815260200191505060405180910390f35b34801561020b57600080fd5b50610214610b79565b6040518080602001828103825283818151815260200191508051906020019080838360005b83811015610254578082015181840152602081019050610239565b50505050905090810190601f1680156102815780820380516001836020036101000a031916815260200191505b509250505060405180910390f35b34801561029b57600080fd5b506102c8600480360360208110156102b257600080fd5b8101908080359060200190929190505050610c1b565b604051808273ffffffffffffffffffffffffffffffffffffffff16815260200191505060405180910390f35b34801561030057600080fd5b5061034d6004803603604081101561031757600080fd5b81019080803573ffffffffffffffffffffffffffffffffffffffff16906020019092919080359060200190929190505050610cb6565b005b34801561035b57600080fd5b50610364610dfa565b6040518082815260200191505060405180910390f35b34801561038657600080fd5b506103f36004803603606081101561039d57600080fd5b81019080803573ffffffffffffffffffffffffffffffffffffffff169060200190929190803573ffffffffffffffffffffffffffffffffffffffff16906020019092919080359060200190929190505050610e0b565b005b34801561040157600080fd5b5061044e6004803603604081101561041857600080fd5b81019080803573ffffffffffffffffffffffffffffffffffffffff16906020019092919080359060200190929190505050610e81565b6040518082815260200191505060405180910390f35b34801561047057600080fd5b506104dd6004803603606081101561048757600080fd5b81019080803573ffffffffffffffffffffffffffffffffffffffff169060200190929190803573ffffffffffffffffffffffffffffffffffffffff16906020019092919080359060200190929190505050610edc565b005b3480156104eb57600080fd5b506104f4610efc565b005b34801561050257600080fd5b5061052f6004803603602081101561051957600080fd5b8101908080359060200190929190505050611008565b6040518082815260200191505060405180910390f35b34801561055157600080fd5b5061057e6004803603602081101561056857600080fd5b810190808035906020019092919050505061102b565b604051808273ffffffffffffffffffffffffffffffffffffffff16815260200191505060405180910390f35b3480156105b657600080fd5b506105bf611062565b6040518080602001828103825283818151815260200191508051906020019080838360005b838110156105ff5780820151818401526020810190506105e4565b50505050905090810190601f16801561062c5780820380516001836020036101000a031916815260200191505b509250505060405180910390f35b34801561064657600080fd5b506106896004803603602081101561065d57600080fd5b81019080803573ffffffffffffffffffffffffffffffffffffffff169060200190929190505050611104565b6040518082815260200191505060405180910390f35b3480156106ab57600080fd5b506106d8600480360360208110156106c257600080fd5b81019080803590602001909291905050506111d9565b005b3480156106e657600080fd5b506106ef6112a6565b6040518080602001828103825283818151815260200191508051906020019080838360005b8381101561072f578082015181840152602081019050610714565b50505050905090810190601f16801561075c5780820380516001836020036101000a031916815260200191505b509250505060405180910390f35b34801561077657600080fd5b5061077f611348565b6040518082815260200191505060405180910390f35b3480156107a157600080fd5b506107f0600480360360408110156107b857600080fd5b81019080803573ffffffffffffffffffffffffffffffffffffffff16906020019092919080351515906020019092919050505061134e565b005b3480156107fe57600080fd5b506109026004803603608081101561081557600080fd5b81019080803573ffffffffffffffffffffffffffffffffffffffff169060200190929190803573ffffffffffffffffffffffffffffffffffffffff169060200190929190803590602001909291908035906020019064010000000081111561087c57600080fd5b82018360208201111561088e57600080fd5b803590602001918460018302840111640100000000831117156108b057600080fd5b91908080601f016020809104026020016040519081016040528093929190818152602001838380828437600081840152601f19601f820116905080830192505050505050509192919290505050611504565b005b34801561091057600080fd5b5061093d6004803603602081101561092757600080fd5b810190808035906020019092919050505061157c565b6040518080602001828103825283818151815260200191508051906020019080838360005b8381101561097d578082015181840152602081019050610962565b50505050905090810190601f1680156109aa5780820380516001836020036101000a031916815260200191505b509250505060405180910390f35b3480156109c457600080fd5b506109cd61184d565b6040518082815260200191505060405180910390f35b3480156109ef57600080fd5b50610a5260048036036040811015610a0657600080fd5b81019080803573ffffffffffffffffffffffffffffffffffffffff169060200190929190803573ffffffffffffffffffffffffffffffffffffffff169060200190929190505050611853565b60405180821515815260200191505060405180910390f35b600d543414610ae1576040517f08c379a00000000000000000000000000000000000000000000000000000000081526004018080602001828103825260178152602001807f50726963652076616c7565206e6f74207265616368656400000000000000000081525060200191505060405180910390fd5b610aea33611974565b565b6000806000837bffffffffffffffffffffffffffffffffffffffffffffffffffffffff19167bffffffffffffffffffffffffffffffffffffffffffffffffffffffff1916815260200190815260200160002060009054906101000a900460ff169050919050565b600b60009054906101000a900473ffffffffffffffffffffffffffffffffffffffff1681565b606060068054600181600116156101000203166002900480601f016020809104026020016040519081016040528092919081815260200182805460018160011615610100020316600290048015610c115780601f10610be657610100808354040283529160200191610c11565b820191906000526020600020905b815481529060010190602001808311610bf457829003601f168201915b5050505050905090565b6000610c2682611a2b565b610c7b576040517f08c379a000000000000000000000000000000000000000000000000000000000815260040180806020018281038252602c815260200180612eae602c913960400191505060405180910390fd5b6004600083815260200190815260200160002060009054906101000a900473ffffffffffffffffffffffffffffffffffffffff169050919050565b6000610cc18261102b565b90508073ffffffffffffffffffffffffffffffffffffffff168373ffffffffffffffffffffffffffffffffffffffff161415610d48576040517f08c379a0000000000000000000000000000000000000000000000000000000008152600401808060200182810382526021815260200180612f5e6021913960400191505060405180910390fd5b8073ffffffffffffffffffffffffffffffffffffffff16610d67611a48565b73ffffffffffffffffffffffffffffffffffffffff161480610d965750610d9581610d90611a48565b611853565b5b610deb576040517f08c379a0000000000000000000000000000000000000000000000000000000008152600401808060200182810382526038815260200180612e016038913960400191505060405180910390fd5b610df58383611a50565b505050565b6000610e066002611b09565b905090565b610e1c610e16611a48565b82611b1e565b610e71576040517f08c379a0000000000000000000000000000000000000000000000000000000008152600401808060200182810382526031815260200180612f7f6031913960400191505060405180910390fd5b610e7c838383611c12565b505050565b6000610ed482600160008673ffffffffffffffffffffffffffffffffffffffff1673ffffffffffffffffffffffffffffffffffffffff168152602001908152602001600020611e5590919063ffffffff16565b905092915050565b610ef783838360405180602001604052806000815250611504565b505050565b600b60009054906101000a900473ffffffffffffffffffffffffffffffffffffffff1673ffffffffffffffffffffffffffffffffffffffff163373ffffffffffffffffffffffffffffffffffffffff1614610fbf576040517f08c379a000000000000000000000000000000000000000000000000000000000815260040180806020018281038252600b8152602001807f4e6f7420616c6c6f77656400000000000000000000000000000000000000000081525060200191505060405180910390fd5b3373ffffffffffffffffffffffffffffffffffffffff166108fc479081150290604051600060405180830381858888f19350505050158015611005573d6000803e3d6000fd5b50565b60008061101f836002611e6f90919063ffffffff16565b50905080915050919050565b600061105b82604051806060016040528060298152602001612e63602991396002611e9b9092919063ffffffff16565b9050919050565b606060098054600181600116156101000203166002900480601f0160208091040260200160405190810160405280929190818152602001828054600181600116156101000203166002900480156110fa5780601f106110cf576101008083540402835291602001916110fa565b820191906000526020600020905b8154815290600101906020018083116110dd57829003601f168201915b5050505050905090565b60008073ffffffffffffffffffffffffffffffffffffffff168273ffffffffffffffffffffffffffffffffffffffff16141561118b576040517f08c379a000000000000000000000000000000000000000000000000000000000815260040180806020018281038252602a815260200180612e39602a913960400191505060405180910390fd5b6111d2600160008473ffffffffffffffffffffffffffffffffffffffff1673ffffffffffffffffffffffffffffffffffffffff168152602001908152602001600020611eba565b9050919050565b600b60009054906101000a900473ffffffffffffffffffffffffffffffffffffffff1673ffffffffffffffffffffffffffffffffffffffff163373ffffffffffffffffffffffffffffffffffffffff161461129c576040517f08c379a000000000000000000000000000000000000000000000000000000000815260040180806020018281038252600b8152602001807f4e6f7420616c6c6f77656400000000000000000000000000000000000000000081525060200191505060405180910390fd5b80600d8190555050565b606060078054600181600116156101000203166002900480601f01602080910402602001604051908101604052809291908181526020018280546001816001161561010002031660029004801561133e5780601f106113135761010080835404028352916020019161133e565b820191906000526020600020905b81548152906001019060200180831161132157829003601f168201915b5050505050905090565b600d5481565b611356611a48565b73ffffffffffffffffffffffffffffffffffffffff168273ffffffffffffffffffffffffffffffffffffffff1614156113f7576040517f08c379a00000000000000000000000000000000000000000000000000000000081526004018080602001828103825260198152602001807f4552433732313a20617070726f766520746f2063616c6c65720000000000000081525060200191505060405180910390fd5b8060056000611404611a48565b73ffffffffffffffffffffffffffffffffffffffff1673ffffffffffffffffffffffffffffffffffffffff16815260200190815260200160002060008473ffffffffffffffffffffffffffffffffffffffff1673ffffffffffffffffffffffffffffffffffffffff16815260200190815260200160002060006101000a81548160ff0219169083151502179055508173ffffffffffffffffffffffffffffffffffffffff166114b1611a48565b73ffffffffffffffffffffffffffffffffffffffff167f17307eab39ab6107e8899845ad3d59bd9653f200f220920489ca2b5937696c318360405180821515815260200191505060405180910390a35050565b61151561150f611a48565b83611b1e565b61156a576040517f08c379a0000000000000000000000000000000000000000000000000000000008152600401808060200182810382526031815260200180612f7f6031913960400191505060405180910390fd5b61157684848484611ecf565b50505050565b606061158782611a2b565b6115dc576040517f08c379a000000000000000000000000000000000000000000000000000000000815260040180806020018281038252602f815260200180612f2f602f913960400191505060405180910390fd5b6000600860008481526020019081526020016000208054600181600116156101000203166002900480601f0160208091040260200160405190810160405280929190818152602001828054600181600116156101000203166002900480156116855780601f1061165a57610100808354040283529160200191611685565b820191906000526020600020905b81548152906001019060200180831161166857829003601f168201915b505050505090506000611696611062565b90506000815114156116ac578192505050611848565b60008251111561177d5780826040516020018083805190602001908083835b602083106116ee57805182526020820191506020810190506020830392506116cb565b6001836020036101000a03801982511681845116808217855250505050505090500182805190602001908083835b6020831061173f578051825260208201915060208101905060208303925061171c565b6001836020036101000a0380198251168184511680821785525050505050509050019250505060405160208183030381529060405292505050611848565b8061178785611f41565b6040516020018083805190602001908083835b602083106117bd578051825260208201915060208101905060208303925061179a565b6001836020036101000a03801982511681845116808217855250505050505090500182805190602001908083835b6020831061180e57805182526020820191506020810190506020830392506117eb565b6001836020036101000a03801982511681845116808217855250505050505090500192505050604051602081830303815290604052925050505b919050565b600c5481565b6000600560008473ffffffffffffffffffffffffffffffffffffffff1673ffffffffffffffffffffffffffffffffffffffff16815260200190815260200160002060008373ffffffffffffffffffffffffffffffffffffffff1673ffffffffffffffffffffffffffffffffffffffff16815260200190815260200160002060009054906101000a900460ff16905092915050565b600081600001549050919050565b6001816000016000828254019250508190555050565b600061191d836000018360001b612088565b905092915050565b6000611951846000018460001b8473ffffffffffffffffffffffffffffffffffffffff1660001b6120f8565b90509392505050565b600061196c836000018360001b6121d4565b905092915050565b600c54611981600a6118e7565b106119f4576040517f08c379a00000000000000000000000000000000000000000000000000000000081526004018080602001828103825260168152602001807f4e6f206d6f726520746f6b656e7320746f206d696e740000000000000000000081525060200191505060405180910390fd5b6000611a00600a6118e7565b9050611a0c82826121f7565b611a1d81611a18611062565b6123eb565b611a27600a6118f5565b5050565b6000611a4182600261195a90919063ffffffff16565b9050919050565b600033905090565b816004600083815260200190815260200160002060006101000a81548173ffffffffffffffffffffffffffffffffffffffff021916908373ffffffffffffffffffffffffffffffffffffffff160217905550808273ffffffffffffffffffffffffffffffffffffffff16611ac38361102b565b73ffffffffffffffffffffffffffffffffffffffff167f8c5be1e5ebec7d5bd14f71427d1e84f3dd0314c0f7b2291e5b200ac8c7c3b92560405160405180910390a45050565b6000611b1782600001612475565b9050919050565b6000611b2982611a2b565b611b7e576040517f08c379a000000000000000000000000000000000000000000000000000000000815260040180806020018281038252602c815260200180612dd5602c913960400191505060405180910390fd5b6000611b898361102b565b90508073ffffffffffffffffffffffffffffffffffffffff168473ffffffffffffffffffffffffffffffffffffffff161480611bf857508373ffffffffffffffffffffffffffffffffffffffff16611be084610c1b565b73ffffffffffffffffffffffffffffffffffffffff16145b80611c095750611c088185611853565b5b91505092915050565b8273ffffffffffffffffffffffffffffffffffffffff16611c328261102b565b73ffffffffffffffffffffffffffffffffffffffff1614611c9e576040517f08c379a0000000000000000000000000000000000000000000000000000000008152600401808060200182810382526029815260200180612f066029913960400191505060405180910390fd5b600073ffffffffffffffffffffffffffffffffffffffff168273ffffffffffffffffffffffffffffffffffffffff161415611d24576040517f08c379a0000000000000000000000000000000000000000000000000000000008152600401808060200182810382526024815260200180612d8b6024913960400191505060405180910390fd5b611d2f838383612486565b611d3a600082611a50565b611d8b81600160008673ffffffffffffffffffffffffffffffffffffffff1673ffffffffffffffffffffffffffffffffffffffff16815260200190815260200160002061248b90919063ffffffff16565b50611ddd81600160008573ffffffffffffffffffffffffffffffffffffffff1673ffffffffffffffffffffffffffffffffffffffff16815260200190815260200160002061190b90919063ffffffff16565b50611df4818360026119259092919063ffffffff16565b50808273ffffffffffffffffffffffffffffffffffffffff168473ffffffffffffffffffffffffffffffffffffffff167fddf252ad1be2c89b69c2b068fc378daa952ba7f163c4a11628f55a4df523b3ef60405160405180910390a4505050565b6000611e6483600001836124a5565b60001c905092915050565b600080600080611e828660000186612528565b915091508160001c8160001c9350935050509250929050565b6000611eae846000018460001b846125c1565b60001c90509392505050565b6000611ec8826000016126b7565b9050919050565b611eda848484611c12565b611ee6848484846126c8565b611f3b576040517f08c379a0000000000000000000000000000000000000000000000000000000008152600401808060200182810382526032815260200180612d596032913960400191505060405180910390fd5b50505050565b60606000821415611f89576040518060400160405280600181526020017f30000000000000000000000000000000000000000000000000000000000000008152509050612083565b600082905060005b60008214611fb3578080600101915050600a8281611fab57fe5b049150611f91565b60008167ffffffffffffffff81118015611fcc57600080fd5b506040519080825280601f01601f191660200182016040528015611fff5781602001600182028036833780820191505090505b50905060006001830390508593505b6000841461207b57600a848161202057fe5b0660300160f81b8282806001900393508151811061203a57fe5b60200101907effffffffffffffffffffffffffffffffffffffffffffffffffffffffffffff1916908160001a905350600a848161207357fe5b04935061200e565b819450505050505b919050565b600061209483836128e1565b6120ed5782600001829080600181540180825580915050600190039060005260206000200160009091909190915055826000018054905083600101600084815260200190815260200160002081905550600190506120f2565b600090505b92915050565b600080846001016000858152602001908152602001600020549050600081141561219f578460000160405180604001604052808681526020018581525090806001815401808255809150506001900390600052602060002090600202016000909190919091506000820151816000015560208201518160010155505084600001805490508560010160008681526020019081526020016000208190555060019150506121cd565b828560000160018303815481106121b257fe5b90600052602060002090600202016001018190555060009150505b9392505050565b600080836001016000848152602001908152602001600020541415905092915050565b600073ffffffffffffffffffffffffffffffffffffffff168273ffffffffffffffffffffffffffffffffffffffff16141561229a576040517f08c379a00000000000000000000000000000000000000000000000000000000081526004018080602001828103825260208152602001807f4552433732313a206d696e7420746f20746865207a65726f206164647265737381525060200191505060405180910390fd5b6122a381611a2b565b15612316576040517f08c379a000000000000000000000000000000000000000000000000000000000815260040180806020018281038252601c8152602001807f4552433732313a20746f6b656e20616c7265616479206d696e7465640000000081525060200191505060405180910390fd5b61232260008383612486565b61237381600160008573ffffffffffffffffffffffffffffffffffffffff1673ffffffffffffffffffffffffffffffffffffffff16815260200190815260200160002061190b90919063ffffffff16565b5061238a818360026119259092919063ffffffff16565b50808273ffffffffffffffffffffffffffffffffffffffff16600073ffffffffffffffffffffffffffffffffffffffff167fddf252ad1be2c89b69c2b068fc378daa952ba7f163c4a11628f55a4df523b3ef60405160405180910390a45050565b6123f482611a2b565b612449576040517f08c379a000000000000000000000000000000000000000000000000000000000815260040180806020018281038252602c815260200180612eda602c913960400191505060405180910390fd5b80600860008481526020019081526020016000209080519060200190612470929190612c8b565b505050565b600081600001805490509050919050565b505050565b600061249d836000018360001b612904565b905092915050565b600081836000018054905011612506576040517f08c379a0000000000000000000000000000000000000000000000000000000008152600401808060200182810382526022815260200180612d376022913960400191505060405180910390fd5b82600001828154811061251557fe5b9060005260206000200154905092915050565b6000808284600001805490501161258a576040517f08c379a0000000000000000000000000000000000000000000000000000000008152600401808060200182810382526022815260200180612e8c6022913960400191505060405180910390fd5b600084600001848154811061259b57fe5b906000526020600020906002020190508060000154816001015492509250509250929050565b60008084600101600085815260200190815260200160002054905060008114158390612688576040517f08c379a00000000000000000000000000000000000000000000000000000000081526004018080602001828103825283818151815260200191508051906020019080838360005b8381101561264d578082015181840152602081019050612632565b50505050905090810190601f16801561267a5780820380516001836020036101000a031916815260200191505b509250505060405180910390fd5b5084600001600182038154811061269b57fe5b9060005260206000209060020201600101549150509392505050565b600081600001805490509050919050565b60006126e98473ffffffffffffffffffffffffffffffffffffffff166129ec565b6126f657600190506128d9565b600061286063150b7a0260e01b61270b611a48565b888787604051602401808573ffffffffffffffffffffffffffffffffffffffff1681526020018473ffffffffffffffffffffffffffffffffffffffff16815260200183815260200180602001828103825283818151815260200191508051906020019080838360005b8381101561278f578082015181840152602081019050612774565b50505050905090810190601f1680156127bc5780820380516001836020036101000a031916815260200191505b5095505050505050604051602081830303815290604052907bffffffffffffffffffffffffffffffffffffffffffffffffffffffff19166020820180517bffffffffffffffffffffffffffffffffffffffffffffffffffffffff8381831617835250505050604051806060016040528060328152602001612d59603291398773ffffffffffffffffffffffffffffffffffffffff166129ff9092919063ffffffff16565b9050600081806020019051602081101561287957600080fd5b8101908080519060200190929190505050905063150b7a0260e01b7bffffffffffffffffffffffffffffffffffffffffffffffffffffffff1916817bffffffffffffffffffffffffffffffffffffffffffffffffffffffff191614925050505b949350505050565b600080836001016000848152602001908152602001600020541415905092915050565b600080836001016000848152602001908152602001600020549050600081146129e0576000600182039050600060018660000180549050039050600086600001828154811061294f57fe5b906000526020600020015490508087600001848154811061296c57fe5b90600052602060002001819055506001830187600101600083815260200190815260200160002081905550866000018054806129a457fe5b600190038181906000526020600020016000905590558660010160008781526020019081526020016000206000905560019450505050506129e6565b60009150505b92915050565b600080823b905060008111915050919050565b6060612a0e8484600085612a17565b90509392505050565b606082471015612a72576040517f08c379a0000000000000000000000000000000000000000000000000000000008152600401808060200182810382526026815260200180612daf6026913960400191505060405180910390fd5b612a7b856129ec565b612aed576040517f08c379a000000000000000000000000000000000000000000000000000000000815260040180806020018281038252601d8152602001807f416464726573733a2063616c6c20746f206e6f6e2d636f6e747261637400000081525060200191505060405180910390fd5b6000808673ffffffffffffffffffffffffffffffffffffffff1685876040518082805190602001908083835b60208310612b3c5780518252602082019150602081019050602083039250612b19565b6001836020036101000a03801982511681845116808217855250505050505090500191505060006040518083038185875af1925050503d8060008114612b9e576040519150601f19603f3d011682016040523d82523d6000602084013e612ba3565b606091505b5091509150612bb3828286612bbf565b92505050949350505050565b60608315612bcf57829050612c84565b600083511115612be25782518084602001fd5b816040517f08c379a00000000000000000000000000000000000000000000000000000000081526004018080602001828103825283818151815260200191508051906020019080838360005b83811015612c49578082015181840152602081019050612c2e565b50505050905090810190601f168015612c765780820380516001836020036101000a031916815260200191505b509250505060405180910390fd5b9392505050565b828054600181600116156101000203166002900490600052602060002090601f016020900481019282612cc15760008555612d08565b82601f10612cda57805160ff1916838001178555612d08565b82800160010185558215612d08579182015b82811115612d07578251825591602001919060010190612cec565b5b509050612d159190612d19565b5090565b5b80821115612d32576000816000905550600101612d1a565b509056fe456e756d657261626c655365743a20696e646578206f7574206f6620626f756e64734552433732313a207472616e7366657220746f206e6f6e20455243373231526563656976657220696d706c656d656e7465724552433732313a207472616e7366657220746f20746865207a65726f2061646472657373416464726573733a20696e73756666696369656e742062616c616e636520666f722063616c6c4552433732313a206f70657261746f7220717565727920666f72206e6f6e6578697374656e7420746f6b656e4552433732313a20617070726f76652063616c6c6572206973206e6f74206f776e6572206e6f7220617070726f76656420666f7220616c6c4552433732313a2062616c616e636520717565727920666f7220746865207a65726f20616464726573734552433732313a206f776e657220717565727920666f72206e6f6e6578697374656e7420746f6b656e456e756d657261626c654d61703a20696e646578206f7574206f6620626f756e64734552433732313a20617070726f76656420717565727920666f72206e6f6e6578697374656e7420746f6b656e4552433732314d657461646174613a2055524920736574206f66206e6f6e6578697374656e7420746f6b656e4552433732313a207472616e73666572206f6620746f6b656e2074686174206973206e6f74206f776e4552433732314d657461646174613a2055524920717565727920666f72206e6f6e6578697374656e7420746f6b656e4552433732313a20617070726f76616c20746f2063757272656e74206f776e65724552433732313a207472616e736665722063616c6c6572206973206e6f74206f776e6572206e6f7220617070726f766564a26469706673582212208cc0fbd7dfde3c023051600e2106161db13086a99ae9e3ece2381ce72ba0a73664736f6c634300070600334552433732314d657461646174613a2055524920736574206f66206e6f6e6578697374656e7420746f6b656e596f75206e65656420746f206d696e74206174206c65617374203120746f6b656ea2646970667358221220bc912ed3ec4ce69b2936edb9cd803de43c41c77b25973a5aad9ffdfd9838983d64736f6c63430007060033",
  "immutableReferences": {},
  "source": "// SPDX-License-Identifier: MIT\npragma solidity 0.7.6;\n\nimport \"@openzeppelin/contracts/token/ERC721/IERC721.sol\";\nimport \"./Sticker.sol\";\n\ncontract StickerFactory {\n    address owner;\n    address[] stickers;\n    mapping(address => Artist) public artists;\n    \n    struct Artist {\n        address addr;\n        string name;\n        string signature;\n        string description;\n    }\n\n    modifier byOwner {\n        require(msg.sender == owner, \"Not allowed\");\n        _;\n    }\n\n    event NewSticker(address indexed setAddress, address indexed creator);\n\n    constructor(){\n        owner = msg.sender;\n    }\n\n    function createSticker(\n        string memory tokenName, \n        string memory tokenSymbol,\n        uint limit, \n        string memory uri,\n        uint initialPrice\n    ) public {\n        require(limit > 0, \"You need to mint at least 1 token\");\n        Sticker sticker = new Sticker(\n            tokenName,\n            tokenSymbol,\n            limit,\n            uri,\n            msg.sender,\n            initialPrice\n        );\n\n        stickers.push(address(sticker));\n\n        emit NewSticker(address(sticker), msg.sender);\n    }\n\n    function getAvailableSets() public view returns (address[] memory) {\n        return stickers;\n    }\n\n    function registerArtist(\n        address artistAddr,\n        string memory name,\n        string memory signature,\n        string memory description) public byOwner {\n            Artist memory artist = Artist({\n                addr: artistAddr,\n                name: name,\n                signature: signature,\n                description: description\n            });\n            artists[artistAddr] = artist;\n    }\n}\n\n",
  "sourcePath": "/Users/mtumiati/Knobs/satellite/Vault74-Contracts/contracts/StickerFactory.sol",
  "compiler": {
    "name": "solc",
    "version": "0.7.6+commit.7338295f.Emscripten.clang"
  },
  "schemaVersion": "3.3.4",
  "updatedAt": "2021-04-04T19:48:01.634Z",
  "devdoc": {
    "kind": "dev",
    "methods": {},
    "version": 1
  },
  "userdoc": {
    "kind": "user",
    "methods": {},
    "version": 1
  }
}