{
  "contractName": "Vault74Registry",
  "abi": [
    {
      "inputs": [
        {
          "internalType": "bytes",
          "name": "pub",
          "type": "bytes"
        }
      ],
      "name": "calculateAddress",
      "outputs": [
        {
          "internalType": "address",
          "name": "addr",
          "type": "address"
        }
      ],
      "stateMutability": "pure",
      "type": "function",
      "constant": true
    },
    {
      "inputs": [
        {
          "internalType": "string",
          "name": "name",
          "type": "string"
        },
        {
          "internalType": "bytes",
          "name": "pubkey",
          "type": "bytes"
        }
      ],
      "name": "createDweller",
      "outputs": [
        {
          "internalType": "address",
          "name": "newDwellerId",
          "type": "address"
        }
      ],
      "stateMutability": "nonpayable",
      "type": "function"
    },
    {
      "inputs": [
        {
          "internalType": "bytes32",
          "name": "name",
          "type": "bytes32"
        }
      ],
      "name": "createServer",
      "outputs": [
        {
          "internalType": "address",
          "name": "serverAddress",
          "type": "address"
        }
      ],
      "stateMutability": "nonpayable",
      "type": "function"
    },
    {
      "inputs": [
        {
          "internalType": "address",
          "name": "dweller",
          "type": "address"
        }
      ],
      "name": "getDwellerId",
      "outputs": [
        {
          "internalType": "address",
          "name": "dwellerId",
          "type": "address"
        }
      ],
      "stateMutability": "view",
      "type": "function",
      "constant": true
    },
    {
      "inputs": [
        {
          "internalType": "address",
          "name": "_server",
          "type": "address"
        }
      ],
      "name": "joinServer",
      "outputs": [],
      "stateMutability": "nonpayable",
      "type": "function"
    },
    {
      "inputs": [
        {
          "internalType": "address",
          "name": "_server",
          "type": "address"
        }
      ],
      "name": "leaveServer",
      "outputs": [],
      "stateMutability": "nonpayable",
      "type": "function"
    }
  ],
  "bytecode": "0x608060405234801561001057600080fd5b50615583806100206000396000f3fe60806040523480156200001157600080fd5b50600436106200006a5760003560e01c806332aee87f146200006f5780633ccea5d714620000b657806355932a7e146200011157806381a7c6271462000296578063e6b678c11462000307578063e8a4c04e146200034e575b600080fd5b620000b4600480360360208110156200008757600080fd5b81019080803573ffffffffffffffffffffffffffffffffffffffff16906020019092919050505062000439565b005b620000e560048036036020811015620000ce57600080fd5b81019080803590602001909291905050506200088d565b604051808273ffffffffffffffffffffffffffffffffffffffff16815260200191505060405180910390f35b6200026a600480360360408110156200012957600080fd5b81019080803590602001906401000000008111156200014757600080fd5b8201836020820111156200015a57600080fd5b803590602001918460018302840111640100000000831117156200017d57600080fd5b91908080601f016020809104026020016040519081016040528093929190818152602001838380828437600081840152601f19601f82011690508083019250505050505050919291929080359060200190640100000000811115620001e157600080fd5b820183602082011115620001f457600080fd5b803590602001918460018302840111640100000000831117156200021757600080fd5b91908080601f016020809104026020016040519081016040528093929190818152602001838380828437600081840152601f19601f82011690508083019250505050505050919291929050505062000ad9565b604051808273ffffffffffffffffffffffffffffffffffffffff16815260200191505060405180910390f35b620002db60048036036020811015620002ae57600080fd5b81019080803573ffffffffffffffffffffffffffffffffffffffff16906020019092919050505062000e26565b604051808273ffffffffffffffffffffffffffffffffffffffff16815260200191505060405180910390f35b6200034c600480360360208110156200031f57600080fd5b81019080803573ffffffffffffffffffffffffffffffffffffffff16906020019092919050505062000e8e565b005b6200040d600480360360208110156200036657600080fd5b81019080803590602001906401000000008111156200038457600080fd5b8201836020820111156200039757600080fd5b80359060200191846001830284011164010000000083111715620003ba57600080fd5b91908080601f016020809104026020016040519081016040528093929190818152602001838380828437600081840152601f19601f8201169050808301925050505050505091929192905050506200148c565b604051808273ffffffffffffffffffffffffffffffffffffffff16815260200191505060405180910390f35b600073ffffffffffffffffffffffffffffffffffffffff166000803373ffffffffffffffffffffffffffffffffffffffff1673ffffffffffffffffffffffffffffffffffffffff16815260200190815260200160002060009054906101000a900473ffffffffffffffffffffffffffffffffffffffff1673ffffffffffffffffffffffffffffffffffffffff1614156200053b576040517f08c379a000000000000000000000000000000000000000000000000000000000815260040180806020018281038252601c8152602001807f506c6561736520726567697374657220616e2049442066697273742e0000000081525060200191505060405180910390fd5b60008190508073ffffffffffffffffffffffffffffffffffffffff166328ffe6c8336040518263ffffffff1660e01b8152600401808273ffffffffffffffffffffffffffffffffffffffff168152602001915050600060405180830381600087803b158015620005aa57600080fd5b505af1158015620005bf573d6000803e3d6000fd5b5050505060008060003373ffffffffffffffffffffffffffffffffffffffff1673ffffffffffffffffffffffffffffffffffffffff16815260200190815260200160002060009054906101000a900473ffffffffffffffffffffffffffffffffffffffff16905060008173ffffffffffffffffffffffffffffffffffffffff166375c1c7e76040518163ffffffff1660e01b815260040160006040518083038186803b1580156200066f57600080fd5b505afa15801562000684573d6000803e3d6000fd5b505050506040513d6000823e3d601f19601f820116820180604052506020811015620006af57600080fd5b8101908080516040519392919084640100000000821115620006d057600080fd5b83820191506020820185811115620006e757600080fd5b82518660208202830111640100000000821117156200070557600080fd5b8083526020830192505050908051906020019060200280838360005b838110156200073e57808201518184015260208101905062000721565b50505050905001604052505050905060005b815181101562000803578473ffffffffffffffffffffffffffffffffffffffff168282815181106200077e57fe5b602002602001015173ffffffffffffffffffffffffffffffffffffffff161415620007f5576040517f08c379a00000000000000000000000000000000000000000000000000000000081526004018080602001828103825260228152602001806200552c6022913960400191505060405180910390fd5b808060010191505062000750565b508173ffffffffffffffffffffffffffffffffffffffff166332aee87f856040518263ffffffff1660e01b8152600401808273ffffffffffffffffffffffffffffffffffffffff168152602001915050600060405180830381600087803b1580156200086e57600080fd5b505af115801562000883573d6000803e3d6000fd5b5050505050505050565b60008073ffffffffffffffffffffffffffffffffffffffff166000803373ffffffffffffffffffffffffffffffffffffffff1673ffffffffffffffffffffffffffffffffffffffff16815260200190815260200160002060009054906101000a900473ffffffffffffffffffffffffffffffffffffffff1673ffffffffffffffffffffffffffffffffffffffff16141562000990576040517f08c379a000000000000000000000000000000000000000000000000000000000815260040180806020018281038252601c8152602001807f506c6561736520726567697374657220616e2049442066697273742e0000000081525060200191505060405180910390fd5b60008060003373ffffffffffffffffffffffffffffffffffffffff1673ffffffffffffffffffffffffffffffffffffffff16815260200190815260200160002060009054906101000a900473ffffffffffffffffffffffffffffffffffffffff1690506000833360405162000a0590620014a8565b808381526020018273ffffffffffffffffffffffffffffffffffffffff16815260200192505050604051809103906000f08015801562000a49573d6000803e3d6000fd5b5090508092508173ffffffffffffffffffffffffffffffffffffffff166332aee87f846040518263ffffffff1660e01b8152600401808273ffffffffffffffffffffffffffffffffffffffff168152602001915050600060405180830381600087803b15801562000ab957600080fd5b505af115801562000ace573d6000803e3d6000fd5b505050505050919050565b6000813373ffffffffffffffffffffffffffffffffffffffff1662000afe826200148c565b73ffffffffffffffffffffffffffffffffffffffff161462000b6c576040517f08c379a000000000000000000000000000000000000000000000000000000000815260040180806020018281038252602e815260200180620054fe602e913960400191505060405180910390fd5b600073ffffffffffffffffffffffffffffffffffffffff166000803373ffffffffffffffffffffffffffffffffffffffff1673ffffffffffffffffffffffffffffffffffffffff16815260200190815260200160002060009054906101000a900473ffffffffffffffffffffffffffffffffffffffff1673ffffffffffffffffffffffffffffffffffffffff161462000c6d576040517f08c379a000000000000000000000000000000000000000000000000000000000815260040180806020018281038252601a8152602001807f4477656c6c657220616c7265616479207265676973746572656400000000000081525060200191505060405180910390fd5b600084338560405162000c8090620014b6565b80806020018473ffffffffffffffffffffffffffffffffffffffff16815260200180602001838103835286818151815260200191508051906020019080838360005b8381101562000cdf57808201518184015260208101905062000cc2565b50505050905090810190601f16801562000d0d5780820380516001836020036101000a031916815260200191505b50838103825284818151815260200191508051906020019080838360005b8381101562000d4857808201518184015260208101905062000d2b565b50505050905090810190601f16801562000d765780820380516001836020036101000a031916815260200191505b5095505050505050604051809103906000f08015801562000d9b573d6000803e3d6000fd5b509050806000803373ffffffffffffffffffffffffffffffffffffffff1673ffffffffffffffffffffffffffffffffffffffff16815260200190815260200160002060006101000a81548173ffffffffffffffffffffffffffffffffffffffff021916908373ffffffffffffffffffffffffffffffffffffffff160217905550809250505092915050565b60008060008373ffffffffffffffffffffffffffffffffffffffff1673ffffffffffffffffffffffffffffffffffffffff16815260200190815260200160002060009054906101000a900473ffffffffffffffffffffffffffffffffffffffff169050919050565b600073ffffffffffffffffffffffffffffffffffffffff166000803373ffffffffffffffffffffffffffffffffffffffff1673ffffffffffffffffffffffffffffffffffffffff16815260200190815260200160002060009054906101000a900473ffffffffffffffffffffffffffffffffffffffff1673ffffffffffffffffffffffffffffffffffffffff16141562000f90576040517f08c379a000000000000000000000000000000000000000000000000000000000815260040180806020018281038252601c8152602001807f506c6561736520726567697374657220616e2049442066697273742e0000000081525060200191505060405180910390fd5b60008060003373ffffffffffffffffffffffffffffffffffffffff1673ffffffffffffffffffffffffffffffffffffffff16815260200190815260200160002060009054906101000a900473ffffffffffffffffffffffffffffffffffffffff16905060008173ffffffffffffffffffffffffffffffffffffffff166375c1c7e76040518163ffffffff1660e01b815260040160006040518083038186803b1580156200103c57600080fd5b505afa15801562001051573d6000803e3d6000fd5b505050506040513d6000823e3d601f19601f8201168201806040525060208110156200107c57600080fd5b81019080805160405193929190846401000000008211156200109d57600080fd5b83820191506020820185811115620010b457600080fd5b8251866020820283011164010000000082111715620010d257600080fd5b8083526020830192505050908051906020019060200280838360005b838110156200110b578082015181840152602081019050620010ee565b5050505090500160405250505090506000805b825181101562001184578473ffffffffffffffffffffffffffffffffffffffff168382815181106200114c57fe5b602002602001015173ffffffffffffffffffffffffffffffffffffffff1614156200117657600191505b80806001019150506200111e565b5080620011f9576040517f08c379a000000000000000000000000000000000000000000000000000000000815260040180806020018281038252601e8152602001807f4477656c6c6572206973206e6f7420696e2074686973207365727665722e000081525060200191505060405180910390fd5b8273ffffffffffffffffffffffffffffffffffffffff1663e6b678c1856040518263ffffffff1660e01b8152600401808273ffffffffffffffffffffffffffffffffffffffff168152602001915050600060405180830381600087803b1580156200126357600080fd5b505af115801562001278573d6000803e3d6000fd5b50505050600084905060008173ffffffffffffffffffffffffffffffffffffffff16639eab52536040518163ffffffff1660e01b815260040160006040518083038186803b158015620012ca57600080fd5b505afa158015620012df573d6000803e3d6000fd5b505050506040513d6000823e3d601f19601f8201168201806040525060208110156200130a57600080fd5b81019080805160405193929190846401000000008211156200132b57600080fd5b838201915060208201858111156200134257600080fd5b82518660208202830111640100000000821117156200136057600080fd5b8083526020830192505050908051906020019060200280838360005b83811015620013995780820151818401526020810190506200137c565b505050509050016040525050509050600080600090505b825181101562001415573373ffffffffffffffffffffffffffffffffffffffff16838281518110620013de57fe5b602002602001015173ffffffffffffffffffffffffffffffffffffffff16141562001407578091505b8080600101915050620013b0565b508273ffffffffffffffffffffffffffffffffffffffff166367dfd4c9826040518263ffffffff1660e01b815260040180828152602001915050600060405180830381600087803b1580156200146a57600080fd5b505af11580156200147f573d6000803e3d6000fd5b5050505050505050505050565b6000808280519060200120905080600052600051915050919050565b61256a80620014c583390190565b611acf8062003a2f8339019056fe608060405234801561001057600080fd5b5060405161256a38038061256a8339818101604052604081101561003357600080fd5b810190808051906020019092919080519060200190929190505050336000806101000a81548173ffffffffffffffffffffffffffffffffffffffff021916908373ffffffffffffffffffffffffffffffffffffffff16021790555080600160006101000a81548173ffffffffffffffffffffffffffffffffffffffff021916908373ffffffffffffffffffffffffffffffffffffffff16021790555081600281905550600160096000600160009054906101000a900473ffffffffffffffffffffffffffffffffffffffff1673ffffffffffffffffffffffffffffffffffffffff1673ffffffffffffffffffffffffffffffffffffffff16815260200190815260200160002060006101000a81548160ff0219169083151502179055506007819080600181540180825580915050600190039060005260206000200160009091909190916101000a81548173ffffffffffffffffffffffffffffffffffffffff021916908373ffffffffffffffffffffffffffffffffffffffff160217905550600160009054906101000a900473ffffffffffffffffffffffffffffffffffffffff1673ffffffffffffffffffffffffffffffffffffffff167f7ad616c31c10c22596ef8cf9862a7806725e419456cfef5415b40f0c04f0c27760405160405180910390a2600160009054906101000a900473ffffffffffffffffffffffffffffffffffffffff1673ffffffffffffffffffffffffffffffffffffffff167f44d6d25963f097ad14f29f06854a01f575648a1ef82f30e562ccd3889717e33960405160405180910390a250506122dc8061028e6000396000f3fe608060405234801561001057600080fd5b50600436106101da5760003560e01c80638f12c19611610104578063b45bea01116100a2578063dcd496e211610071578063dcd496e214610938578063e5949b5d1461099d578063f8024d10146109df578063ffa2475e14610a37576101da565b8063b45bea0114610838578063c72b517614610873578063cd8b9b7c146108d2578063d425065f14610900576101da565b806396324bd4116100de57806396324bd4146106915780639eab5253146106d3578063acaa298214610732578063b2ec005e146107b5576101da565b80638f12c196146105d657806394638da5146106045780639575f6ac14610632576101da565b806364afef301161017c5780637a9750901161014b5780637a975090146104da5780637b103999146105125780637dc16839146105465780638adf23b914610592576101da565b806364afef30146103b457806367dfd4c91461040e578063704802751461043c57806376be158514610480576101da565b80632f890b93116101b85780632f890b93146102855780634907aba0146102c95780635ac801fe1461032e5780635daf08ca1461035c576101da565b806306fdde03146101df5780631785f53c146101fd57806328ffe6c814610241575b600080fd5b6101e7610a7c565b6040518082815260200191505060405180910390f35b61023f6004803603602081101561021357600080fd5b81019080803573ffffffffffffffffffffffffffffffffffffffff169060200190929190505050610a82565b005b6102836004803603602081101561025757600080fd5b81019080803573ffffffffffffffffffffffffffffffffffffffff169060200190929190505050610c8a565b005b6102c76004803603602081101561029b57600080fd5b81019080803573ffffffffffffffffffffffffffffffffffffffff169060200190929190505050610e80565b005b61032c600480360360408110156102df57600080fd5b8101908080604001906002806020026040519081016040528092919082600260200280828437600081840152601f19601f8201169050808301925050505050509192919290505050610fdd565b005b61035a6004803603602081101561034457600080fd5b8101908080359060200190929190505050611101565b005b6103886004803603602081101561037257600080fd5b81019080803590602001909291905050506111f7565b604051808273ffffffffffffffffffffffffffffffffffffffff16815260200191505060405180910390f35b6103f6600480360360208110156103ca57600080fd5b81019080803573ffffffffffffffffffffffffffffffffffffffff169060200190929190505050611236565b60405180821515815260200191505060405180910390f35b61043a6004803603602081101561042457600080fd5b8101908080359060200190929190505050611256565b005b61047e6004803603602081101561045257600080fd5b81019080803573ffffffffffffffffffffffffffffffffffffffff1690602001909291905050506113b1565b005b6104c26004803603602081101561049657600080fd5b81019080803573ffffffffffffffffffffffffffffffffffffffff169060200190929190505050611512565b60405180821515815260200191505060405180910390f35b610510600480360360408110156104f057600080fd5b810190808035906020019092919080359060200190929190505050611532565b005b61051a61165d565b604051808273ffffffffffffffffffffffffffffffffffffffff16815260200191505060405180910390f35b61057c6004803603604081101561055c57600080fd5b810190808035906020019092919080359060200190929190505050611681565b6040518082815260200191505060405180910390f35b6105d4600480360360208110156105a857600080fd5b81019080803573ffffffffffffffffffffffffffffffffffffffff1690602001909291905050506116b2565b005b610602600480360360208110156105ec57600080fd5b810190808035906020019092919050505061180f565b005b6106306004803603602081101561061a57600080fd5b8101908080359060200190929190505050611927565b005b61063a611a71565b6040518080602001828103825283818151815260200191508051906020019060200280838360005b8381101561067d578082015181840152602081019050610662565b505050509050019250505060405180910390f35b6106bd600480360360208110156106a757600080fd5b8101908080359060200190929190505050611ac9565b6040518082815260200191505060405180910390f35b6106db611aed565b6040518080602001828103825283818151815260200191508051906020019060200280838360005b8381101561071e578082015181840152602081019050610703565b505050509050019250505060405180910390f35b61073a611b7b565b6040518080602001828103825283818151815260200191508051906020019080838360005b8381101561077a57808201518184015260208101905061075f565b50505050905090810190601f1680156107a75780820380516001836020036101000a031916815260200191505b509250505060405180910390f35b6107bd611be4565b6040518080602001828103825283818151815260200191508051906020019080838360005b838110156107fd5780820151818401526020810190506107e2565b50505050905090810190601f16801561082a5780820380516001836020036101000a031916815260200191505b509250505060405180910390f35b6108716004803603604081101561084e57600080fd5b8101908080359060200190929190803560ff169060200190929190505050611c4d565b005b61087b611d96565b6040518080602001828103825283818151815260200191508051906020019060200280838360005b838110156108be5780820151818401526020810190506108a3565b505050509050019250505060405180910390f35b6108fe600480360360208110156108e857600080fd5b8101908080359060200190929190505050611dee565b005b6109366004803603604081101561091657600080fd5b810190808035906020019092919080359060200190929190505050611f34565b005b61099b6004803603604081101561094e57600080fd5b8101908080604001906002806020026040519081016040528092919082600260200280828437600081840152601f19601f8201169050808301925050505050509192919290505050612050565b005b6109c9600480360360208110156109b357600080fd5b8101908080359060200190929190505050612174565b6040518082815260200191505060405180910390f35b610a0b600480360360208110156109f557600080fd5b8101908080359060200190929190505050612198565b604051808273ffffffffffffffffffffffffffffffffffffffff16815260200191505060405180910390f35b610a6360048036036020811015610a4d57600080fd5b81019080803590602001909291905050506121d9565b604051808260ff16815260200191505060405180910390f35b60025481565b600160009054906101000a900473ffffffffffffffffffffffffffffffffffffffff1673ffffffffffffffffffffffffffffffffffffffff163373ffffffffffffffffffffffffffffffffffffffff1614610b45576040517f08c379a00000000000000000000000000000000000000000000000000000000081526004018080602001828103825260208152602001807f4e6f7420746865206477656c6c657220776527726520657870656374696e672e81525060200191505060405180910390fd5b600160009054906101000a900473ffffffffffffffffffffffffffffffffffffffff1673ffffffffffffffffffffffffffffffffffffffff168173ffffffffffffffffffffffffffffffffffffffff161415610bec576040517f08c379a00000000000000000000000000000000000000000000000000000000081526004018080602001828103825260238152602001806122386023913960400191505060405180910390fd5b6000600960008373ffffffffffffffffffffffffffffffffffffffff1673ffffffffffffffffffffffffffffffffffffffff16815260200190815260200160002060006101000a81548160ff0219169083151502179055508073ffffffffffffffffffffffffffffffffffffffff167fa3b62bc36326052d97ea62d63c3d60308ed4c3ea8ac079dd8499f1e9c4f80c0f60405160405180910390a250565b60008054906101000a900473ffffffffffffffffffffffffffffffffffffffff1673ffffffffffffffffffffffffffffffffffffffff163373ffffffffffffffffffffffffffffffffffffffff1614610d2e576040517f08c379a000000000000000000000000000000000000000000000000000000000815260040180806020018281038252602381526020018061225b6023913960400191505060405180910390fd5b60011515600860008373ffffffffffffffffffffffffffffffffffffffff1673ffffffffffffffffffffffffffffffffffffffff16815260200190815260200160002060009054906101000a900460ff16151514610dd7576040517f08c379a000000000000000000000000000000000000000000000000000000000815260040180806020018281038252602981526020018061227e6029913960400191505060405180910390fd5b6007819080600181540180825580915050600190039060005260206000200160009091909190916101000a81548173ffffffffffffffffffffffffffffffffffffffff021916908373ffffffffffffffffffffffffffffffffffffffff1602179055508073ffffffffffffffffffffffffffffffffffffffff167f0abf3b3f643594d958297062a019458e27d7766629590ac621aa1000fa1298ab60405160405180910390a250565b600960003373ffffffffffffffffffffffffffffffffffffffff1673ffffffffffffffffffffffffffffffffffffffff16815260200190815260200160002060009054906101000a900460ff16610f3f576040517f08c379a000000000000000000000000000000000000000000000000000000000815260040180806020018281038252601a8152602001807f4e6f7420617574686f72697a656420746f20646f20746861742e00000000000081525060200191505060405180910390fd5b6001600860008373ffffffffffffffffffffffffffffffffffffffff1673ffffffffffffffffffffffffffffffffffffffff16815260200190815260200160002060006101000a81548160ff0219169083151502179055508073ffffffffffffffffffffffffffffffffffffffff167fc45331953289455b6552aec540792d4ab36cb2b0923c6402ce8f5bb3206fd55160405160405180910390a250565b600960003373ffffffffffffffffffffffffffffffffffffffff1673ffffffffffffffffffffffffffffffffffffffff16815260200190815260200160002060009054906101000a900460ff1661109c576040517f08c379a000000000000000000000000000000000000000000000000000000000815260040180806020018281038252601a8152602001807f4e6f7420617574686f72697a656420746f20646f20746861742e00000000000081525060200191505060405180910390fd5b806000600281106110a957fe5b6020020151600381905550806001600281106110c157fe5b60200201516004819055506004546003547fb1101f1c17bd0104e6b31706b3268944399b3ee606cb859f3563ff3e184025ce60405160405180910390a350565b600960003373ffffffffffffffffffffffffffffffffffffffff1673ffffffffffffffffffffffffffffffffffffffff16815260200190815260200160002060009054906101000a900460ff166111c0576040517f08c379a000000000000000000000000000000000000000000000000000000000815260040180806020018281038252601a8152602001807f4e6f7420617574686f72697a656420746f20646f20746861742e00000000000081525060200191505060405180910390fd5b807fb0a4d76c825dc814a59c1a90f520a677f3f0843980294ef90afe1d7616a1cf7060405160405180910390a28060028190555050565b6007818154811061120757600080fd5b906000526020600020016000915054906101000a900473ffffffffffffffffffffffffffffffffffffffff1681565b60086020528060005260406000206000915054906101000a900460ff1681565b60008054906101000a900473ffffffffffffffffffffffffffffffffffffffff1673ffffffffffffffffffffffffffffffffffffffff163373ffffffffffffffffffffffffffffffffffffffff16146112fa576040517f08c379a000000000000000000000000000000000000000000000000000000000815260040180806020018281038252602381526020018061225b6023913960400191505060405180910390fd5b6007818154811061130757fe5b9060005260206000200160006101000a81549073ffffffffffffffffffffffffffffffffffffffff02191690556007818154811061134157fe5b9060005260206000200160009054906101000a900473ffffffffffffffffffffffffffffffffffffffff1673ffffffffffffffffffffffffffffffffffffffff167fbea911b50ccdd2233b28faa49766c3cbd0631608f32e5a724d7b83b32b681ad060405160405180910390a250565b600160009054906101000a900473ffffffffffffffffffffffffffffffffffffffff1673ffffffffffffffffffffffffffffffffffffffff163373ffffffffffffffffffffffffffffffffffffffff1614611474576040517f08c379a00000000000000000000000000000000000000000000000000000000081526004018080602001828103825260208152602001807f4e6f7420746865206477656c6c657220776527726520657870656374696e672e81525060200191505060405180910390fd5b6001600960008373ffffffffffffffffffffffffffffffffffffffff1673ffffffffffffffffffffffffffffffffffffffff16815260200190815260200160002060006101000a81548160ff0219169083151502179055508073ffffffffffffffffffffffffffffffffffffffff167f44d6d25963f097ad14f29f06854a01f575648a1ef82f30e562ccd3889717e33960405160405180910390a250565b60096020528060005260406000206000915054906101000a900460ff1681565b600960003373ffffffffffffffffffffffffffffffffffffffff1673ffffffffffffffffffffffffffffffffffffffff16815260200190815260200160002060009054906101000a900460ff166115f1576040517f08c379a000000000000000000000000000000000000000000000000000000000815260040180806020018281038252601a8152602001807f4e6f7420617574686f72697a656420746f20646f20746861742e00000000000081525060200191505060405180910390fd5b600d600083815260200190815260200160002081908060018154018082558091505060019003906000526020600020016000909190919091505580827f546e9fb79eaf9a3211963312983fb663b2502766181ef2c7009a87e335f5451760405160405180910390a35050565b60008054906101000a900473ffffffffffffffffffffffffffffffffffffffff1681565b600d602052816000526040600020818154811061169d57600080fd5b90600052602060002001600091509150505481565b600960003373ffffffffffffffffffffffffffffffffffffffff1673ffffffffffffffffffffffffffffffffffffffff16815260200190815260200160002060009054906101000a900460ff16611771576040517f08c379a000000000000000000000000000000000000000000000000000000000815260040180806020018281038252601a8152602001807f4e6f7420617574686f72697a656420746f20646f20746861742e00000000000081525060200191505060405180910390fd5b6000600860008373ffffffffffffffffffffffffffffffffffffffff1673ffffffffffffffffffffffffffffffffffffffff16815260200190815260200160002060006101000a81548160ff0219169083151502179055508073ffffffffffffffffffffffffffffffffffffffff167f745cd29407db644ed93e3ceb61cbcab96d1dfb496989ac5d5bf514fc5a9fab9c60405160405180910390a250565b600960003373ffffffffffffffffffffffffffffffffffffffff1673ffffffffffffffffffffffffffffffffffffffff16815260200190815260200160002060009054906101000a900460ff166118ce576040517f08c379a000000000000000000000000000000000000000000000000000000000815260040180806020018281038252601a8152602001807f4e6f7420617574686f72697a656420746f20646f20746861742e00000000000081525060200191505060405180910390fd5b600c819080600181540180825580915050600190039060005260206000200160009091909190915055807f68f2001f3d21c00cd78cc99ed066e602521463b601394d6b4b0664ceed39461160405160405180910390a250565b600960003373ffffffffffffffffffffffffffffffffffffffff1673ffffffffffffffffffffffffffffffffffffffff16815260200190815260200160002060009054906101000a900460ff166119e6576040517f08c379a000000000000000000000000000000000000000000000000000000000815260040180806020018281038252601a8152602001807f4e6f7420617574686f72697a656420746f20646f20746861742e00000000000081525060200191505060405180910390fd5b6000600a82815481106119f557fe5b90600052602060002001549050600a8281548110611a0f57fe5b9060005260206000200160009055600b600082815260200190815260200160002060006101000a81549060ff0219169055807f5de34b3ec8e5a6a0329f529aa00c1f5e33b45ee79d414001e68e4a0179d7412e60405160405180910390a25050565b6060600a805480602002602001604051908101604052809291908181526020018280548015611abf57602002820191906000526020600020905b815481526020019060010190808311611aab575b5050505050905090565b600c8181548110611ad957600080fd5b906000526020600020016000915090505481565b60606007805480602002602001604051908101604052809291908181526020018280548015611b7157602002820191906000526020600020905b8160009054906101000a900473ffffffffffffffffffffffffffffffffffffffff1673ffffffffffffffffffffffffffffffffffffffff1681526020019060010190808311611b27575b5050505050905090565b60606000604067ffffffffffffffff81118015611b9757600080fd5b506040519080825280601f01601f191660200182016040528015611bca5781602001600182028036833780820191505090505b509050600554602082015260065460408201528091505090565b60606000604067ffffffffffffffff81118015611c0057600080fd5b506040519080825280601f01601f191660200182016040528015611c335781602001600182028036833780820191505090505b509050600354602082015260045460408201528091505090565b600960003373ffffffffffffffffffffffffffffffffffffffff1673ffffffffffffffffffffffffffffffffffffffff16815260200190815260200160002060009054906101000a900460ff16611d0c576040517f08c379a000000000000000000000000000000000000000000000000000000000815260040180806020018281038252601a8152602001807f4e6f7420617574686f72697a656420746f20646f20746861742e00000000000081525060200191505060405180910390fd5b600a82908060018154018082558091505060019003906000526020600020016000909190919091505580600b600084815260200190815260200160002060006101000a81548160ff021916908360ff1602179055508060ff16827f1c13b30228b6d19b2bac97346da74380ac7e838dd8d172451d3e39a8c6c2b65c60405160405180910390a35050565b6060600c805480602002602001604051908101604052809291908181526020018280548015611de457602002820191906000526020600020905b815481526020019060010190808311611dd0575b5050505050905090565b600960003373ffffffffffffffffffffffffffffffffffffffff1673ffffffffffffffffffffffffffffffffffffffff16815260200190815260200160002060009054906101000a900460ff16611ead576040517f08c379a000000000000000000000000000000000000000000000000000000000815260040180806020018281038252601a8152602001807f4e6f7420617574686f72697a656420746f20646f20746861742e00000000000081525060200191505060405180910390fd5b6000600c8281548110611ebc57fe5b90600052602060002001549050600d60008281526020019081526020016000206000611ee891906121f9565b600c8281548110611ef557fe5b9060005260206000200160009055807fb263dc5411a180f49f3c853fbfe2c39f8c88eab0bce5b71c01fc966cd25c5b4b60405160405180910390a25050565b600960003373ffffffffffffffffffffffffffffffffffffffff1673ffffffffffffffffffffffffffffffffffffffff16815260200190815260200160002060009054906101000a900460ff16611ff3576040517f08c379a000000000000000000000000000000000000000000000000000000000815260040180806020018281038252601a8152602001807f4e6f7420617574686f72697a656420746f20646f20746861742e00000000000081525060200191505060405180910390fd5b600d6000838152602001908152602001600020818154811061201157fe5b9060005260206000200160009055817f127f1c981a721f1c2dce3d0810d2412cfcaffe97b2d5fc40abd41779805b5b3c60405160405180910390a25050565b600960003373ffffffffffffffffffffffffffffffffffffffff1673ffffffffffffffffffffffffffffffffffffffff16815260200190815260200160002060009054906101000a900460ff1661210f576040517f08c379a000000000000000000000000000000000000000000000000000000000815260040180806020018281038252601a8152602001807f4e6f7420617574686f72697a656420746f20646f20746861742e00000000000081525060200191505060405180910390fd5b8060006002811061211c57fe5b60200201516005819055508060016002811061213457fe5b60200201516006819055506006546005547fb1101f1c17bd0104e6b31706b3268944399b3ee606cb859f3563ff3e184025ce60405160405180910390a350565b600a818154811061218457600080fd5b906000526020600020016000915090505481565b6000600782815481106121a757fe5b9060005260206000200160009054906101000a900473ffffffffffffffffffffffffffffffffffffffff169050919050565b600b6020528060005260406000206000915054906101000a900460ff1681565b5080546000825590600052602060002090810190612217919061221a565b50565b5b8082111561223357600081600090555060010161221b565b509056fe596f752063616e27742072656d6f766520746865206f776e65722061732061646d696e4f6e6c7920746865207265676973747279206d6179206578656375746520746869732e4d656d626572206e6f7420617574686f72697a656420746f206a6f696e20746865207365727665722ea2646970667358221220986ec7f31746ddb79240a04912a47c2d5979136dcd2772aaff0b6e81150d390964736f6c6343000706003360806040526040518060400160405280601381526020017f53697474696e6720696e206f726269742e2e2e0000000000000000000000000081525060059080519060200190620000519291906200032e565b503480156200005f57600080fd5b5060405162001acf38038062001acf833981810160405260608110156200008557600080fd5b8101908080516040519392919084640100000000821115620000a657600080fd5b83820191506020820185811115620000bd57600080fd5b8251866001820283011164010000000082111715620000db57600080fd5b8083526020830192505050908051906020019080838360005b8381101562000111578082015181840152602081019050620000f4565b50505050905090810190601f1680156200013f5780820380516001836020036101000a031916815260200191505b5060405260200180519060200190929190805160405193929190846401000000008211156200016d57600080fd5b838201915060208201858111156200018457600080fd5b8251866001820283011164010000000082111715620001a257600080fd5b8083526020830192505050908051906020019080838360005b83811015620001d8578082015181840152602081019050620001bb565b50505050905090810190601f168015620002065780820380516001836020036101000a031916815260200191505b50604052505050336000806101000a81548173ffffffffffffffffffffffffffffffffffffffff021916908373ffffffffffffffffffffffffffffffffffffffff16021790555081600160006101000a81548173ffffffffffffffffffffffffffffffffffffffff021916908373ffffffffffffffffffffffffffffffffffffffff1602179055508260029080519060200190620002a69291906200032e565b508060049080519060200190620002bf929190620003c5565b50600160009054906101000a900473ffffffffffffffffffffffffffffffffffffffff1673ffffffffffffffffffffffffffffffffffffffff167f7ad616c31c10c22596ef8cf9862a7806725e419456cfef5415b40f0c04f0c27760405160405180910390a25050506200047b565b828054600181600116156101000203166002900490600052602060002090601f016020900481019282620003665760008555620003b2565b82601f106200038157805160ff1916838001178555620003b2565b82800160010185558215620003b2579182015b82811115620003b157825182559160200191906001019062000394565b5b509050620003c191906200045c565b5090565b828054600181600116156101000203166002900490600052602060002090601f016020900481019282620003fd576000855562000449565b82601f106200041857805160ff191683800117855562000449565b8280016001018555821562000449579182015b82811115620004485782518255916020019190600101906200042b565b5b5090506200045891906200045c565b5090565b5b80821115620004775760008160009055506001016200045d565b5090565b611644806200048b6000396000f3fe608060405234801561001057600080fd5b50600436106100cf5760003560e01c806375c1c7e71161008c578063961a5d0a11610066578063961a5d0a146104de578063983f669b14610599578063cfb1a7631461077d578063e6b678c114610800576100cf565b806375c1c7e7146103905780637b103999146103ef5780637d2211d614610423576100cf565b806306fdde03146100d457806309ee88a914610157578063200d2ed21461018b57806332aee87f1461020e578063484d59e6146102525780635836786a146102d5575b600080fd5b6100dc610844565b6040518080602001828103825283818151815260200191508051906020019080838360005b8381101561011c578082015181840152602081019050610101565b50505050905090810190601f1680156101495780820380516001836020036101000a031916815260200191505b509250505060405180910390f35b61015f6108e2565b604051808273ffffffffffffffffffffffffffffffffffffffff16815260200191505060405180910390f35b610193610908565b6040518080602001828103825283818151815260200191508051906020019080838360005b838110156101d35780820151818401526020810190506101b8565b50505050905090810190601f1680156102005780820380516001836020036101000a031916815260200191505b509250505060405180910390f35b6102506004803603602081101561022457600080fd5b81019080803573ffffffffffffffffffffffffffffffffffffffff1690602001909291905050506109a6565b005b61025a610acd565b6040518080602001828103825283818151815260200191508051906020019080838360005b8381101561029a57808201518184015260208101905061027f565b50505050905090810190601f1680156102c75780820380516001836020036101000a031916815260200191505b509250505060405180910390f35b61038e600480360360208110156102eb57600080fd5b810190808035906020019064010000000081111561030857600080fd5b82018360208201111561031a57600080fd5b8035906020019184600183028401116401000000008311171561033c57600080fd5b91908080601f016020809104026020016040519081016040528093929190818152602001838380828437600081840152601f19601f820116905080830192505050505050509192919290505050610b6b565b005b610398610c48565b6040518080602001828103825283818151815260200191508051906020019060200280838360005b838110156103db5780820151818401526020810190506103c0565b505050509050019250505060405180910390f35b6103f7610dd2565b604051808273ffffffffffffffffffffffffffffffffffffffff16815260200191505060405180910390f35b6104dc6004803603602081101561043957600080fd5b810190808035906020019064010000000081111561045657600080fd5b82018360208201111561046857600080fd5b8035906020019184600183028401116401000000008311171561048a57600080fd5b91908080601f016020809104026020016040519081016040528093929190818152602001838380828437600081840152601f19601f820116905080830192505050505050509192919290505050610df6565b005b610597600480360360208110156104f457600080fd5b810190808035906020019064010000000081111561051157600080fd5b82018360208201111561052357600080fd5b8035906020019184600183028401116401000000008311171561054557600080fd5b91908080601f016020809104026020016040519081016040528093929190818152602001838380828437600081840152601f19601f820116905080830192505050505050509192919290505050610ed3565b005b6105a1611046565b604051808673ffffffffffffffffffffffffffffffffffffffff16815260200180602001806020018060200180602001858103855289818151815260200191508051906020019080838360005b838110156106095780820151818401526020810190506105ee565b50505050905090810190601f1680156106365780820380516001836020036101000a031916815260200191505b50858103845288818151815260200191508051906020019080838360005b8381101561066f578082015181840152602081019050610654565b50505050905090810190601f16801561069c5780820380516001836020036101000a031916815260200191505b50858103835287818151815260200191508051906020019080838360005b838110156106d55780820151818401526020810190506106ba565b50505050905090810190601f1680156107025780820380516001836020036101000a031916815260200191505b50858103825286818151815260200191508051906020019080838360005b8381101561073b578082015181840152602081019050610720565b50505050905090810190601f1680156107685780820380516001836020036101000a031916815260200191505b50995050505050505050505060405180910390f35b6107856112fa565b6040518080602001828103825283818151815260200191508051906020019080838360005b838110156107c55780820151818401526020810190506107aa565b50505050905090810190601f1680156107f25780820380516001836020036101000a031916815260200191505b509250505060405180910390f35b6108426004803603602081101561081657600080fd5b81019080803573ffffffffffffffffffffffffffffffffffffffff169060200190929190505050611398565b005b60028054600181600116156101000203166002900480601f0160208091040260200160405190810160405280929190818152602001828054600181600116156101000203166002900480156108da5780601f106108af576101008083540402835291602001916108da565b820191906000526020600020905b8154815290600101906020018083116108bd57829003601f168201915b505050505081565b600160009054906101000a900473ffffffffffffffffffffffffffffffffffffffff1681565b60058054600181600116156101000203166002900480601f01602080910402602001604051908101604052809291908181526020018280546001816001161561010002031660029004801561099e5780601f106109735761010080835404028352916020019161099e565b820191906000526020600020905b81548152906001019060200180831161098157829003601f168201915b505050505081565b60008054906101000a900473ffffffffffffffffffffffffffffffffffffffff1673ffffffffffffffffffffffffffffffffffffffff163373ffffffffffffffffffffffffffffffffffffffff1614610a67576040517f08c379a000000000000000000000000000000000000000000000000000000000815260040180806020018281038252601a8152602001807f4f6e6c792063616c6c61626c652062792072656769737472792e00000000000081525060200191505060405180910390fd5b6006819080600181540180825580915050600190039060005260206000200160009091909190916101000a81548173ffffffffffffffffffffffffffffffffffffffff021916908373ffffffffffffffffffffffffffffffffffffffff16021790555050565b60048054600181600116156101000203166002900480601f016020809104026020016040519081016040528092919081815260200182805460018160011615610100020316600290048015610b635780601f10610b3857610100808354040283529160200191610b63565b820191906000526020600020905b815481529060010190602001808311610b4657829003601f168201915b505050505081565b600160009054906101000a900473ffffffffffffffffffffffffffffffffffffffff1673ffffffffffffffffffffffffffffffffffffffff163373ffffffffffffffffffffffffffffffffffffffff1614610c2e576040517f08c379a00000000000000000000000000000000000000000000000000000000081526004018080602001828103825260208152602001807f4e6f7420746865206477656c6c657220776527726520657870656374696e672e81525060200191505060405180910390fd5b8060029080519060200190610c44929190611540565b5050565b606060008054906101000a900473ffffffffffffffffffffffffffffffffffffffff1673ffffffffffffffffffffffffffffffffffffffff163373ffffffffffffffffffffffffffffffffffffffff161480610cf15750600160009054906101000a900473ffffffffffffffffffffffffffffffffffffffff1673ffffffffffffffffffffffffffffffffffffffff163373ffffffffffffffffffffffffffffffffffffffff16145b610d46576040517f08c379a00000000000000000000000000000000000000000000000000000000081526004018080602001828103825260238152602001806115ec6023913960400191505060405180910390fd5b6006805480602002602001604051908101604052809291908181526020018280548015610dc857602002820191906000526020600020905b8160009054906101000a900473ffffffffffffffffffffffffffffffffffffffff1673ffffffffffffffffffffffffffffffffffffffff1681526020019060010190808311610d7e575b5050505050905090565b60008054906101000a900473ffffffffffffffffffffffffffffffffffffffff1681565b600160009054906101000a900473ffffffffffffffffffffffffffffffffffffffff1673ffffffffffffffffffffffffffffffffffffffff163373ffffffffffffffffffffffffffffffffffffffff1614610eb9576040517f08c379a00000000000000000000000000000000000000000000000000000000081526004018080602001828103825260208152602001807f4e6f7420746865206477656c6c657220776527726520657870656374696e672e81525060200191505060405180910390fd5b8060059080519060200190610ecf929190611540565b5050565b600160009054906101000a900473ffffffffffffffffffffffffffffffffffffffff1673ffffffffffffffffffffffffffffffffffffffff163373ffffffffffffffffffffffffffffffffffffffff1614610f96576040517f08c379a00000000000000000000000000000000000000000000000000000000081526004018080602001828103825260208152602001807f4e6f7420746865206477656c6c657220776527726520657870656374696e672e81525060200191505060405180910390fd5b8060039080519060200190610fac929190611540565b506003604051808280546001816001161561010002031660029004801561100a5780601f10610fe857610100808354040283529182019161100a565b820191906000526020600020905b815481529060010190602001808311610ff6575b505091505060405180910390207f0a3f2195205de15850444f80ab10b54143b9ff983df0f8c83cef5b92cb699f9460405160405180910390a250565b6000606080606080600160009054906101000a900473ffffffffffffffffffffffffffffffffffffffff166002600360046005838054600181600116156101000203166002900480601f01602080910402602001604051908101604052809291908181526020018280546001816001161561010002031660029004801561110e5780601f106110e35761010080835404028352916020019161110e565b820191906000526020600020905b8154815290600101906020018083116110f157829003601f168201915b50505050509350828054600181600116156101000203166002900480601f0160208091040260200160405190810160405280929190818152602001828054600181600116156101000203166002900480156111aa5780601f1061117f576101008083540402835291602001916111aa565b820191906000526020600020905b81548152906001019060200180831161118d57829003601f168201915b50505050509250818054600181600116156101000203166002900480601f0160208091040260200160405190810160405280929190818152602001828054600181600116156101000203166002900480156112465780601f1061121b57610100808354040283529160200191611246565b820191906000526020600020905b81548152906001019060200180831161122957829003601f168201915b50505050509150808054600181600116156101000203166002900480601f0160208091040260200160405190810160405280929190818152602001828054600181600116156101000203166002900480156112e25780601f106112b7576101008083540402835291602001916112e2565b820191906000526020600020905b8154815290600101906020018083116112c557829003601f168201915b50505050509050945094509450945094509091929394565b60038054600181600116156101000203166002900480601f0160208091040260200160405190810160405280929190818152602001828054600181600116156101000203166002900480156113905780601f1061136557610100808354040283529160200191611390565b820191906000526020600020905b81548152906001019060200180831161137357829003601f168201915b505050505081565b60008054906101000a900473ffffffffffffffffffffffffffffffffffffffff1673ffffffffffffffffffffffffffffffffffffffff163373ffffffffffffffffffffffffffffffffffffffff1614611459576040517f08c379a000000000000000000000000000000000000000000000000000000000815260040180806020018281038252601a8152602001807f4f6e6c792063616c6c61626c652062792072656769737472792e00000000000081525060200191505060405180910390fd5b6000600680549050141561146c5761153d565b600080600090505b600160068054905003811015611500578273ffffffffffffffffffffffffffffffffffffffff16600682815481106114a857fe5b9060005260206000200160009054906101000a900473ffffffffffffffffffffffffffffffffffffffff1673ffffffffffffffffffffffffffffffffffffffff1614156114f3578091505b8080600101915050611474565b506006818154811061150e57fe5b9060005260206000200160006101000a81549073ffffffffffffffffffffffffffffffffffffffff0219169055505b50565b828054600181600116156101000203166002900490600052602060002090601f01602090048101928261157657600085556115bd565b82601f1061158f57805160ff19168380011785556115bd565b828001600101855582156115bd579182015b828111156115bc5782518255916020019190600101906115a1565b5b5090506115ca91906115ce565b5090565b5b808211156115e75760008160009055506001016115cf565b509056fe4f6e6c792063616c6c61626c65206279207265676973747279206f72206f776e65722ea26469706673582212203405d2367f6a1e363123e7c3ff866ed5461386c66d9a28a7c5beb1b85867e9f464736f6c63430007060033476976656e207075626c6963206b657920646f6573206e6f742062656c6f6e6720746f207468652073656e6465724477656c6c657220697320616c726561647920696e2074686973207365727665722ea2646970667358221220a78a052cd3f555db07252666ece6c0da02563baaa4c8fed68f4b6648cdecc6c364736f6c63430007060033",
  "immutableReferences": {},
  "source": "// SPDX-License-Identifier: MIT\npragma solidity >=0.7.0 < 0.8.0;\n\nimport \"./DwellerID.sol\";\nimport \"./Server.sol\";\n\n/** \n * @title Vault74Registry\n * @dev Implements storage and assignment of Vault74 DwellerIDs\n */\ncontract Vault74Registry {\n    mapping(address => address) internal dwellers;\n\n    /**\n     * @dev Converts the given public key to ethereum address\n     * @return addr\n     */\n    function calculateAddress(bytes memory pub) public pure returns (address addr) {\n        bytes32 hash = keccak256(pub);\n        assembly {\n            mstore(0, hash)\n            addr := mload(0)\n        }    \n    }\n\n    modifier isPubKeyOwner(bytes memory pub) {\n        require(calculateAddress(pub) == msg.sender, \"Given public key does not belong to the sender\");\n        _;\n    }\n\n    /**\n     * @dev Create a new dweller identification contract\n     * @param name The name this dweller wishes to go by\n     */\n    function createDweller(string memory name, bytes memory pubkey) \n        public \n        isPubKeyOwner(pubkey)\n        returns(address newDwellerId) \n    {\n        // Make sure this user doesn't already have an ID assigned.\n        require(dwellers[msg.sender] == address(0), \"Dweller already registered\");\n        // Create a new ID for the sender.\n        DwellerID dwellerId = new DwellerID(name, msg.sender, pubkey);\n        dwellers[msg.sender] = address(dwellerId);\n        return address(dwellerId);\n    }\n\n    /**\n     * @dev Create a new Server contract and assign the sender as owner\n     * @param name Human readable name of the server\n     */\n    function createServer(bytes32 name)\n        public\n        returns(address serverAddress)\n    {\n        require(dwellers[msg.sender] != address(0), \"Please register an ID first.\");\n        DwellerID dweller = DwellerID(dwellers[msg.sender]);\n        Server server = new Server(name, msg.sender);\n        serverAddress = address(server);\n        dweller.joinServer(serverAddress);\n    }\n\n     /**\n     * @dev Get an identifiaction contract for a given dweller\n     * @param dweller The address of the dweller we're looking up\n     */\n    function getDwellerId(address dweller)\n        public\n        view\n        returns(address dwellerId)\n    {\n        return dwellers[dweller];\n    }\n\n    /**\n     * @dev If a user is not already a part of a server\n     * attempt to join a new server\n     * @param _server Address pointing to server contract to join\n     */\n    function joinServer(address _server) \n        public\n    {\n        require(dwellers[msg.sender] != address(0), \"Please register an ID first.\");\n        Server server = Server(_server);\n        server.join(msg.sender);\n        DwellerID dweller = DwellerID(dwellers[msg.sender]);\n        address[] memory servers = dweller.getServers();\n        for (uint i=0; i<servers.length; i++) {\n          require(servers[i] != _server, \"Dweller is already in this server.\");\n        }\n        dweller.joinServer(_server);\n    }\n\n    /**\n     * @dev If a user is a part of a server try to leave it\n     * @param _server Address pointing to server contract to leave\n     */\n    function leaveServer(address _server) \n        public\n    {\n        require(dwellers[msg.sender] != address(0), \"Please register an ID first.\");\n        DwellerID dweller = DwellerID(dwellers[msg.sender]);\n        address[] memory servers = dweller.getServers();\n        bool inServer = false;\n        for (uint i=0; i<servers.length; i++) {\n            if (servers[i] == _server) {\n                inServer = true;\n            }\n        }\n        require(inServer, \"Dweller is not in this server.\");\n        dweller.leaveServer(_server);\n        Server server = Server(_server);\n        address[] memory members = server.getMembers();\n        uint indx;\n        for (uint i=0; i<members.length; i++) {\n            if (members[i] == msg.sender) {\n                indx = i;\n            }\n        }\n        server.leave(indx);\n    }\n}",
  "sourcePath": "/Users/mtumiati/Knobs/satellite/Vault74-Contracts/contracts/Vault74Registry.sol",
  "compiler": {
    "name": "solc",
    "version": "0.7.6+commit.7338295f.Emscripten.clang"
  },
  "schemaVersion": "3.3.4",
  "updatedAt": "2021-05-04T09:56:22.193Z",
  "networkType": "ethereum",
  "devdoc": {
    "details": "Implements storage and assignment of Vault74 DwellerIDs",
    "kind": "dev",
    "methods": {
      "calculateAddress(bytes)": {
        "details": "Converts the given public key to ethereum address",
        "returns": {
          "addr": "addr"
        }
      },
      "createDweller(string,bytes)": {
        "details": "Create a new dweller identification contract",
        "params": {
          "name": "The name this dweller wishes to go by"
        }
      },
      "createServer(bytes32)": {
        "details": "Create a new Server contract and assign the sender as owner",
        "params": {
          "name": "Human readable name of the server"
        }
      },
      "getDwellerId(address)": {
        "details": "Get an identifiaction contract for a given dweller",
        "params": {
          "dweller": "The address of the dweller we're looking up"
        }
      },
      "joinServer(address)": {
        "details": "If a user is not already a part of a server attempt to join a new server",
        "params": {
          "_server": "Address pointing to server contract to join"
        }
      },
      "leaveServer(address)": {
        "details": "If a user is a part of a server try to leave it",
        "params": {
          "_server": "Address pointing to server contract to leave"
        }
      }
    },
    "title": "Vault74Registry",
    "version": 1
  },
  "userdoc": {
    "kind": "user",
    "methods": {},
    "version": 1
  }
}