{
  "contractName": "Vault74Registry",
  "abi": [
    {
      "inputs": [
        {
          "internalType": "bytes32",
          "name": "name",
          "type": "bytes32"
        }
      ],
      "name": "createDweller",
      "outputs": [
        {
          "internalType": "address",
          "name": "newDwellerId",
          "type": "address"
        }
      ],
      "stateMutability": "nonpayable",
      "type": "function"
    },
    {
      "inputs": [
        {
          "internalType": "bytes32",
          "name": "name",
          "type": "bytes32"
        }
      ],
      "name": "createServer",
      "outputs": [
        {
          "internalType": "address",
          "name": "serverAddress",
          "type": "address"
        }
      ],
      "stateMutability": "nonpayable",
      "type": "function"
    },
    {
      "inputs": [
        {
          "internalType": "address",
          "name": "dweller",
          "type": "address"
        }
      ],
      "name": "getDwellerId",
      "outputs": [
        {
          "internalType": "address",
          "name": "dwellerId",
          "type": "address"
        }
      ],
      "stateMutability": "view",
      "type": "function",
      "constant": true
    },
    {
      "inputs": [
        {
          "internalType": "address",
          "name": "_server",
          "type": "address"
        }
      ],
      "name": "joinServer",
      "outputs": [],
      "stateMutability": "nonpayable",
      "type": "function"
    },
    {
      "inputs": [
        {
          "internalType": "address",
          "name": "_server",
          "type": "address"
        }
      ],
      "name": "leaveServer",
      "outputs": [],
      "stateMutability": "nonpayable",
      "type": "function"
    }
  ],
  "bytecode": "0x608060405234801561001057600080fd5b50614279806100206000396000f3fe608060405234801561001057600080fd5b50600436106100575760003560e01c80631263e56f1461005c57806332aee87f146100b45780633ccea5d7146100f857806381a7c62714610150578063e6b678c1146101be575b600080fd5b6100886004803603602081101561007257600080fd5b8101908080359060200190929190505050610202565b604051808273ffffffffffffffffffffffffffffffffffffffff16815260200191505060405180910390f35b6100f6600480360360208110156100ca57600080fd5b81019080803573ffffffffffffffffffffffffffffffffffffffff169060200190929190505050610379565b005b6101246004803603602081101561010e57600080fd5b81019080803590602001909291905050506107bb565b604051808273ffffffffffffffffffffffffffffffffffffffff16815260200191505060405180910390f35b6101926004803603602081101561016657600080fd5b81019080803573ffffffffffffffffffffffffffffffffffffffff169060200190929190505050610a01565b604051808273ffffffffffffffffffffffffffffffffffffffff16815260200191505060405180910390f35b610200600480360360208110156101d457600080fd5b81019080803573ffffffffffffffffffffffffffffffffffffffff169060200190929190505050610a69565b005b600080339050600073ffffffffffffffffffffffffffffffffffffffff166000808373ffffffffffffffffffffffffffffffffffffffff1673ffffffffffffffffffffffffffffffffffffffff16815260200190815260200160002060009054906101000a900473ffffffffffffffffffffffffffffffffffffffff1673ffffffffffffffffffffffffffffffffffffffff161461029c57fe5b600083826040516102ac90611049565b808381526020018273ffffffffffffffffffffffffffffffffffffffff16815260200192505050604051809103906000f0801580156102ef573d6000803e3d6000fd5b509050806000808473ffffffffffffffffffffffffffffffffffffffff1673ffffffffffffffffffffffffffffffffffffffff16815260200190815260200160002060006101000a81548173ffffffffffffffffffffffffffffffffffffffff021916908373ffffffffffffffffffffffffffffffffffffffff1602179055508092505050919050565b600073ffffffffffffffffffffffffffffffffffffffff166000803373ffffffffffffffffffffffffffffffffffffffff1673ffffffffffffffffffffffffffffffffffffffff16815260200190815260200160002060009054906101000a900473ffffffffffffffffffffffffffffffffffffffff1673ffffffffffffffffffffffffffffffffffffffff16141561047a576040517f08c379a000000000000000000000000000000000000000000000000000000000815260040180806020018281038252601c8152602001807f506c6561736520726567697374657220616e2049442066697273742e0000000081525060200191505060405180910390fd5b60008190508073ffffffffffffffffffffffffffffffffffffffff166328ffe6c8336040518263ffffffff1660e01b8152600401808273ffffffffffffffffffffffffffffffffffffffff168152602001915050600060405180830381600087803b1580156104e857600080fd5b505af11580156104fc573d6000803e3d6000fd5b5050505060008060003373ffffffffffffffffffffffffffffffffffffffff1673ffffffffffffffffffffffffffffffffffffffff16815260200190815260200160002060009054906101000a900473ffffffffffffffffffffffffffffffffffffffff16905060608173ffffffffffffffffffffffffffffffffffffffff166375c1c7e76040518163ffffffff1660e01b815260040160006040518083038186803b1580156105ab57600080fd5b505afa1580156105bf573d6000803e3d6000fd5b505050506040513d6000823e3d601f19601f8201168201806040525060208110156105e957600080fd5b810190808051604051939291908464010000000082111561060957600080fd5b8382019150602082018581111561061f57600080fd5b825186602082028301116401000000008211171561063c57600080fd5b8083526020830192505050908051906020019060200280838360005b83811015610673578082015181840152602081019050610658565b50505050905001604052505050905060005b8151811015610733578473ffffffffffffffffffffffffffffffffffffffff168282815181106106b157fe5b602002602001015173ffffffffffffffffffffffffffffffffffffffff161415610726576040517f08c379a00000000000000000000000000000000000000000000000000000000081526004018080602001828103825260228152602001806142226022913960400191505060405180910390fd5b8080600101915050610685565b508173ffffffffffffffffffffffffffffffffffffffff166332aee87f856040518263ffffffff1660e01b8152600401808273ffffffffffffffffffffffffffffffffffffffff168152602001915050600060405180830381600087803b15801561079d57600080fd5b505af11580156107b1573d6000803e3d6000fd5b5050505050505050565b60008073ffffffffffffffffffffffffffffffffffffffff166000803373ffffffffffffffffffffffffffffffffffffffff1673ffffffffffffffffffffffffffffffffffffffff16815260200190815260200160002060009054906101000a900473ffffffffffffffffffffffffffffffffffffffff1673ffffffffffffffffffffffffffffffffffffffff1614156108bd576040517f08c379a000000000000000000000000000000000000000000000000000000000815260040180806020018281038252601c8152602001807f506c6561736520726567697374657220616e2049442066697273742e0000000081525060200191505060405180910390fd5b60008060003373ffffffffffffffffffffffffffffffffffffffff1673ffffffffffffffffffffffffffffffffffffffff16815260200190815260200160002060009054906101000a900473ffffffffffffffffffffffffffffffffffffffff1690506000833360405161093090611056565b808381526020018273ffffffffffffffffffffffffffffffffffffffff16815260200192505050604051809103906000f080158015610973573d6000803e3d6000fd5b5090508092508173ffffffffffffffffffffffffffffffffffffffff166332aee87f846040518263ffffffff1660e01b8152600401808273ffffffffffffffffffffffffffffffffffffffff168152602001915050600060405180830381600087803b1580156109e257600080fd5b505af11580156109f6573d6000803e3d6000fd5b505050505050919050565b60008060008373ffffffffffffffffffffffffffffffffffffffff1673ffffffffffffffffffffffffffffffffffffffff16815260200190815260200160002060009054906101000a900473ffffffffffffffffffffffffffffffffffffffff169050919050565b600073ffffffffffffffffffffffffffffffffffffffff166000803373ffffffffffffffffffffffffffffffffffffffff1673ffffffffffffffffffffffffffffffffffffffff16815260200190815260200160002060009054906101000a900473ffffffffffffffffffffffffffffffffffffffff1673ffffffffffffffffffffffffffffffffffffffff161415610b6a576040517f08c379a000000000000000000000000000000000000000000000000000000000815260040180806020018281038252601c8152602001807f506c6561736520726567697374657220616e2049442066697273742e0000000081525060200191505060405180910390fd5b60008060003373ffffffffffffffffffffffffffffffffffffffff1673ffffffffffffffffffffffffffffffffffffffff16815260200190815260200160002060009054906101000a900473ffffffffffffffffffffffffffffffffffffffff16905060608173ffffffffffffffffffffffffffffffffffffffff166375c1c7e76040518163ffffffff1660e01b815260040160006040518083038186803b158015610c1557600080fd5b505afa158015610c29573d6000803e3d6000fd5b505050506040513d6000823e3d601f19601f820116820180604052506020811015610c5357600080fd5b8101908080516040519392919084640100000000821115610c7357600080fd5b83820191506020820185811115610c8957600080fd5b8251866020820283011164010000000082111715610ca657600080fd5b8083526020830192505050908051906020019060200280838360005b83811015610cdd578082015181840152602081019050610cc2565b5050505090500160405250505090506000805b8251811015610d52578473ffffffffffffffffffffffffffffffffffffffff16838281518110610d1c57fe5b602002602001015173ffffffffffffffffffffffffffffffffffffffff161415610d4557600191505b8080600101915050610cf0565b5080610dc6576040517f08c379a000000000000000000000000000000000000000000000000000000000815260040180806020018281038252601e8152602001807f4477656c6c6572206973206e6f7420696e2074686973207365727665722e000081525060200191505060405180910390fd5b8273ffffffffffffffffffffffffffffffffffffffff1663e6b678c1856040518263ffffffff1660e01b8152600401808273ffffffffffffffffffffffffffffffffffffffff168152602001915050600060405180830381600087803b158015610e2f57600080fd5b505af1158015610e43573d6000803e3d6000fd5b50505050600084905060608173ffffffffffffffffffffffffffffffffffffffff16639eab52536040518163ffffffff1660e01b815260040160006040518083038186803b158015610e9457600080fd5b505afa158015610ea8573d6000803e3d6000fd5b505050506040513d6000823e3d601f19601f820116820180604052506020811015610ed257600080fd5b8101908080516040519392919084640100000000821115610ef257600080fd5b83820191506020820185811115610f0857600080fd5b8251866020820283011164010000000082111715610f2557600080fd5b8083526020830192505050908051906020019060200280838360005b83811015610f5c578082015181840152602081019050610f41565b505050509050016040525050509050600080600090505b8251811015610fd4573373ffffffffffffffffffffffffffffffffffffffff16838281518110610f9f57fe5b602002602001015173ffffffffffffffffffffffffffffffffffffffff161415610fc7578091505b8080600101915050610f73565b508273ffffffffffffffffffffffffffffffffffffffff166367dfd4c9826040518263ffffffff1660e01b815260040180828152602001915050600060405180830381600087803b15801561102857600080fd5b505af115801561103c573d6000803e3d6000fd5b5050505050505050505050565b610c628061106483390190565b61255c80611cc68339019056fe608060405234801561001057600080fd5b50604051610c62380380610c628339818101604052604081101561003357600080fd5b810190808051906020019092919080519060200190929190505050336000806101000a81548173ffffffffffffffffffffffffffffffffffffffff021916908373ffffffffffffffffffffffffffffffffffffffff16021790555080600160006101000a81548173ffffffffffffffffffffffffffffffffffffffff021916908373ffffffffffffffffffffffffffffffffffffffff16021790555081600281905550600160009054906101000a900473ffffffffffffffffffffffffffffffffffffffff1673ffffffffffffffffffffffffffffffffffffffff167f7ad616c31c10c22596ef8cf9862a7806725e419456cfef5415b40f0c04f0c27760405160405180910390a25050610b168061014c6000396000f3fe608060405234801561001057600080fd5b506004361061009e5760003560e01c8063983f669b11610066578063983f669b14610213578063b2ec005e1461025c578063bf1de8fa146102df578063e6b678c1146102fd578063ea0b1a7b146103415761009e565b806332aee87f146100a35780634907aba0146100e757806375c1c7e71461014c5780637b103999146101ab57806394b489cd146101df575b600080fd5b6100e5600480360360208110156100b957600080fd5b81019080803573ffffffffffffffffffffffffffffffffffffffff16906020019092919050505061036f565b005b61014a600480360360408110156100fd57600080fd5b8101908080604001906002806020026040519081016040528092919082600260200280828437600081840152601f19601f8201169050808301925050505050509192919290505050610496565b005b6101546105be565b6040518080602001828103825283818151815260200191508051906020019060200280838360005b8381101561019757808201518184015260208101905061017c565b505050509050019250505060405180910390f35b6101b3610748565b604051808273ffffffffffffffffffffffffffffffffffffffff16815260200191505060405180910390f35b6101e761076c565b604051808273ffffffffffffffffffffffffffffffffffffffff16815260200191505060405180910390f35b61021b610796565b604051808573ffffffffffffffffffffffffffffffffffffffff16815260200184815260200183815260200182815260200194505050505060405180910390f35b6102646107d6565b6040518080602001828103825283818151815260200191508051906020019080838360005b838110156102a4578082015181840152602081019050610289565b50505050905090810190601f1680156102d15780820380516001836020036101000a031916815260200191505b509250505060405180910390f35b6102e761083e565b6040518082815260200191505060405180910390f35b61033f6004803603602081101561031357600080fd5b81019080803573ffffffffffffffffffffffffffffffffffffffff169060200190929190505050610848565b005b61036d6004803603602081101561035757600080fd5b81019080803590602001909291905050506109f0565b005b60008054906101000a900473ffffffffffffffffffffffffffffffffffffffff1673ffffffffffffffffffffffffffffffffffffffff163373ffffffffffffffffffffffffffffffffffffffff1614610430576040517f08c379a000000000000000000000000000000000000000000000000000000000815260040180806020018281038252601a8152602001807f4f6e6c792063616c6c61626c652062792072656769737472792e00000000000081525060200191505060405180910390fd5b6005819080600181540180825580915050600190039060005260206000200160009091909190916101000a81548173ffffffffffffffffffffffffffffffffffffffff021916908373ffffffffffffffffffffffffffffffffffffffff16021790555050565b600160009054906101000a900473ffffffffffffffffffffffffffffffffffffffff1673ffffffffffffffffffffffffffffffffffffffff163373ffffffffffffffffffffffffffffffffffffffff1614610559576040517f08c379a00000000000000000000000000000000000000000000000000000000081526004018080602001828103825260208152602001807f4e6f7420746865206477656c6c657220776527726520657870656374696e672e81525060200191505060405180910390fd5b8060006002811061056657fe5b60200201516003819055508060016002811061057e57fe5b60200201516004819055506004546003547fb1101f1c17bd0104e6b31706b3268944399b3ee606cb859f3563ff3e184025ce60405160405180910390a350565b606060008054906101000a900473ffffffffffffffffffffffffffffffffffffffff1673ffffffffffffffffffffffffffffffffffffffff163373ffffffffffffffffffffffffffffffffffffffff1614806106675750600160009054906101000a900473ffffffffffffffffffffffffffffffffffffffff1673ffffffffffffffffffffffffffffffffffffffff163373ffffffffffffffffffffffffffffffffffffffff16145b6106bc576040517f08c379a0000000000000000000000000000000000000000000000000000000008152600401808060200182810382526023815260200180610abe6023913960400191505060405180910390fd5b600580548060200260200160405190810160405280929190818152602001828054801561073e57602002820191906000526020600020905b8160009054906101000a900473ffffffffffffffffffffffffffffffffffffffff1673ffffffffffffffffffffffffffffffffffffffff16815260200190600101908083116106f4575b5050505050905090565b60008054906101000a900473ffffffffffffffffffffffffffffffffffffffff1681565b6000600160009054906101000a900473ffffffffffffffffffffffffffffffffffffffff16905090565b600080600080600160009054906101000a900473ffffffffffffffffffffffffffffffffffffffff16600254600354600454935093509350935090919293565b606080604067ffffffffffffffff811180156107f157600080fd5b506040519080825280601f01601f1916602001820160405280156108245781602001600182028036833780820191505090505b509050600354602082015260045460408201528091505090565b6000600254905090565b60008054906101000a900473ffffffffffffffffffffffffffffffffffffffff1673ffffffffffffffffffffffffffffffffffffffff163373ffffffffffffffffffffffffffffffffffffffff1614610909576040517f08c379a000000000000000000000000000000000000000000000000000000000815260040180806020018281038252601a8152602001807f4f6e6c792063616c6c61626c652062792072656769737472792e00000000000081525060200191505060405180910390fd5b6000600580549050141561091c576109ed565b600080600090505b6001600580549050038110156109b0578273ffffffffffffffffffffffffffffffffffffffff166005828154811061095857fe5b9060005260206000200160009054906101000a900473ffffffffffffffffffffffffffffffffffffffff1673ffffffffffffffffffffffffffffffffffffffff1614156109a3578091505b8080600101915050610924565b50600581815481106109be57fe5b9060005260206000200160006101000a81549073ffffffffffffffffffffffffffffffffffffffff0219169055505b50565b600160009054906101000a900473ffffffffffffffffffffffffffffffffffffffff1673ffffffffffffffffffffffffffffffffffffffff163373ffffffffffffffffffffffffffffffffffffffff1614610ab3576040517f08c379a00000000000000000000000000000000000000000000000000000000081526004018080602001828103825260208152602001807f4e6f7420746865206477656c6c657220776527726520657870656374696e672e81525060200191505060405180910390fd5b806002819055505056fe4f6e6c792063616c6c61626c65206279207265676973747279206f72206f776e65722ea2646970667358221220bbeb5584035621feec0b90cec7d051e2d51540b884aa76fdd318ec4daf5ae5ce64736f6c63430007000033608060405234801561001057600080fd5b5060405161255c38038061255c8339818101604052604081101561003357600080fd5b810190808051906020019092919080519060200190929190505050336000806101000a81548173ffffffffffffffffffffffffffffffffffffffff021916908373ffffffffffffffffffffffffffffffffffffffff16021790555080600160006101000a81548173ffffffffffffffffffffffffffffffffffffffff021916908373ffffffffffffffffffffffffffffffffffffffff16021790555081600281905550600160096000600160009054906101000a900473ffffffffffffffffffffffffffffffffffffffff1673ffffffffffffffffffffffffffffffffffffffff1673ffffffffffffffffffffffffffffffffffffffff16815260200190815260200160002060006101000a81548160ff0219169083151502179055506007819080600181540180825580915050600190039060005260206000200160009091909190916101000a81548173ffffffffffffffffffffffffffffffffffffffff021916908373ffffffffffffffffffffffffffffffffffffffff160217905550600160009054906101000a900473ffffffffffffffffffffffffffffffffffffffff1673ffffffffffffffffffffffffffffffffffffffff167f7ad616c31c10c22596ef8cf9862a7806725e419456cfef5415b40f0c04f0c27760405160405180910390a2600160009054906101000a900473ffffffffffffffffffffffffffffffffffffffff1673ffffffffffffffffffffffffffffffffffffffff167f44d6d25963f097ad14f29f06854a01f575648a1ef82f30e562ccd3889717e33960405160405180910390a250506122ce8061028e6000396000f3fe608060405234801561001057600080fd5b50600436106101da5760003560e01c80638f12c19611610104578063b45bea01116100a2578063dcd496e211610071578063dcd496e214610938578063e5949b5d1461099d578063f8024d10146109df578063ffa2475e14610a37576101da565b8063b45bea0114610838578063c72b517614610873578063cd8b9b7c146108d2578063d425065f14610900576101da565b806396324bd4116100de57806396324bd4146106915780639eab5253146106d3578063acaa298214610732578063b2ec005e146107b5576101da565b80638f12c196146105d657806394638da5146106045780639575f6ac14610632576101da565b806364afef301161017c5780637a9750901161014b5780637a975090146104da5780637b103999146105125780637dc16839146105465780638adf23b914610592576101da565b806364afef30146103b457806367dfd4c91461040e578063704802751461043c57806376be158514610480576101da565b80632f890b93116101b85780632f890b93146102855780634907aba0146102c95780635ac801fe1461032e5780635daf08ca1461035c576101da565b806306fdde03146101df5780631785f53c146101fd57806328ffe6c814610241575b600080fd5b6101e7610a7c565b6040518082815260200191505060405180910390f35b61023f6004803603602081101561021357600080fd5b81019080803573ffffffffffffffffffffffffffffffffffffffff169060200190929190505050610a82565b005b6102836004803603602081101561025757600080fd5b81019080803573ffffffffffffffffffffffffffffffffffffffff169060200190929190505050610c8a565b005b6102c76004803603602081101561029b57600080fd5b81019080803573ffffffffffffffffffffffffffffffffffffffff169060200190929190505050610e80565b005b61032c600480360360408110156102df57600080fd5b8101908080604001906002806020026040519081016040528092919082600260200280828437600081840152601f19601f8201169050808301925050505050509192919290505050610fdd565b005b61035a6004803603602081101561034457600080fd5b8101908080359060200190929190505050611101565b005b6103886004803603602081101561037257600080fd5b81019080803590602001909291905050506111f7565b604051808273ffffffffffffffffffffffffffffffffffffffff16815260200191505060405180910390f35b6103f6600480360360208110156103ca57600080fd5b81019080803573ffffffffffffffffffffffffffffffffffffffff169060200190929190505050611233565b60405180821515815260200191505060405180910390f35b61043a6004803603602081101561042457600080fd5b8101908080359060200190929190505050611253565b005b61047e6004803603602081101561045257600080fd5b81019080803573ffffffffffffffffffffffffffffffffffffffff1690602001909291905050506113ae565b005b6104c26004803603602081101561049657600080fd5b81019080803573ffffffffffffffffffffffffffffffffffffffff16906020019092919050505061150f565b60405180821515815260200191505060405180910390f35b610510600480360360408110156104f057600080fd5b81019080803590602001909291908035906020019092919050505061152f565b005b61051a61165a565b604051808273ffffffffffffffffffffffffffffffffffffffff16815260200191505060405180910390f35b61057c6004803603604081101561055c57600080fd5b81019080803590602001909291908035906020019092919050505061167e565b6040518082815260200191505060405180910390f35b6105d4600480360360208110156105a857600080fd5b81019080803573ffffffffffffffffffffffffffffffffffffffff1690602001909291905050506116ac565b005b610602600480360360208110156105ec57600080fd5b8101908080359060200190929190505050611809565b005b6106306004803603602081101561061a57600080fd5b8101908080359060200190929190505050611921565b005b61063a611a6b565b6040518080602001828103825283818151815260200191508051906020019060200280838360005b8381101561067d578082015181840152602081019050610662565b505050509050019250505060405180910390f35b6106bd600480360360208110156106a757600080fd5b8101908080359060200190929190505050611ac3565b6040518082815260200191505060405180910390f35b6106db611ae4565b6040518080602001828103825283818151815260200191508051906020019060200280838360005b8381101561071e578082015181840152602081019050610703565b505050509050019250505060405180910390f35b61073a611b72565b6040518080602001828103825283818151815260200191508051906020019080838360005b8381101561077a57808201518184015260208101905061075f565b50505050905090810190601f1680156107a75780820380516001836020036101000a031916815260200191505b509250505060405180910390f35b6107bd611bda565b6040518080602001828103825283818151815260200191508051906020019080838360005b838110156107fd5780820151818401526020810190506107e2565b50505050905090810190601f16801561082a5780820380516001836020036101000a031916815260200191505b509250505060405180910390f35b6108716004803603604081101561084e57600080fd5b8101908080359060200190929190803560ff169060200190929190505050611c42565b005b61087b611d8b565b6040518080602001828103825283818151815260200191508051906020019060200280838360005b838110156108be5780820151818401526020810190506108a3565b505050509050019250505060405180910390f35b6108fe600480360360208110156108e857600080fd5b8101908080359060200190929190505050611de3565b005b6109366004803603604081101561091657600080fd5b810190808035906020019092919080359060200190929190505050611f29565b005b61099b6004803603604081101561094e57600080fd5b8101908080604001906002806020026040519081016040528092919082600260200280828437600081840152601f19601f8201169050808301925050505050509192919290505050612045565b005b6109c9600480360360208110156109b357600080fd5b8101908080359060200190929190505050612169565b6040518082815260200191505060405180910390f35b610a0b600480360360208110156109f557600080fd5b810190808035906020019092919050505061218a565b604051808273ffffffffffffffffffffffffffffffffffffffff16815260200191505060405180910390f35b610a6360048036036020811015610a4d57600080fd5b81019080803590602001909291905050506121cb565b604051808260ff16815260200191505060405180910390f35b60025481565b600160009054906101000a900473ffffffffffffffffffffffffffffffffffffffff1673ffffffffffffffffffffffffffffffffffffffff163373ffffffffffffffffffffffffffffffffffffffff1614610b45576040517f08c379a00000000000000000000000000000000000000000000000000000000081526004018080602001828103825260208152602001807f4e6f7420746865206477656c6c657220776527726520657870656374696e672e81525060200191505060405180910390fd5b600160009054906101000a900473ffffffffffffffffffffffffffffffffffffffff1673ffffffffffffffffffffffffffffffffffffffff168173ffffffffffffffffffffffffffffffffffffffff161415610bec576040517f08c379a000000000000000000000000000000000000000000000000000000000815260040180806020018281038252602381526020018061222a6023913960400191505060405180910390fd5b6000600960008373ffffffffffffffffffffffffffffffffffffffff1673ffffffffffffffffffffffffffffffffffffffff16815260200190815260200160002060006101000a81548160ff0219169083151502179055508073ffffffffffffffffffffffffffffffffffffffff167fa3b62bc36326052d97ea62d63c3d60308ed4c3ea8ac079dd8499f1e9c4f80c0f60405160405180910390a250565b60008054906101000a900473ffffffffffffffffffffffffffffffffffffffff1673ffffffffffffffffffffffffffffffffffffffff163373ffffffffffffffffffffffffffffffffffffffff1614610d2e576040517f08c379a000000000000000000000000000000000000000000000000000000000815260040180806020018281038252602381526020018061224d6023913960400191505060405180910390fd5b60011515600860008373ffffffffffffffffffffffffffffffffffffffff1673ffffffffffffffffffffffffffffffffffffffff16815260200190815260200160002060009054906101000a900460ff16151514610dd7576040517f08c379a00000000000000000000000000000000000000000000000000000000081526004018080602001828103825260298152602001806122706029913960400191505060405180910390fd5b6007819080600181540180825580915050600190039060005260206000200160009091909190916101000a81548173ffffffffffffffffffffffffffffffffffffffff021916908373ffffffffffffffffffffffffffffffffffffffff1602179055508073ffffffffffffffffffffffffffffffffffffffff167f0abf3b3f643594d958297062a019458e27d7766629590ac621aa1000fa1298ab60405160405180910390a250565b600960003373ffffffffffffffffffffffffffffffffffffffff1673ffffffffffffffffffffffffffffffffffffffff16815260200190815260200160002060009054906101000a900460ff16610f3f576040517f08c379a000000000000000000000000000000000000000000000000000000000815260040180806020018281038252601a8152602001807f4e6f7420617574686f72697a656420746f20646f20746861742e00000000000081525060200191505060405180910390fd5b6001600860008373ffffffffffffffffffffffffffffffffffffffff1673ffffffffffffffffffffffffffffffffffffffff16815260200190815260200160002060006101000a81548160ff0219169083151502179055508073ffffffffffffffffffffffffffffffffffffffff167fc45331953289455b6552aec540792d4ab36cb2b0923c6402ce8f5bb3206fd55160405160405180910390a250565b600960003373ffffffffffffffffffffffffffffffffffffffff1673ffffffffffffffffffffffffffffffffffffffff16815260200190815260200160002060009054906101000a900460ff1661109c576040517f08c379a000000000000000000000000000000000000000000000000000000000815260040180806020018281038252601a8152602001807f4e6f7420617574686f72697a656420746f20646f20746861742e00000000000081525060200191505060405180910390fd5b806000600281106110a957fe5b6020020151600381905550806001600281106110c157fe5b60200201516004819055506004546003547fb1101f1c17bd0104e6b31706b3268944399b3ee606cb859f3563ff3e184025ce60405160405180910390a350565b600960003373ffffffffffffffffffffffffffffffffffffffff1673ffffffffffffffffffffffffffffffffffffffff16815260200190815260200160002060009054906101000a900460ff166111c0576040517f08c379a000000000000000000000000000000000000000000000000000000000815260040180806020018281038252601a8152602001807f4e6f7420617574686f72697a656420746f20646f20746861742e00000000000081525060200191505060405180910390fd5b807fb0a4d76c825dc814a59c1a90f520a677f3f0843980294ef90afe1d7616a1cf7060405160405180910390a28060028190555050565b6007818154811061120457fe5b906000526020600020016000915054906101000a900473ffffffffffffffffffffffffffffffffffffffff1681565b60086020528060005260406000206000915054906101000a900460ff1681565b60008054906101000a900473ffffffffffffffffffffffffffffffffffffffff1673ffffffffffffffffffffffffffffffffffffffff163373ffffffffffffffffffffffffffffffffffffffff16146112f7576040517f08c379a000000000000000000000000000000000000000000000000000000000815260040180806020018281038252602381526020018061224d6023913960400191505060405180910390fd5b6007818154811061130457fe5b9060005260206000200160006101000a81549073ffffffffffffffffffffffffffffffffffffffff02191690556007818154811061133e57fe5b9060005260206000200160009054906101000a900473ffffffffffffffffffffffffffffffffffffffff1673ffffffffffffffffffffffffffffffffffffffff167fbea911b50ccdd2233b28faa49766c3cbd0631608f32e5a724d7b83b32b681ad060405160405180910390a250565b600160009054906101000a900473ffffffffffffffffffffffffffffffffffffffff1673ffffffffffffffffffffffffffffffffffffffff163373ffffffffffffffffffffffffffffffffffffffff1614611471576040517f08c379a00000000000000000000000000000000000000000000000000000000081526004018080602001828103825260208152602001807f4e6f7420746865206477656c6c657220776527726520657870656374696e672e81525060200191505060405180910390fd5b6001600960008373ffffffffffffffffffffffffffffffffffffffff1673ffffffffffffffffffffffffffffffffffffffff16815260200190815260200160002060006101000a81548160ff0219169083151502179055508073ffffffffffffffffffffffffffffffffffffffff167f44d6d25963f097ad14f29f06854a01f575648a1ef82f30e562ccd3889717e33960405160405180910390a250565b60096020528060005260406000206000915054906101000a900460ff1681565b600960003373ffffffffffffffffffffffffffffffffffffffff1673ffffffffffffffffffffffffffffffffffffffff16815260200190815260200160002060009054906101000a900460ff166115ee576040517f08c379a000000000000000000000000000000000000000000000000000000000815260040180806020018281038252601a8152602001807f4e6f7420617574686f72697a656420746f20646f20746861742e00000000000081525060200191505060405180910390fd5b600d600083815260200190815260200160002081908060018154018082558091505060019003906000526020600020016000909190919091505580827f546e9fb79eaf9a3211963312983fb663b2502766181ef2c7009a87e335f5451760405160405180910390a35050565b60008054906101000a900473ffffffffffffffffffffffffffffffffffffffff1681565b600d602052816000526040600020818154811061169757fe5b90600052602060002001600091509150505481565b600960003373ffffffffffffffffffffffffffffffffffffffff1673ffffffffffffffffffffffffffffffffffffffff16815260200190815260200160002060009054906101000a900460ff1661176b576040517f08c379a000000000000000000000000000000000000000000000000000000000815260040180806020018281038252601a8152602001807f4e6f7420617574686f72697a656420746f20646f20746861742e00000000000081525060200191505060405180910390fd5b6000600860008373ffffffffffffffffffffffffffffffffffffffff1673ffffffffffffffffffffffffffffffffffffffff16815260200190815260200160002060006101000a81548160ff0219169083151502179055508073ffffffffffffffffffffffffffffffffffffffff167f745cd29407db644ed93e3ceb61cbcab96d1dfb496989ac5d5bf514fc5a9fab9c60405160405180910390a250565b600960003373ffffffffffffffffffffffffffffffffffffffff1673ffffffffffffffffffffffffffffffffffffffff16815260200190815260200160002060009054906101000a900460ff166118c8576040517f08c379a000000000000000000000000000000000000000000000000000000000815260040180806020018281038252601a8152602001807f4e6f7420617574686f72697a656420746f20646f20746861742e00000000000081525060200191505060405180910390fd5b600c819080600181540180825580915050600190039060005260206000200160009091909190915055807f68f2001f3d21c00cd78cc99ed066e602521463b601394d6b4b0664ceed39461160405160405180910390a250565b600960003373ffffffffffffffffffffffffffffffffffffffff1673ffffffffffffffffffffffffffffffffffffffff16815260200190815260200160002060009054906101000a900460ff166119e0576040517f08c379a000000000000000000000000000000000000000000000000000000000815260040180806020018281038252601a8152602001807f4e6f7420617574686f72697a656420746f20646f20746861742e00000000000081525060200191505060405180910390fd5b6000600a82815481106119ef57fe5b90600052602060002001549050600a8281548110611a0957fe5b9060005260206000200160009055600b600082815260200190815260200160002060006101000a81549060ff0219169055807f5de34b3ec8e5a6a0329f529aa00c1f5e33b45ee79d414001e68e4a0179d7412e60405160405180910390a25050565b6060600a805480602002602001604051908101604052809291908181526020018280548015611ab957602002820191906000526020600020905b815481526020019060010190808311611aa5575b5050505050905090565b600c8181548110611ad057fe5b906000526020600020016000915090505481565b60606007805480602002602001604051908101604052809291908181526020018280548015611b6857602002820191906000526020600020905b8160009054906101000a900473ffffffffffffffffffffffffffffffffffffffff1673ffffffffffffffffffffffffffffffffffffffff1681526020019060010190808311611b1e575b5050505050905090565b606080604067ffffffffffffffff81118015611b8d57600080fd5b506040519080825280601f01601f191660200182016040528015611bc05781602001600182028036833780820191505090505b509050600554602082015260065460408201528091505090565b606080604067ffffffffffffffff81118015611bf557600080fd5b506040519080825280601f01601f191660200182016040528015611c285781602001600182028036833780820191505090505b509050600354602082015260045460408201528091505090565b600960003373ffffffffffffffffffffffffffffffffffffffff1673ffffffffffffffffffffffffffffffffffffffff16815260200190815260200160002060009054906101000a900460ff16611d01576040517f08c379a000000000000000000000000000000000000000000000000000000000815260040180806020018281038252601a8152602001807f4e6f7420617574686f72697a656420746f20646f20746861742e00000000000081525060200191505060405180910390fd5b600a82908060018154018082558091505060019003906000526020600020016000909190919091505580600b600084815260200190815260200160002060006101000a81548160ff021916908360ff1602179055508060ff16827f1c13b30228b6d19b2bac97346da74380ac7e838dd8d172451d3e39a8c6c2b65c60405160405180910390a35050565b6060600c805480602002602001604051908101604052809291908181526020018280548015611dd957602002820191906000526020600020905b815481526020019060010190808311611dc5575b5050505050905090565b600960003373ffffffffffffffffffffffffffffffffffffffff1673ffffffffffffffffffffffffffffffffffffffff16815260200190815260200160002060009054906101000a900460ff16611ea2576040517f08c379a000000000000000000000000000000000000000000000000000000000815260040180806020018281038252601a8152602001807f4e6f7420617574686f72697a656420746f20646f20746861742e00000000000081525060200191505060405180910390fd5b6000600c8281548110611eb157fe5b90600052602060002001549050600d60008281526020019081526020016000206000611edd91906121eb565b600c8281548110611eea57fe5b9060005260206000200160009055807fb263dc5411a180f49f3c853fbfe2c39f8c88eab0bce5b71c01fc966cd25c5b4b60405160405180910390a25050565b600960003373ffffffffffffffffffffffffffffffffffffffff1673ffffffffffffffffffffffffffffffffffffffff16815260200190815260200160002060009054906101000a900460ff16611fe8576040517f08c379a000000000000000000000000000000000000000000000000000000000815260040180806020018281038252601a8152602001807f4e6f7420617574686f72697a656420746f20646f20746861742e00000000000081525060200191505060405180910390fd5b600d6000838152602001908152602001600020818154811061200657fe5b9060005260206000200160009055817f127f1c981a721f1c2dce3d0810d2412cfcaffe97b2d5fc40abd41779805b5b3c60405160405180910390a25050565b600960003373ffffffffffffffffffffffffffffffffffffffff1673ffffffffffffffffffffffffffffffffffffffff16815260200190815260200160002060009054906101000a900460ff16612104576040517f08c379a000000000000000000000000000000000000000000000000000000000815260040180806020018281038252601a8152602001807f4e6f7420617574686f72697a656420746f20646f20746861742e00000000000081525060200191505060405180910390fd5b8060006002811061211157fe5b60200201516005819055508060016002811061212957fe5b60200201516006819055506006546005547fb1101f1c17bd0104e6b31706b3268944399b3ee606cb859f3563ff3e184025ce60405160405180910390a350565b600a818154811061217657fe5b906000526020600020016000915090505481565b60006007828154811061219957fe5b9060005260206000200160009054906101000a900473ffffffffffffffffffffffffffffffffffffffff169050919050565b600b6020528060005260406000206000915054906101000a900460ff1681565b5080546000825590600052602060002090810190612209919061220c565b50565b5b8082111561222557600081600090555060010161220d565b509056fe596f752063616e27742072656d6f766520746865206f776e65722061732061646d696e4f6e6c7920746865207265676973747279206d6179206578656375746520746869732e4d656d626572206e6f7420617574686f72697a656420746f206a6f696e20746865207365727665722ea2646970667358221220c7ed8fd313cd40614df6db4771e0bd59c1d58004a98287aac8c8db5ba5ef905064736f6c634300070000334477656c6c657220697320616c726561647920696e2074686973207365727665722ea2646970667358221220ffc50a01896eafed86aa34dbcc24e665ce1ad6d2b3862cecac032bdd2bc7b68864736f6c63430007000033",
  "immutableReferences": {},
  "source": "// SPDX-License-Identifier: MIT\npragma solidity >=0.7.0 < 0.8.0;\n\nimport \"./DwellerID.sol\";\nimport \"./Server.sol\";\n\n/** \n * @title Vault74Registry\n * @dev Implements storage and assignment of Vault74 DwellerIDs\n */\ncontract Vault74Registry {\n    mapping(address => address) internal dwellers;\n\n    /**\n     * @dev Create a new dweller identification contract\n     * @param name The name this dweller wishes to go by\n     */\n    function createDweller(bytes32 name) \n        public \n        returns(address newDwellerId) \n    {\n        address sender = msg.sender;\n        // Make sure this user doesn't already have an ID assigned.\n        assert(dwellers[sender] == address(0));\n        // Create a new ID for the sender.\n        DwellerID dwellerId = new DwellerID(name, sender);\n        dwellers[sender] = address(dwellerId);\n        return address(dwellerId);\n    }\n\n    /**\n     * @dev Create a new Server contract and assign the sender as owner\n     * @param name Human readable name of the server\n     */\n    function createServer(bytes32 name)\n        public\n        returns(address serverAddress)\n    {\n        require(dwellers[msg.sender] != address(0), \"Please register an ID first.\");\n        DwellerID dweller = DwellerID(dwellers[msg.sender]);\n        Server server = new Server(name, msg.sender);\n        serverAddress = address(server);\n        dweller.joinServer(serverAddress);\n    }\n\n     /**\n     * @dev Get an identifiaction contract for a given dweller\n     * @param dweller The address of the dweller we're looking up\n     */\n    function getDwellerId(address dweller)\n        public\n        view\n        returns(address dwellerId)\n    {\n        return dwellers[dweller];\n    }\n\n    /**\n     * @dev If a user is not already a part of a server\n     * attempt to join a new server\n     * @param _server Address pointing to server contract to join\n     */\n    function joinServer(address _server) \n        public\n    {\n        require(dwellers[msg.sender] != address(0), \"Please register an ID first.\");\n        Server server = Server(_server);\n        server.join(msg.sender);\n        DwellerID dweller = DwellerID(dwellers[msg.sender]);\n        address[] memory servers = dweller.getServers();\n        for (uint i=0; i<servers.length; i++) {\n          require(servers[i] != _server, \"Dweller is already in this server.\");\n        }\n        dweller.joinServer(_server);\n    }\n\n    /**\n     * @dev If a user is a part of a server try to leave it\n     * @param _server Address pointing to server contract to leave\n     */\n    function leaveServer(address _server) \n        public\n    {\n        require(dwellers[msg.sender] != address(0), \"Please register an ID first.\");\n        DwellerID dweller = DwellerID(dwellers[msg.sender]);\n        address[] memory servers = dweller.getServers();\n        bool inServer = false;\n        for (uint i=0; i<servers.length; i++) {\n            if (servers[i] == _server) {\n                inServer = true;\n            }\n        }\n        require(inServer, \"Dweller is not in this server.\");\n        dweller.leaveServer(_server);\n        Server server = Server(_server);\n        address[] memory members = server.getMembers();\n        uint indx;\n        for (uint i=0; i<members.length; i++) {\n            if (members[i] == msg.sender) {\n                indx = i;\n            }\n        }\n        server.leave(indx);\n    }\n}",
  "sourcePath": "/Users/mtumiati/Knobs/satellite/Vault74-Contracts/contracts/Vault74Registry.sol",
  "compiler": {
    "name": "solc",
    "version": "0.7.0+commit.9e61f92b.Emscripten.clang"
  },
  "schemaVersion": "3.3.4",
  "updatedAt": "2021-03-24T14:45:37.976Z",
  "networkType": "ethereum",
  "devdoc": {
    "details": "Implements storage and assignment of Vault74 DwellerIDs",
    "kind": "dev",
    "methods": {
      "createDweller(bytes32)": {
        "details": "Create a new dweller identification contract",
        "params": {
          "name": "The name this dweller wishes to go by"
        }
      },
      "createServer(bytes32)": {
        "details": "Create a new Server contract and assign the sender as owner",
        "params": {
          "name": "Human readable name of the server"
        }
      },
      "getDwellerId(address)": {
        "details": "Get an identifiaction contract for a given dweller",
        "params": {
          "dweller": "The address of the dweller we're looking up"
        }
      },
      "joinServer(address)": {
        "details": "If a user is not already a part of a server attempt to join a new server",
        "params": {
          "_server": "Address pointing to server contract to join"
        }
      },
      "leaveServer(address)": {
        "details": "If a user is a part of a server try to leave it",
        "params": {
          "_server": "Address pointing to server contract to leave"
        }
      }
    },
    "title": "Vault74Registry",
    "version": 1
  },
  "userdoc": {
    "kind": "user",
    "methods": {},
    "version": 1
  }
}